:1000000006308A006F2E0000FF00030E8301A1005E
:100010000A08A0008A010408A2007708A300780853
:10002000A4007908A5007A08A60003170D08031399
:10003000A70003170F080313A80003170C080313E6
:10004000A90003170E080313AA00831383128C3030
:100050008400801E2D288C1A4E2822088400230834
:10006000F7002408F8002508F9002608FA002708F8
:1000700003178D000313280803178F0003132908A3
:1000800003178C0003132A0803178E00031320089C
:100090008A00210E8300FF0E7F0E09008A110A12CA
:1000A000C8280A108A100A118207AA340034B13411
:1000B00000348316E201610862075F07F8006008F8
:1000C000FA000318FA0A7808E3007A08E4006208E4
:1000D0005D07840083135E1883170008E50063083A
:1000E0008400831364188317650880006208E20A9D
:1000F0005D07840083135E1883178008031D5B2847
:100100008312080083166008FA005F0884008313D6
:100110007A1883170008E3006208FA006108840077
:1001200083137A18831700086302031DAE28600842
:10013000FA005F08840083137A1883178008031D70
:10014000A4280030F800C6286008FA005F08DF0A1B
:100150000319E00AE10A0319E20A83286008FA0099
:100160005F0884008313601883170008E3006208A7
:10017000FA00610884008313621883170008630281
:100180000318C428FF30C5280130F8008312080086
:100190008C1EC8281A088316D60056080D3A8312FA
:1001A0000319D928293A0319EA28083A0319EE282D
:1001B0009829350BDC2833143508023C0319B31495
:1001C000331CE928B31CE928B31033100130F800C0
:1001D000A329A129B4013408B600A1295F3034074E
:1001E000840083138001B608031D35298316DE01C0
:1001F0005F30DD00E0013730DF00E101831259207C
:1002000047308316D7005030D8005230D9004D30D7
:10021000DA004330DB00DC01E0013730DF00E201CF
:10022000D730E10083128220F808031D1A2901301B
:10023000B500352947308316D7005030D8004730F5
:10024000D900DA004130DB00DC01E0013730DF00AB
:10025000E201D730E10083128220F808031D332920
:100260000230B50035290330B500360B4329350B74
:1002700043298316DE015F30DD00E0013D30DF0001
:10028000E101831259203608033C031D5429350B24
:1002900054298316DE015F30DD00E0014530DF00C8
:1002A0000130E100831259203608043C031D632904
:1002B000350B63295F084E3C031D61294E30C50094
:1002C00063295330C5003608053C031D7429350BDE
:1002D00074298316DE015F30DD00E0015230DF005B
:1002E0000130E100831259203608063C031D8329A2
:1002F000350B83295F08453C031D81294530D20019
:1003000083295730D2003608073C031D952935084C
:10031000023C031D95298316DE015F30DD00E001FC
:100320004330DF00E10183125920B60AB401A1294C
:100330003408B40A5F3E8400831383165608800095
:1003400083120030F8008C128A110A122D2808300E
:10035000F80000008711AC112C08831687000000FC
:10036000C00D83120712031CBB292C162C08831600
:100370008700BF2983122C122C08831687000000E7
:100380008312AC152C08831687008312871DC6299B
:10039000F80BA92900008711AC112C0883168700DF
:1003A000000083122C162C08831687000000000022
:1003B0008312AC152C08831687008312871DDE2953
:1003C000F8010000071A78148711AC112C08831665
:1003D0008700831207122C122C08831687008312C1
:1003E0000800C0308400831300080319042A063073
:1003F000F800F701F70BFA29F80BF9297B30F70021
:10040000F70B002A800BF729080008308316C1007B
:100410007708C20083122C162C0883168700000070
:100420008312AC152C08831687008312871D162AA9
:10043000071A0314071E0310F80D0000AC112C0856
:1004400083168700831287118316C10B0A2A831231
:100450002C162C08831687000000831207128316BF
:1004600042080319382A83122C122C08831687009D
:1004700000008312AC152C08831687008312871D99
:100480003F2A00008711AC112C088316870000005A
:10049000831207122C122C0883168700831208007F
:1004A000B630F700FA01F901F8018316400841045B
:1004B00042044304031D5E2AF7016B2A0310F81B54
:1004C0006A2AC00DC10DC20DC30DFA0DF90DF80D4C
:1004D000F70B5E2AF81383120800831649080319E4
:1004E000DE2AD1004D080319DE2AD10703187F2A1E
:1004F0007F30D102031CDE2A0319DE2A832A8130D1
:10050000D1070318DE2A5108F700F801F901FA01B2
:100510004A08D500D5174B08D4004C08D300183032
:10052000D100D201531CAC2A5008FA07031C9E2AA2
:10053000F90A031D9E2AF80A0319D2174F08F90772
:10054000031CA52AF80A0319D2174E08CB00CB17B3
:100550004B08F8070318D217D20DF80CF90CFA0C57
:10056000D50CD40CD30C0310D10B912A0130F70712
:100570000318DE2AF81BC32AD50DFA0DF90DF80D64
:10058000F7030319DE2AD51FD42AFA0A031DD42A39
:10059000F90A031DD42AF80A031DD42AF80CF90C11
:1005A000FA0CF70A0319DE2A4A08D2004E08D206CE
:1005B000D21FDC2AF817E22AF813E22AF701F80121
:1005C000F901FA01831208008E30F70083163F0804
:1005D000F8003E08F900FA01F808031DF92A790825
:1005E000F800F9010830F702F808031DF92AF701AD
:1005F000012B0310F81B002BF90DF80DF703F92A56
:10060000F8138312080083163D080319C92BC9008B
:1006100041080319C92BC902031C132B7F30C907DA
:100620000318C92B192B8130C902031CC92B0319CC
:10063000C92B4908F700F801F901FA01C8013E0881
:10064000C700C7173F08C6004008C5001930C900D9
:100650004408C50203183C2B0130C60203183C2B8A
:10066000C70203183C2BC80203183C2BC80AC70A50
:10067000C60A4408C5076E2B4308C6020318572B49
:100680000130C7020318572BC8020318572BC80A9A
:10069000C70A4308C6074408C507031C6E2BC60AD1
:1006A000031D6E2BC70A031D6E2BC80A6E2B420852
:1006B0008038C70203186D2B0130C80203186D2B58
:1006C000C80A42088038C7074308C607031C4B2BDB
:1006D000C70A031D4B2BC80A4B2B7A14C90B712B6D
:1006E0007C2B0310C50DC60DC70DC80D0310FA0DE8
:1006F000F90DF80DCA0D282B4A1C842B0310F80C99
:10070000F90CFA0CCA0C872BF7030319C92BCA1B67
:10071000B02B0310C50DC60DC70DC80D4408C5028A
:1007200003189C2B0130C60203189C2BC702031828
:100730009C2BC802031CBF2B4308C6020318A72B1F
:100740000130C7020318A72BC802031CBF2B4208A5
:100750008038C7020318B02B0130C802031CBF2B1E
:10076000FA0A031DBF2BF90A031DBF2BF80A031D4C
:10077000BF2BF70A0319C92BF80CF90CFA0C3E0829
:10078000C9004208C906C91FC72BF817CD2BF8139B
:10079000CD2BF701F801F901FA01831208002C10A2
:1007A0002C0883168700831207100830F800D82B16
:1007B0000000F817EB2BF8138316C90C83120318EB
:1007C0000714031C07107817EB2B7813F80BDC2B9E
:1007D000E92B0000071416308400840BED2BF02B5E
:1007E0000000F81BDB2B781BE52B08000B08831699
:1007F000BC0083128B13831603178C170C14000094
:1008000000000313BC1F072C83128B17831683125F
:1008100003170C087F390319682C83160313BC00D7
:10082000831203170D0883160313BD0083120317E9
:100830000F0883160313BE003C08C9008312CF23A0
:1008400083163D08831203178D00831603133E0899
:10085000831203178F0003130B088316BF00831244
:100860008B13831603178C170C140000000003135E
:10087000BF1F3D2C83128B178316831203170C0D99
:100880000E0D7F390319682C83160313BC008312E5
:1008900003170D0883160313BD00831203170F08F7
:1008A00083160313BE003C08C9008312CF238316AE
:1008B0003D08831203178D00831603133E0883122D
:1008C00003178F008D0A03198F0A0313F62B0317E2
:1008D0000313080083186F2CD13084008313F701B1
:1008E000F801F901FA018316D101D201D301D40133
:1008F00050084F044E044D040319AE2C2030D5008F
:100900000310C90DCA0DCB0DCC0DD10DD20DD30DD9
:10091000D40D50085402031D972C4F085302031D99
:10092000972C4E085202031D972C4D085102031CB0
:10093000A82C4D08D1024E08031C4E0FD2024F08BE
:10094000031C4F0FD3025008031C500FD402031492
:10095000F70DF80DF90DFA0DD50B802C510880001C
:10096000840A52088000840A53088000840A5408CC
:1009700080008312080004088316C1004008C300E9
:100980000319DD2C3F08CC003E08CB003D08CA000F
:100990003C08C900D001CF012030CE008230CD000C
:1009A00083126D227A088316BF007908BE0078088A
:1009B000BD007708BC00C30BC22C3F08CC003E082A
:1009C000CB003D08CA003C08C9004908B63CC90034
:1009D000FA014A08CD00CA170310CA0CCB0CCC0C84
:1009E000FA0CF90CF80CF70CC90BEC2CCD1F032DED
:1009F000F709F809F909FA09F70A0319F80A0319B6
:100A0000F90A0319FA0A7A08BF007908BE007808C3
:100A1000BD007708BC00BF1F1A2DC103C116BC0959
:100A2000BD09BE09BF09BC0A0319BD0A0319BE0AE4
:100A30000319BF0A3B30C8009A30C700CA30C6004D
:100A4000C5010A30C30040080319C10A8314BC3031
:100A5000840083133F08CC003E08CB003D08CA0049
:100A60003C08C9004808D0004708CF004608CE001F
:100A70004508CD0083126A247808F708031D572D16
:100A80008316400A4302031D472D8312572D410848
:100A900003195A2D0F3943020319502D0318922DB3
:100AA000C11B922D411B5A2D20308C2D83122030DA
:100AB0008316C105C11E6A2DC1124008031DC10362
:100AC0007708C1002D30C9008312CF238316410857
:100AD000F700C10140084302031D7A2D7708C100C9
:100AE0002E30C9008312CF2383164108F70020302F
:100AF000C10500303030C11E8C2DC1124008031DCD
:100B0000C1037708C1002D30C9008312CF2383169B
:100B10004108F700C1013030F7077708C900831298
:100B2000CF23831683104808CC004708CB00460823
:100B3000CA004508C900D001CF01CE010A30CD005E
:100B400083126A247A088316C8007908C7007808D7
:100B5000C6007708C500C30B262D83120800A32109
:100B600041272C00A329412A2C004F336616EC3470
:100B70006E004539721645397200AC122C08831686
:100B80008700203083128706BD308316AF00053002
:100B9000B0008A110A128312062F83168C16C030F9
:100BA00083128B04FF308316850086009E308700F9
:100BB000FF3088008900031788018901031381171A
:100BC000831287122C162C088316870000008312CC
:100BD000AC152C08831687000000831207122C1214
:100BE0002C0883168700000083128711AC112C0893
:100BF000831687008030C0008312A7218316C001AE
:100C00008312A72111308316C0008312A7219F30C1
:100C10008316C0008312A7212C122C08831687008C
:100C200000008312AC152C08831687008312871DE1
:100C3000172E00001B2E00002C162C088316870090
:100C4000000083122C162C088316870000008312E4
:100C5000AC152C08831687000000831207122C1293
:100C60002C0883168700000083128711AC112C0812
:100C7000831687008030C0008312A72105308316B9
:100C8000C0008312A72120308316C0008312A72141
:100C90008316C0018312A7212C122C08831687000B
:100CA00000008312AC152C08831687008312871D61
:100CB000572E00005B2E00002C162C088316870090
:100CC000000009150430BA00FA30C0008312F12187
:100CD0008316BA0B642E83128A110A12A52E0308FA
:100CE0001F398300831603178715083003139900F3
:100CF00002309A00A6309800903083129800FF309E
:100D0000AC002C102C0883168700831207143310B4
:100D1000B310B401B501F60102308316A000A90199
:100D2000B901B80103170908C039890003131F125C
:100D30009F12003003178800831287018801890100
:100D400083130313AD01AE01CD2D14308316BA0009
:100D5000FA30C0008312F1218316BA0BA82E831239
:100D600087168316AA01AC010A30AB00AE01AD01B3
:100D7000BD30AF000530B000B101B3010A30B200A0
:100D8000B5010130B4000030B6000830B70083125E
:100D9000AB01B53090008E010B308F00DC308E003F
:100DA0000C1003102B0DF7005120F90001307707CC
:100DB0005120FA007908840083137A1883170008F9
:100DC000F900840A0008F700840A0008F800840A81
:100DD000800A0008FA00031DF02E840A800A8403AA
:100DE000840A00087802031D082F77087A02031D81
:100DF000082F84038001840A8001840AF91B082FCC
:100E0000840A00088A008403000882008312031306
:100E1000AB0A02302B02031DD12EAB010C18CB2ED6
:080E20000E2FFF30AB00630050
:10100000F60A2C162C088316870000008312AC15F4
:101010002C08831687000000831207122C122C085C
:1010200083168700000083128711AC112C088316E9
:1010300087008030C0008A118312A7218A150230F0
:101040008316C0008A118312A7218A152C122C083E
:101050008316870000008312AC152C0883168700C6
:101060008312871D31280000352800002C162C081B
:101070008316870000000130C0008A118312F1211D
:101080008A152C162C088316870000008312AC15D5
:101090002C08831687000000831207122C122C08DC
:1010A00083168700000083128711AC112C08831669
:1010B00087008130C0008A118312A7218A15013070
:1010C000F7008A1105228A157808EC00F7018A11C9
:1010D00005228A157808EB002C122C08831687004D
:1010E00000008312AC152C08831687008312871D1D
:1010F000772800007B2800002C162C088316870018
:10110000000083126C088316BD0083126B088316DF
:10111000BC00BE01BF01BF0CBE0CBD0CBC0CBF0CA3
:10112000BE0CBD0CBC0CBF0CBE0CBD0CBC0C1F30EF
:10113000BF053F08C3003E08C2003D08C1003C088F
:10114000C0008A11831250228A157A088316CC00B7
:101150007908CB007808CA007708C9006F30D00042
:101160001230CF000330CE007730CD008A118312C9
:101170006D228A157A088316A4007908A3007808DE
:10118000A2007708A10083122C162C088316870072
:1011900000008312AC152C08831687000000831210
:1011A00007122C122C088316870000008312871167
:1011B000AC112C08831687008030C0008A1183127E
:1011C000A7218A1504308316C0008A118312A72133
:1011D0008A152C122C088316870000008312AC1588
:1011E0002C08831687008312871DF4280000F82836
:1011F00000002C162C088316870000000130C00068
:101200008A118312F1218A152C162C088316870067
:1012100000008312AC152C0883168700000083128F
:1012200007122C122C0883168700000083128711E6
:10123000AC112C08831687008130C0008A118312FC
:10124000A7218A150130F7008A1105228A1578082E
:10125000EC00F7018A1105228A157808EB002C12A0
:101260002C088316870000008312AC152C08831607
:1012700087008312871D3A2900003E2900002C16A2
:101280002C0883168700000083126C088316BD00AB
:1012900083126B088316BC00BE01BF013F08C30068
:1012A0003E08C2003D08C1003C08C0008A118312FC
:1012B00050228A157A088316CC007908CB0078086A
:1012C000CA007708C900CD30D000CC30CF004C30F8
:1012D000CE007A30CD008A1183126D228A157A08E9
:1012E0008316A8007908A7007808A6007708A5004B
:1012F0003D10BE01BF0109118312091583160911A2
:101300008312091112308316C0008A118312F12151
:101310008A1583160911831209152B30F700F70B74
:101320008F29831609153D108312091D9A298316EA
:101330003D14831283163D1CA0290130F800132AA6
:101340008530F700F70BA22909153D108312091DFE
:10135000AC2983163D14831283163D18B22902303E
:10136000F800132A8530F700F70BB429BE013E08B8
:10137000043C031CF6296D303E07F800FA010318FF
:10138000FA0A7808C0007A08C100C201C301C2018C
:101390004208073C031CEA290310C30D09158312F8
:1013A0000919D4298316CE293130F700F70BD62935
:1013B000D929831609158312091DE12983164314BF
:1013C00083128316091583120919E1290130831646
:1013D000C207C8294308F800400884008313411855
:1013E0008317780880000130BE07B72909118312DE
:1013F00009158316BE013E08033C031C082A6D3004
:101400003E07840083130008BF070130BE07FB2995
:1014100071083F020319102A0330F800132A132A17
:101420000030F800132A7808BC003C08013A831207
:101430000319212A033A0319242A013A0319282AF5
:101440002C2A0130F800AA2A0230F800AA2AAA2A77
:101450000330F800AA2AAA2A6D08FA006E0883163B
:10146000BE007A08BF008A118312E4228A157A0826
:10147000FE007908FD007808FC007708FB007E0874
:101480008316C0007D08BF007C08BE007B08BD003D
:10149000C401C3012030C2008230C1008A1183120E
:1014A00003238A157A08FE007908FD007808FC00FD
:1014B0007708FB006F087F398316BD00FA007008BB
:1014C000BE007A08BF008A118312E4228A157A08C6
:1014D000F5007908F4007808F3007708F200EF1FB0
:1014E0008C2A75088316CC007408CB007308CA00D8
:1014F0007208C900D001CF018030CE007F30CD000E
:101500008A1183126D228A157A08F5007908F40091
:101510007808F3007708F20075088316C000740895
:10152000BF007308BE007208BD00C401C3012030B3
:10153000C2008230C1008A11831203238A157A08FF
:10154000F5007908F4007808F3007708F20000301D
:10155000F800AA2A78088316A90020087602031D3D
:10156000862CAF30831203178D0005308F008A114F
:101570000313F6238A153D088316C9008A118312C6
:10158000CF238A153E088316C9008A118312CF2300
:101590008A152C308316C9008A118312CF238A152D
:1015A0003F088316C9008A118312CF238A15400889
:1015B0008316C9008A118312CF238A152C30831613
:1015C000C9008A118312CF238A1541088316C900E6
:1015D0008A118312CF238A1542088316C9008A1103
:1015E0008312CF238A152C308316C9008A118312E7
:1015F000CF238A1545088316C9008A118312CF2389
:101600008A1546088316C9008A118312CF238A15CA
:1016100047088316C9008A118312CF238A15480808
:101620008316C9008A118312CF238A1549088316AD
:10163000C9008A118312CF238A154A088316C9006C
:101640008A118312CF238A154B088316C9008A1189
:101650008312CF238A154C088316C9008A1183127E
:10166000CF238A154D088316C9008A118312CF2310
:101670008A154E088316C9008A118312CF238A1552
:101680004F088316C9008A118312CF238A15500888
:101690008316C9008A118312CF238A152C30831632
:1016A000C9008A118312CF238A1552088316C900F4
:1016B0008A118312CF238A1553088316C9008A1111
:1016C0008312CF238A1554088316C9008A11831206
:1016D000CF238A1555088316C9008A118312CF2398
:1016E0008A1556088316C9008A118312CF238A15DA
:1016F00057088316C9008A118312CF238A15580808
:101700008316C9008A118312CF238A1559088316BC
:10171000C9008A118312CF238A155A088316C9007B
:101720008A118312CF238A155B088316C9008A1198
:101730008312CF238A155C088316C9008A1183128D
:10174000CF238A155D088316C9008A118312CF231F
:101750008A152C308316C9008A118312CF238A156B
:1017600043088316C9008A118312CF238A154408BF
:101770008316C9008A118312CF238A152C30831651
:10178000C9008A118312CF238A15893084008316F9
:101790002408BF002308BE002208BD002108BC00A9
:1017A0000230C0008A118312BB248A152C308316A4
:1017B000C9008A118312CF238A15893084008316C9
:1017C0002808BF002708BE002608BD002508BC0069
:1017D0000230C0008A118312BB248A150A30831696
:1017E000C9008A118312CF238A150D308316C900D0
:1017F0008A118312CF238A15B23003178D0005306A
:101800008F008A110313F6238A1583162908013ADB
:1018100083120319122C033A0319122C013A0319EB
:101820001C2C262CB53003178D0005308F008A1133
:101830000313F6238A154F2CB93003178D0005309A
:101840008F008A110313F6238A154F2C0130840070
:1018500075088316BF007408BE007308BD007208C7
:10186000BC000130C0008A118312BB248A152C30C1
:101870008316C9008A118312CF238A150130840090
:101880007E088316BF007D08BE007C08BD007B0873
:10189000BC000130C0008A118312BB248A152C3091
:1018A0008316C9008A118312CF238A150A30831642
:1018B000C9008A118312CF238A150D308316C900FF
:1018C0008A118312CF238A15F601BD01BE01BF0123
:1018D000C001C101C201C501C601C701C801C901DA
:1018E000CA01CB01CC01CD01CE01CF01D001D20183
:1018F000D301D401D501D601D701D801D901DA012C
:10190000DB01DC01DD01C301C40183160030B60038
:0C1910000830B7008A110A128312062F5B
:04400E00F22CFF3F52
:00000001FF
;PIC16F887
;CRC=DE4B  CREATED="10-may.-20 02:16"
