:1000000003308A00932B0000FF00030E8301A10040
:100010000A08A0008A010408A2007708A300780853
:10002000A4007908A5007A08A60003170D08031399
:10003000A70003170F080313A80003170C080313E6
:10004000A90003170E080313AA00831383128C3030
:100050008400801E2D288C1A4E2822088400230834
:10006000F7002408F8002508F9002608FA002708F8
:1000700003178D000313280803178F0003132908A3
:1000800003178C0003132A0803178E00031320089C
:100090008A00210E8300FF0E7F0E09008A110A12CA
:1000A000C8280A108A100A1182076D340034A0345F
:1000B00000348316B901380839073607F8003708C5
:1000C000FA000318FA0A7808BA007A08BB0039085F
:1000D000340784008313351883170008BC003A08DE
:1000E000840083133B1883173C0880003908B90A41
:1000F000340784008313351883178008031D5B2899
:100100008312080083163708FA0036088400831328
:100110007A1883170008BA003908FA0038088400F2
:1001200083137A18831700083A02031DAE28370894
:10013000FA003608840083137A1883178008031D99
:10014000A4280030F800C6283708FA003608B60A96
:100150000319B70AB80A0319B90A83283708FA003D
:10016000360884008313371883170008BA0039084B
:10017000FA003808840083133918831700083A02FC
:100180000318C428FF30C5280130F8008312080086
:100190008C1EC8281A088316AD002D080D3A83124C
:1001A0000319D928293A0319EA28083A0319EE282D
:1001B0009829350BDC2833143508023C0319B31495
:1001C000331CE928B31CE928B31033100130F800C0
:1001D000A329A129B4013408B600A1295F3034074E
:1001E000840083138001B608031D35298316B501E9
:1001F0005F30B400B7013730B600B8018312592020
:1002000047308316AE005030AF005230B0004D3052
:10021000B1004330B200B301B7013730B600B901C5
:10022000AE30B80083128220F808031D1A2901306D
:10023000B500352947308316AE005030AF00473047
:10024000B000B1004130B200B301B7013730B600A1
:10025000B901AE30B80083128220F808031D33299B
:100260000230B50035290330B500360B4329350B74
:1002700043298316B5015F30B400B7013D30B600A5
:10028000B801831259203608033C031D5429350B4D
:1002900054298316B5015F30B400B7014530B6006C
:1002A0000130B800831259203608043C031D63292D
:1002B000350B63295F084E3C031D61294E30C50094
:1002C00063295330C5003608053C031D7429350BDE
:1002D00074298316B5015F30B400B7015230B600FF
:1002E0000130B800831259203608063C031D8329CB
:1002F000350B83295F08453C031D81294530D20019
:1003000083295730D2003608073C031D952935084C
:10031000023C031D95298316B5015F30B400B70177
:100320004330B600B80183125920B60AB401A1299E
:100330003408B40A5F3E8400831383162D088000BE
:1003400083120030F8008C128A110A122D282C100A
:100350002C0883168700831207100830F800B02994
:100360000000F817C329F8138316AC0C8312031886
:100370000714031C07107817C3297813F80BB42946
:10038000C1290000071416308400840BC529C82930
:100390000000F81BB329781BBD2908000B08831641
:1003A000A90083128B13831603178C170C140000FB
:1003B00000000313A91FDF2983128B1783168312F2
:1003C00003170C087F390319402A83160313A90069
:1003D000831203170D0883160313AA008312031751
:1003E0000F0883160313AB002908AC008312A72162
:1003F00083162A08831203178D00831603132B0814
:10040000831203178F0003130B088316AC008312AB
:100410008B13831603178C170C14000000000313B2
:10042000AC1F152A83128B178316831203170C0D2A
:100430000E0D7F390319402A83160313A900831276
:1004400003170D0883160313AA00831203170F085E
:1004500083160313AB002908AC008312A72183166F
:100460002A08831203178D00831603132B088312A7
:1004700003178F008D0A03198F0A0313CE29031760
:1004800003130800EB0A6C086B02031D482B513064
:1004900003178D0003308F000313CE213D08831610
:1004A000AC008312A7213E088316AC008312A7215B
:1004B0002C308316AC008312A7213F088316AC00B2
:1004C0008312A72140088316AC008312A7212C3089
:1004D0008316AC008312A72141088316AC00831257
:1004E000A72142088316AC008312A7212C30831663
:1004F000AC008312A72145088316AC008312A72104
:1005000046088316AC008312A72147088316AC0067
:100510008312A72148088316AC008312A72149083B
:100520008316AC008312A7214A088316AC008312FD
:10053000A7214B088316AC008312A7214C08831611
:10054000AC008312A7214D088316AC008312A721AB
:100550004E088316AC008312A7214F088316AC0007
:100560008312A72150088316AC008312A7212C30D8
:100570008316AC008312A72152088316AC008312A5
:10058000A72153088316AC008312A72154088316B1
:10059000AC008312A72155088316AC008312A72153
:1005A00056088316AC008312A72157088316AC00A7
:1005B0008312A72158088316AC008312A72159087B
:1005C0008316AC008312A7215A088316AC0083124D
:1005D000A7215B088316AC008312A7215C08831651
:1005E000AC008312A7215D088316AC008312A721FB
:1005F0002C308316AC008312A72143088316AC006D
:100600008312A72144088316AC008312A7212C3043
:100610008316AC008312A7210A308316AC00831224
:10062000A7210D308316AC008312A7215430031785
:100630008D0003308F000313CE210A308316AC00E7
:100640008312A7210D308316AC008312A721EB0182
:10065000BD01BE01BF01C001C101C201C501C6018A
:10066000C701C801C901CA01CB01CC01CD01CE012E
:10067000CF01D001D201D301D401D501D601D701D8
:10068000D801D901DA01DB01DC01DD01C301C401BC
:1006900042308316A5000230A6008A110A12831286
:1006A000292CA32141272C00A329412A2C00AC127C
:1006B0002C08831687002030831287065730F200FB
:1006C0000330F3008A110A12292C83168C16C030CD
:1006D00083128B04FF308316850086009E308700CE
:1006E000FF308800890003178801890103138117EF
:1006F000831287128A110A12C82BA8308400831330
:1007000000080319902B0630F800F701F70B862B31
:10071000F80B852B7B30F700F70B8C2B800B832B92
:100720008A110A12CF2B03081F398300831603177F
:10073000871508300313990002309A00A6309800FC
:10074000903083129800FF30AC002C102C088316D8
:100750008700831207143310B310B401B501EB0105
:100760000230EC00F501F401831603170908C039C3
:10077000890003131F129F12003003178800831291
:1007800087018801890183130313AD01AE01652B35
:1007900014308316A700FA30A80083127D2B83162D
:1007A000A70BCB2B83128716ED01EF010A30EE0069
:1007B000F101F0015730F2000330F3008316A0017D
:1007C000A2010A30A100A4010130A3004230A5001B
:1007D0000230A6008312AB01B53090008E010B30C1
:1007E0008F00DC308E000C1003102B0DF700512011
:1007F000F900013077075120FA007908840083134B
:100800007A1883170008F900840A0008F700840AA0
:100810000008F800840A800A0008FA00031D132C5F
:10082000840A800A8403840A00087802031D2B2CA2
:1008300077087A02031D2B2C84038001840A80012F
:10084000840AF91B2B2C840A00088A008403000800
:10085000820083120313AB0A02302B02031DF42B18
:0E086000AB010C18EE2B312CFF30AB00630007
:04400E00F22CFF3F52
:00000001FF
;PIC16F887
;CRC=7E8C  CREATED="10-may.-20 00:23"
