:100000000F308A000C2F0000FF00030E8301A100B7
:100010000A08A0008A010408A2007708A300780853
:10002000A4007908A5007A08A60003170D08031399
:10003000A70003170F080313A80003170C080313E6
:10004000A90003170E080313AA00831383128C3030
:100050008400801E2D288C1A4E2822088400230834
:10006000F7002408F8002508F9002608FA002708F8
:1000700003178D000313280803178F0003132908A3
:1000800003178C0003132A0803178E00031320089C
:100090008A00210E8300FF0E7F0E09008A110A12CA
:1000A000D0280A108A100A1182071034013417343C
:1000B00001341E3401342534013483160317DA0168
:1000C00059085A075707F8005808FA000318FA0A9F
:1000D0007808DB007A08DC005A085507840083138F
:1000E000561883170008DD005B08840083135C1832
:1000F00083175D0880005A08DA0A550784008313C5
:10010000561883178008031D602883120313080004
:10011000831603175808FA005708840083137A18C7
:1001200083170008DB005A08FA005908840083137B
:100130007A18831700085B02031DB5285808FA00D7
:100140005708840083137A1883178008031DAB288F
:100150000030F800CD285808FA005708D70A0319CC
:10016000D80AD90A0319DA0A8A285808FA0057085F
:1001700084008313581883170008DB005A08FA001C
:100180005908840083135A18831700085B02031868
:10019000CB28FF30CC280130F8008312031308006D
:1001A0008C1ED0281A0883160317CE004E080D3A6D
:1001B000831203130319E328293A0319F428083A90
:1001C0000319F828B229350BE62833143508023C08
:1001D0000319B314331CF328B31CF328B3103310E2
:1001E0000130F800BF29BD29B4013408B600BD298B
:1001F0005F303407840083138001B608031D47294C
:1002000083160317D6015F30D500D8013730D700E9
:10021000D901831203135D20473083160317CF00E3
:100220005030D0005230D1004D30D2004330D30096
:10023000D401D8013730D7000130DA00CF30D900EF
:10024000831203138820F808031D29290130B50003
:100250004729473083160317CF005030D00047306E
:10026000D100D2004130D300D401D8013730D700BB
:100270000130DA00CF30D900831203138820F80848
:10028000031D45290230B50047290330B500360B60
:100290005729350B572983160317D6015F30D50030
:1002A000D8013D30D700D901831203135D203608F1
:1002B000033C031D6A29350B6A2983160317D601EF
:1002C0005F30D500D8014530D7000230D900831205
:1002D00003135D203608043C031D7929350B792969
:1002E0005F084E3C031D77294E30C60079295330F4
:1002F000C6003608053C031D8C29350B8C29831656
:100300000317D6015F30D500D8015230D700013035
:10031000D900831203135D203608063C031D9B2978
:10032000350B9B295F08453C031D99294530D200B8
:100330009B295730D2003608073C031DAF293508EA
:10034000023C031DAF2983160317D6015F30D50089
:10035000D8014330D700D901831203135D20B60AB8
:10036000B401BD293408B40A5F3E840083138316A8
:1003700003174E088000831203130030F8008C121C
:100380008A110A122D288E30F70003174308F8004F
:100390004208F900FA01F808031DD8297908F80085
:1003A000F9010830F702F808031DD829F701E02900
:1003B0000310F81BDF29F90DF80DF703D829F813FE
:1003C00003130800031742080319A82ACE004608A1
:1003D0000319A82ACE02031CF2297F30CE07031886
:1003E000A82AF8298130CE02031CA82A0319A82ABA
:1003F0004E08F700F801F901FA01CD014308CC00DD
:10040000CC174408CB004508CA001930CE00490873
:10041000CA0203181B2A0130CB0203181B2ACC0284
:1004200003181B2ACD0203181B2ACD0ACC0ACB0ABB
:100430004908CA074D2A4808CB020318362A01305A
:10044000CC020318362ACD020318362ACD0ACC0A6C
:100450004808CB074908CA07031C4D2ACB0A031DCD
:100460004D2ACC0A031D4D2ACD0A4D2A4708803853
:10047000CC0203184C2A0130CD0203184C2ACD0AB5
:1004800047088038CC074808CB07031C2A2ACC0A27
:10049000031D2A2ACD0A2A2A7A14CE0B502A5B2A57
:1004A0000310CA0DCB0DCC0DCD0D0310FA0DF90DB7
:1004B000F80DCF0D072A4F1C632A0310F80CF90C16
:1004C000FA0CCF0C662AF7030319A82ACF1B8F2A30
:1004D0000310CA0DCB0DCC0DCD0D4908CA0203186F
:1004E0007B2A0130CB0203187B2ACC0203187B2A1B
:1004F000CD02031C9E2A4808CB020318862A01302D
:10050000CC020318862ACD02031C9E2A4708803895
:10051000CC0203188F2A0130CD02031C9E2AFA0A4E
:10052000031D9E2AF90A031D9E2AF80A031D9E2A0E
:10053000F70A0319A82AF80CF90CFA0C4308CE00A4
:100540004708CE06CE1FA62AF817AC2AF813AC2A05
:10055000F701F801F901FA01031308000830F80067
:1005600000008711AC112C088316870000000317C8
:10057000BA0D831203130712031CC42A2C162C086D
:1005800083168700C82A83122C122C088316870032
:1005900000008312AC152C08831687008312871D78
:1005A000CF2AF80BB02A00008711AC112C08831653
:1005B0008700000083122C162C0883168700000089
:1005C00000008312AC152C08831687008312871D48
:1005D000E72AF8010000071A78148711AC112C08DB
:1005E00083168700831207122C122C0883168700AB
:1005F00083120800443084008317000803190D2B70
:100600000630F800F701F70B032BF80B022B7B30B9
:10061000F700F70B092B800B002B0800083083161E
:100620000317BB007708BC00831203132C162C0899
:100630008316870000008312AC152C0883168700F0
:100640008312871D212B071A0314071E0310F80DB0
:100650000000AC112C0883168700831287118316C3
:100660000317BB0B142B831203132C162C088316B1
:100670008700000083120712831603173C08031932
:10068000482B831203132C122C08831687000317A0
:10069000000083120313AC152C0883168700831205
:1006A000871D502B00008711AC112C088316870082
:1006B0000000831207122C122C0883168700831265
:1006C0000800B630F700FA01F901F80183160317A4
:1006D0001C081D041E041F04031D702BF7017D2B35
:1006E0000310F81B7C2B9C0D9D0D9E0D9F0DFA0D8C
:1006F000F90DF80DF70B702BF81383120313080094
:10070000831603171C080319F22BA40020080319F1
:10071000F22BA4070318932B7F30A402031CF22BA7
:100720000319F22B972B8130A4070318F22B24080E
:10073000F700F801F901FA011D08A800A8171E0822
:10074000A7001F08A6001830A400A501261CC02B76
:100750002308FA07031CB22BF90A031DB22BF80A6F
:100760000319A5172208F907031CB92BF80A031966
:10077000A51721089E009E171E08F8070318A51745
:10078000A50DF80CF90CFA0CA80CA70CA60C03107C
:10079000A40BA52B0130F7070318F22BF81BD72B5E
:1007A000A80DFA0DF90DF80DF7030319F22BA81F88
:1007B000E82BFA0A031DE82BF90A031DE82BF80AB7
:1007C000031DE82BF80CF90CFA0CF70A0319F22BAD
:1007D0001D08A5002108A506A51FF02BF817F62B6C
:1007E000F813F62BF701F801F901FA01831203134C
:1007F00008002C102C08831687008312071008307D
:10080000F800022C0000F817152CF8130317D80C69
:10081000031303180714031C07107817152C7813FB
:10082000F80B062C132C0000071416308400840BE0
:10083000172C1A2C0000F81B052C781B0F2C080015
:100840000B080317C00003138B13831603178C17B1
:100850000C14000000008312C01F312C03138B17EF
:1008600003170C087F3903196E2CC0000D08C10056
:100870000F08C2004008D8000313F92303174108EA
:100880008D0042088F0003130B080317C3000313E6
:100890008B13831603178C170C14000000008312AF
:1008A000C31F552C03138B1703170C0D0E0D7F3927
:1008B00003196E2CC0000D08C1000F08C2004008CB
:1008C000D8000313F923031741088D0042088F0055
:1008D0008D0A03198F0A0313202C03170313080032
:1008E0008318752CAA3084008317F701F801F901E9
:1008F000FA0183160317AA01AB01AC01AD01290867
:100900002804270426040319B52C2030AE00031058
:10091000A20DA30DA40DA50DAA0DAB0DAC0DAD0D33
:1009200029082D02031D9E2C28082C02031D9E2C35
:1009300027082B02031D9E2C26082A02031CAF2C1D
:100940002608AA022708031C270FAB022808031C4D
:10095000280FAC022908031C290FAD020314F70D60
:10096000F80DF90DFA0DAE0B872C2A088000840AC9
:100970002B088000840A2C088000840A2D0880003F
:1009800083120313080004080317C9004808CB00AA
:100990000319ED2C470883169F008312460883161F
:1009A0009E008312450883169D0083124408831617
:1009B0009C00A301A2012030A1008230A00083127C
:1009C000031380237A080317C7007908C600780844
:1009D000C5007708C400CB0BCA2C4708D4004608D2
:1009E000D3004508D2004408D1005108B63CD100DC
:1009F000FA015208D500D2170310D20CD30CD40C34
:100A0000FA0CF90CF80CF70CD10BFC2CD51F132D9C
:100A1000F709F809F909FA09F70A0319F80A031995
:100A2000F90A0319FA0A7A08C7007908C600780893
:100A3000C5007708C400C71F2A2DC903C916C409F9
:100A4000C509C609C709C40A0319C50A0319C60A94
:100A50000319C70A3B30D0009A30CF00CA30CE000D
:100A6000CD010A30CB0048080319C90A8314443069
:100A70008400831747088316A5008312460883164F
:100A8000A400831245088316A3008312440883162A
:100A9000A200831250088316A90083124F08831600
:100AA000A80083124E088316A70083124D088316F0
:100AB000A6008312031370247808F708031D772D0E
:100AC0000317480A4B02031D672D0313772D4908AE
:100AD00003197A2D0F394B020319702D0318B22D0B
:100AE000C91BB22D491B7A2D2030AC2D03132030A9
:100AF0000317C905C91E8A2DC9124808031DC90359
:100B00007708C9002D30D8000313F92303174908CB
:100B1000F700C90148084B02031D9A2D7708C90048
:100B20002E30D8000313F92303174908F7002030AB
:100B3000C90500303030C91EAC2DC9124808031D4C
:100B4000C9037708C9002D30D8000313F923031710
:100B50004908F700C9013030F7077708D8000313B8
:100B6000F9230317831050088316A50083124F083A
:100B70008316A40083124E088316A30083124D0827
:100B80008316A200A901A801A7010A30A6008312BA
:100B9000031370247A080317D0007908CF0078086F
:100BA000CE007708CD00CB0B362D03130800831839
:100BB000DC2DC830840083178316031743084706CB
:100BC0008039CD00C31FEF2DC009C109C209C30977
:100BD000C00A0319C10A0319C20A0319C30AC71FAD
:100BE000FC2DC409C509C609C709C40A0319C50AE9
:100BF0000319C60A0319C70AF701F801F901FA0136
:100C0000C801C901CA01CB01470846044504440490
:100C100003193A2E2030CC000310C00DC10DC20DB7
:100C2000C30DC80DC90DCA0DCB0D47084B02031DDE
:100C3000232E46084A02031D232E45084902031DA0
:100C4000232E44084802031C342E4408C8024508D9
:100C5000031C450FC9024608031C460FCA02470879
:100C6000031C470FCB020314F70DF80DF90DFA0D15
:100C7000CC0B0C2ECD1F472EF709F809F909FA09FC
:100C8000F70A0319F80A0319F90A0319FA0A4808B6
:100C90008000840A49088000840A4A088000840A87
:100CA0004B08800083120313080004080317D000C8
:100CB0003B30D7009A30D600CA30D500D4010A3074
:100CC000D20083144C30840083174F088316A5008C
:100CD00083124E088316A40083124D088316A300C6
:100CE00083124C088316A200831257088316A900AA
:100CF000831256088316A800831255088316A7008E
:100D0000831254088316A6008312031370247808F4
:100D1000F708031DA22E03175208013A031D922E55
:100D20000313A22E50080319A42E0F3952020319DF
:100D30009B2E0318AB2ED01BAB2E501BA42E2030A5
:100D4000A52E03130317D0013030F7077708D8001A
:100D50000313F9230317831057088316A500831282
:100D600056088316A400831255088316A300831225
:100D700054088316A200A901A801A7010A30A60001
:100D80008312031370247A080317D7007908D6005A
:100D90007808D5007708D400D20B612E0313080021
:100DA000A32141272C002C162C162C050D00A3295D
:100DB000412A2C004F336616EC346E00453972160A
:100DC00045397200203083160317CA00C601C701D7
:100DD000C801C9014108FA004008F9003F08F800BD
:100DE0003E08F7000310771C032F4208C60743088C
:100DF0000318430FC70744080318440FC8074508E2
:100E00000318450FC907C90CC80CC70CC60CFA0C4F
:100E1000F90CF80CF70CCA0BF22E8312031308001E
:100E20008316861220308312860610300317950031
:100E3000073096008A150A120313C42F2C162C08AB
:100E40008316870000008312AC152C0883168700D8
:100E50000000831207122C122C0883168700000052
:100E600083128711AC112C0883168700EE3003170C
:100E7000BA0083120313AE22031736088316BA0092
:100E800083120313AE222C162C0883168700000051
:100E90008312AC152C088316870000008312871D6F
:100EA0004F2F07122C122C08831687000000831284
:100EB0008711AC112C0883168700EF300317BA0096
:100EC00083120313AE22F7010E2378080317B7002D
:100ED00003132C122C088316870000008312AC1514
:100EE0002C08831687008312871D742F0000782F2B
:100EF00000002C162C0883168700000083120317AD
:100F00003708F800031308002C162C0883168700F6
:100F100000008312AC152C08831687000000831292
:100F200007122C122C0883168700000083128711E9
:100F3000AC112C0883168700EE300317BA00831219
:100F40000313AE2203173D088316BA00831203135E
:100F5000AE2203173E088316BA0083120313AE2293
:100F60002C122C088316870000008312AC152C0865
:100F7000831687008312871DBB2F0000BF2F000040
:0E0F80002C162C088316870000008312080030
:101000008030831C082883160317A306831203135A
:1010100083160317A801A9011F08A7002308A70624
:101020001E080319F828A600F70022080319012951
:10103000A60203199D2803181E285B282308AC006C
:10104000AC172408AB002508AA00A9010310AC0CBA
:10105000AB0CAA0CA90CA60B2528A71F3228281414
:101060001529281026102816A130840083172B2953
:101070002812A71B4528261C5028AC0CAB0CAA0C28
:10108000A90CF70A031910295028AC1B5328031088
:10109000A90DAA0DAB0DAC0DF703031910294528B6
:1010A0002817BD2828131F08A700A71F5928AC1709
:1010B0000929AC1309292208A600F7001E08A60278
:1010C0001F08AC00AC172008AB002108AA00A9013A
:1010D0000310AC0CAB0CAA0CA90CA60B6728A71F1D
:1010E0007428A8141529A8102610A816A530840065
:1010F00083172B29A812A71B8728261C9228AC0C23
:10110000AB0CAA0CA90CF70A031910299228AC1BE6
:1011100095280310A90DAA0DAB0DAC0DF70303190B
:1011200010298728A817BD28A8132308A700A71FE0
:101130009B28AC170929AC1309292308AC00AC176C
:101140002408AB002508AA00A71FAA28AC1328155D
:1011500015292811A9012610A130840083172B29F5
:10116000A71BD3281F08A700261CBD28AC0CAB0C5E
:10117000AA0CA90CF70A03191029A91FCE28AA0A3C
:10118000031DCE28AB0A031DCE28AC0A031DCE28B2
:10119000AC0CAB0CAA0CF70A03191029281B522817
:1011A000A81B9428F2288030AC06AC1FDB28152938
:1011B0002308A700E8281F08A700AC08031DE8289B
:1011C000AB08031DE828AA08031DE828F701092930
:1011D000AC1BF2280310A90DAA0DAB0DAC0DF70B3B
:1011E000E8281029A71FF628AC170929AC130929EC
:1011F0002208F7002308AC002408AB002508AA0049
:1012000009291E08F7001F08AC002008AB002108C0
:10121000AA002C08F8002B08F9002A08FA004A292D
:10122000F701F801F901FA014A29A901AA09AB0954
:10123000AC09A909A90A031D2429AA0A031D242906
:10124000AB0A031D2429AC0A28183128A8187328D2
:101250002819A928D8280008AA07031C3529AB0A91
:10126000031D3529AC0A0319261484030008AB07B3
:10127000031C3D29AC0A0319261484030008801BB3
:101280004229803AAC0703182614281A3828A81ACD
:101290007A28B0288312031308008316D10A143069
:1012A000F80083121F08C33978049F009F149F1809
:1012B00057291E08FA0083161E08DC007A08DD0094
:1012C0005D0883120317C100831603135C088312A1
:1012D0000317C000C3010530C2001030C400F7017D
:1012E000FA01C10CC00C031C7B294208F707031844
:1012F000FA0A4308FA07FA0CF70CF90CF80CC40BBD
:1013000071297908C1007808C0004108C30040086D
:10131000C2008A110313C3218A157A080317C50076
:101320007908C4007808C3007708C200C901C80161
:10133000C7018930C6008A110313E2218A157A0891
:101340008316E1007908E0007808DF007708DE0006
:1013500083122C162C088316870000008312AC150C
:101360002C08831687000000831207122C122C0809
:1013700083168700000083128711AC112C08831696
:10138000870080300317BA008A1183120313AE223C
:101390008A15043083160317BA008A1183120313C7
:1013A000AE228A152C122C088316870000008312A7
:1013B000AC152C08831687008312871DDD290000D9
:1013C000E12900002C162C0883168700000001304C
:1013D00083120317C4008A110313FA228A152C16EC
:1013E0002C088316870000008312AC152C08831686
:1013F00087000000831207122C122C088316870026
:10140000000083128711AC112C08831687008130ED
:101410000317BA008A1183120313AE228A15013012
:10142000F7008A110E238A157808ED00F7018A115A
:101430000E238A157808EC002C122C0883168700DE
:1014400000008312AC152C08831687008312871DB9
:10145000272A00002B2A00002C162C088316870050
:10146000000083126D080317C10003136C080317F3
:10147000C000C201C301430883169F0083124208C3
:1014800083169E008312410883169D008312400834
:1014900083169C008A118312031361238A157A082C
:1014A000831603179F0079089E0078089D0077082F
:1014B0009C00CD30A300CC30A2004C30A1007A308B
:1014C000A0008A118312031380238A157A088316D9
:1014D000E5007908E4007808E3007708E200831269
:1014E00003174110C201C3018316031309118312AC
:1014F0000915831609118312091112300317C4004C
:101500008A110313FA228A15831609118312091509
:101510002B30F700F70B8A2A83160915831203175D
:1015200041100313091D972A0317411403130317CE
:10153000411C9D2A0130F800172B8530F700F70B6E
:101540009F2A8316031309158312031741100313EF
:10155000091DAD2A03174114031303174118B32AB9
:101560000230F800172B8530F700F70BB52AC201BF
:101570004208043C031CF92A6E304207F800FA01C5
:101580000318FA0A7808C4007A08C500C601C70122
:10159000C6014608073C031CED2A0310C70D83163D
:1015A0000313091583120919D72A0317CF2A3130DB
:1015B000F700F70BD92ADC2A831609158312091DB7
:1015C000E42A031747140313831609158312091914
:1015D000E42A01300317C607C92A4708F80044085F
:1015E0008400831345188317780880000130C207F0
:1015F000B82A831603130911831209150317C201B0
:101600004208033C031C0D2B6E30420784008313F9
:101610000008C3070130C207002B720843020319F8
:10162000152B0330F800172B172B0030F800780823
:10163000C0004008013A03130319252B033A03198C
:10164000282B013A03192C2B302B0130F800AF2B3B
:101650000230F800AF2BAF2B0330F800AF2BAF2BCD
:101660006E08FA006F080317C2007A08C3008A11D7
:101670000313C3218A157A08FE007908FD00780853
:10168000FC007708FB007E080317C5007D08C40036
:101690007C08C3007B08C200C901C8012030C70014
:1016A0008230C6008A110313E2218A157A08FE00EF
:1016B0007908FD007808FC007708FB0070087F3986
:1016C0000317C100FA007108C2007A08C3008A112A
:1016D0000313C3218A157A08F6007908F500780803
:1016E000F4007708F300F01F922B76088316031797
:1016F0009F0075089E0074089D0073089C00A3015C
:10170000A2018030A1007F30A0008A118312031350
:1017100080238A157A08F6007908F5007808F40025
:101720007708F30076080317C5007508C40074082D
:10173000C3007308C200C901C8012030C70082304D
:10174000C6008A110313E2218A157A08F600790887
:10175000F5007808F4007708F3000030F800780806
:101760008316E60052085102031D892ED0308312E1
:1017700003178D0006308F008A11031320248A1569
:10178000C708031DCD2BD33003178D0006308F0003
:101790008A11031320248A15D72C3D080317D8007B
:1017A0008A110313F9238A153E080317D8008A11FA
:1017B0000313F9238A152C300317D8008A11031359
:1017C000F9238A153F080317D8008A110313F92358
:1017D0008A1540080317D8008A110313F9238A15C4
:1017E0002C300317D8008A110313F9238A154108F6
:1017F0000317D8008A110313F9238A154208031727
:10180000D8008A110313F9238A152C300317D80046
:101810008A110313F9238A1546080317D8008A1181
:101820000313F9238A1547080317D8008A110313F5
:10183000F9238A1548080317D8008A110313F923DE
:101840008A1549080317D8008A110313F9238A154A
:101850004A080317D8008A110313F9238A154B0885
:101860000317D8008A110313F9238A154C080317AC
:10187000D8008A110313F9238A154D080317D800DD
:101880008A110313F9238A154E080317D8008A1109
:101890000313F9238A154F080317D8008A1103137D
:1018A000F9238A1550080317D8008A110313F92366
:1018B0008A152C300317D8008A110313F9238A15CF
:1018C00052080317D8008A110313F9238A15530805
:1018D0000317D8008A110313F9238A155408031734
:1018E000D8008A110313F9238A1555080317D80065
:1018F0008A110313F9238A1556080317D8008A1191
:101900000313F9238A1557080317D8008A11031304
:10191000F9238A1558080317D8008A110313F923ED
:101920008A1559080317D8008A110313F9238A1559
:101930005A080317D8008A110313F9238A155B0884
:101940000317D8008A110313F9238A155C080317BB
:10195000D8008A110313F9238A155D080317D800EC
:101960008A110313F9238A152C300317D8008A1122
:101970000313F9238A1543080317D8008A110313A8
:10198000F9238A1544080317D8008A110313F92391
:101990008A150A300317D8008A110313F9238A1510
:1019A0000D300317D8008A110313F9238A15D73095
:1019B00003178D0006308F008A11031320248A1527
:1019C00083166608013A83120319ED2C033A0319B2
:1019D000ED2C013A0319F72C012DDA3003178D0095
:1019E00006308F008A11031320248A152A2DDE3039
:1019F00003178D0006308F008A11031320248A15E7
:101A00002A2D0130840076080317C7007508C60028
:101A10007408C5007308C4000130C8008A1103139C
:101A2000C3248A152C300317D8008A110313F92315
:101A30008A15013084007E080317C7007D08C600A0
:101A40007C08C5007B08C4000130C8008A1103135C
:101A5000C3248A152C300317D8008A110313F923E5
:101A60008A15831083166A080317C30003136908D5
:101A70000317C200031368080317C10003136708A4
:101A80000317C000C701C601C5016430C4008A1134
:101A900083120313D7258A157A080317C300790820
:101AA000C2007808C1007708C00083144430840065
:101AB0008317831603136A080317C3000313690807
:101AC0000317C200031368080317C1000313670854
:101AD0000317C000C701C601C5016430C4008A11E4
:101AE00083120313D7258A1503174708CB0046082E
:101AF000CA004508C9004408C800423084004308B1
:101B0000CF004208CE004108CD004008CC008A1129
:101B1000031355268A152E300317D8008A11031394
:101B2000F9238A154230840003174B08CF004A0876
:101B3000CE004908CD004808CC008A110313552671
:101B40008A152C300317D8008A110313F9238A153C
:101B50000230840083165B0883120317C7008316C4
:101B600003135A0883120317C60083160313590878
:101B700083120317C5008316031358088312031733
:101B8000C4000230C8008A110313C3248A152C3004
:101B90000317D8008A110313F9238A1583148316B7
:101BA00057080317A100031356080317A0000313D7
:101BB000550803179F000313540803179E000313CF
:101BC0005B080317A50003135A080317A4000313A7
:101BD00059080317A300031358080317A200831220
:101BE000031300207A080317C3007908C20078089D
:101BF000C1007708C000023084004308C7004208D3
:101C0000C6004108C5004008C4000230C8008A115F
:101C10000313C3248A152C300317D8008A11031329
:101C2000F9238A158930840083166108831203170B
:101C3000C70083160313600883120317C6008316B8
:101C400003135F0883120317C500831603135E088E
:101C500083120317C4000230C8008A110313C3247F
:101C60008A152C300317D8008A110313F9238A151B
:101C7000893084008316650883120317C700831612
:101C80000313640883120317C60083160313630843
:101C900083120317C5008316031362088312031708
:101CA000C4000230C8008A110313C3248A150A3005
:101CB0000317D8008A110313F9238A150D3003176F
:101CC000D8008A110313F9238A158316D1018312D0
:101CD000BD01BE01BF01C001C101C201C501C601F4
:101CE000C701C801C901CA01CB01CC01CD01CE0198
:101CF000CF01D001D201D301D401D501D601D70142
:101D0000D801D901DA01DB01DC01DD01C301C40125
:101D100083164D3083120317AA000930AB008A15D1
:101D20000A120313C42F2C162C08831687000000F8
:101D30008312AC152C08831687000000831207124B
:101D40002C122C0883168700000083128711AC1117
:101D50002C0883168700EE300317BA008A1183120D
:101D60000313AE228A15031734088316BA008A11AA
:101D700083120313AE228A152C162C0883168700B3
:101D800000008312AC152C08831687000000831214
:101D9000871DC82E07122C122C08831687000000FE
:101DA00083128711AC112C0883168700EF300317BC
:101DB000BA008A1183120313AE228A150130F7008C
:101DC0008A110E238A1578080317B500F7018A11C6
:101DD00003130E238A1578080317B60003132C1279
:101DE0002C088316870000008312AC152C0883167C
:101DF00087008312871DFA2E0000FE2E00002C168D
:101E00002C08831687000000831203173508F8009A
:101E10003608F9000313080003081F3983008316EE
:101E2000031787152A300313990000309A00A63053
:101E30009800903083129800FF30AC002C102C08D2
:101E400083168700831207143310B310B401B50151
:101E50008316D1010230D200D301E60183120317A9
:101E6000AD01AC0183160908C039890003131F12A4
:101E70009F120030031788008312870188018901AF
:101E800083130313AD01AE010A16A32B0A121430FB
:101E90000317AE00FA30C4008A110313FA228A1520
:101EA0000317AE0B4A2F03138616031790019201F6
:101EB0000A3091009401930110309500073096008C
:101EC000970199010A3098009B0101309A00003077
:101ED0009C0010309D009E01A0010A309F00A201CD
:101EE0000230A1000030A3001830A400A501A70112
:101EF0000A30A600A9010330A8004D30AA0009301D
:101F0000AB000313AB01B53090008E010B308F0096
:101F1000DC308E000C1003102B0DF7008A115120BD
:101F20008A15F900013077078A1151208A15FA00C5
:101F30007908840083137A1883170008F900840A4B
:101F40000008F700840A0008F800840A800A0008E4
:101F5000FA00031DAE2F840A800A8403840A000855
:101F60007802031DC62F77087A02031DC62F84034B
:101F70008001840A8001840AF91BC62F840A0008A4
:101F80008A0084030008820083120313AB0A043022
:101F90002B02031D8B2FAB010C18852FCC2FFF308C
:041FA000AB0063002F
:10200000831603179101EB309000831003132F0800
:102010000317C30003132E080317C20003132D0870
:102020000317C10003132C080317C000C701C60122
:10203000C5010230C4000A1283120313D7250A1601
:102040007A0883160317A1007908A00078089F007A
:1020500077089E0000301E0292001F089300FA309D
:10206000031CFB309302200894000030031C013055
:102070009402210895000030031C01309502831062
:102080001508C3001408C2001308C1001208C000DC
:10209000C701C601C5010430C4000A12831203132C
:1020A000D7250A167A0883160317A1007908A0001D
:1020B00078089F0077089E0083101508C300140855
:1020C000C2001308C1001208C000C701C601C50143
:1020D0000430C4000A1283120313D7250A167A08A3
:1020E00083160317A5007908A4007808A3007708D1
:1020F000A2002108C1002008C0001F08BF001E0860
:10210000BE002508C5002408C4002308C300220817
:10211000C2000A1283120313E2260A167A088316F3
:102120000317A1007908A00078089F0077089E0097
:1021300083102108C3002008C2001F08C1001E0828
:10214000C000C701C6010830C500C4010A128312CD
:102150000313D7250A167A0883160317A1007908F6
:10216000A00078089F0077089E0003134008F7003E
:102170004108F800F901FA01C11FC028F903FA0368
:102180007A080317A5007908A4007808A300770847
:10219000A2002108C1002008C0001F08BF001E08BF
:1021A000BE002508C5002408C4002308C300220877
:1021B000C2000A1283120313E2260A167A08831653
:1021C0000317990079089800780897007708960017
:1021D00003133E08F7003F08F800F901FA01BF1F9A
:1021E000F328F903FA037A080317A1007908A0007D
:1021F00078089F0077089E001508C1001408C000E9
:102200001308BF001208BE002108C5002008C40042
:102210001F08C3001E08C2000A1283120313E2261D
:102220000A167A0883160317A1007908A000780817
:102230009F0077089E002108C1002008C0001F08E9
:10224000BF001E08BE00C501C401C3010230C200A8
:102250000A1283120313E2260A167708831603175D
:10226000960778080318780F970779080318790FED
:1022700098077A0803187A0F990783101908C30082
:102280001808C2001708C1001608C000C701C6011F
:10229000C5010430C4000A1283120313D7250A169D
:1022A0007A0883160317A1007908A00078089F0018
:1022B00077089E00A501A40103133D080317A3009E
:1022C00003133C080317A200A31F6829A403A50356
:1022D0002508C1002408C0002308BF002208BE0052
:1022E000C5010130C400C301C2010A1283120313E5
:1022F000E2260A167708831603171E0796001F08A2
:10230000970078080318780F970720089800790835
:102310000318790F9807210899007A0803187A0F93
:102320009907A101A00103133B0803179F000313A2
:102330003A0803179E009F1F9F29A003A103831043
:102340001508C3001408C2001308C1001208C00019
:10235000C701C601C5010430C4000A128312031369
:10236000D7250A167A0883160317A5007908A40052
:102370007808A3007708A20083101508C30014088A
:10238000C2001308C1001208C000C701C601C50180
:102390000430C4000A1283120313D7250A167A08E0
:1023A00083160317A9007908A8007808A700770802
:1023B000A6002508C1002408C0002308BF00220889
:1023C000BE002908C5002808C4002708C300260845
:1023D000C2000A1283120313E2260A167A08831631
:1023E0000317A5007908A4007808A3007708A200C5
:1023F00083102508C3002408C2002308C100220856
:10240000C000C701C6012030C500C4010A128312F2
:102410000313D7250A167A0883160317A50079082F
:10242000A4007808A3007708A2002108C1002008B2
:10243000C0001F08BF001E08BE002508C5002408F4
:10244000C4002308C3002208C2000A128312031327
:10245000E2260A167A0883160317A1007908A0005D
:1024600078089F0077089E0083102108C300200889
:10247000C2001F08C1001E08C000C701C601C50177
:102480000830C4000A1283120313D7250A167A08EB
:1024900083160317A1007908A00078089F00770829
:1024A0009E00A501A401031339080317A300031319
:1024B00038080317A200A31F5F2AA403A503250859
:1024C000C1002408C0002308BF002208BE00150870
:1024D000C5001408C4001308C3001208C2000A1281
:1024E00083120313E2260A167A0883160317A5003F
:1024F0007908A4007808A3007708A20083102508B3
:10250000C3002408C2002308C1002208C000C7017C
:10251000C601C5010230C4000A1283120313D72575
:102520000A167708831603179E0778080318780F92
:102530009F0779080318790FA0077A0803187A0F04
:10254000A10783102108C3002008C2001F08C10092
:102550001E08C000C7010430C600C501C4010A122C
:1025600083120313D7250A167A08831603179500DA
:1025700079089400780893007708920012089E006A
:10258000803013079F001408A000003003180130AA
:10259000A0071508A100003003180130A10703139C
:1025A0003608F7003708F800F901FA017A0803172E
:1025B000A5007908A4007808A3007708A2002108E4
:1025C000C1002008C0001F08BF001208BE00250877
:1025D000C5002408C4002308C3002208C2000A1250
:1025E00083120313E2260A167A0883160317A10042
:1025F0007908A00078089F0077089E0083102108C2
:10260000C3002008C2001F08C1001E08C000C70187
:10261000C6018030C500C4010A1283120313D725F6
:102620000A167A088316031795007908940078082B
:102630009300770892009208031D2A2B9308031D2C
:102640002A2B9408031D2A2B9508031D2A2B0030E2
:10265000F8005A2D03132408003CF700F801250860
:10266000031C250FF8021030F9002608031C260F62
:10267000F902FA012708031C270FFA027A08031748
:10268000A1007908A00078089F0077089E008310B9
:102690001908C3001808C2001708C1001608C000B6
:1026A000C701C6011030C500C4010A12831203130A
:1026B000D7250A167708831603179E027808031C8D
:1026C000780F9F027908031C790FA0027A08031C77
:1026D0007A0FA1022108C1002008C0001F08BF0016
:1026E0001E08BE00C501C4010C30C3003530C20055
:1026F0000A1283120313E2260A167A0883160317B6
:102700009D0079089C0078089B0077089A001D08B6
:102710007F3C031CB52B03101A0D9E001B0D9F0060
:102720001C0DA0001D0DA10083102108A50020088C
:10273000A4001F08A3001E08A2001508A900140881
:10274000A8001308A7001208A6000A128312031398
:1027500070240A167A08831603179D0079089C00D6
:1027600078089B0077089A00DE2B83101D08A500CF
:102770001C08A4001B08A3001A08A2001508A90041
:102780001408A8001308A7001208A6000A12831252
:10279000031370240A167A0883160317A100790818
:1027A000A00078089F0077089E0003101E0D9A0075
:1027B0001F0D9B00200D9C00210D9D00A101A0017B
:1027C0000313470803179F000313460803179E00CF
:1027D0009F1FEC2BA003A1031D0CA5001C0CA40043
:1027E0001B0CA3001A0CA200A50CA40CA30CA20C99
:1027F000A50CA40CA30CA20C1F30A5051D0CFA00FF
:102800001C0CF9001B0CF8001A0CF700FA0CF90C60
:10281000F80CF70CFA0CF90CF80CF70C1F30FA0551
:102820007A08A9007908A8007808A7007708A60008
:102830002508C1002408C0002308BF002208BE00EC
:102840002908C5002808C4002708C3002608C200BC
:102850000A1283120313E2260A167A088316031754
:10286000A5007908A4007808A3007708A200FA015F
:10287000250CF900240CF800230CF700F90CF80CD7
:10288000F70CF90CF80CF70CF90CF80CF70CF90C28
:10289000F80CF70C0730F9052108C1002008C0002A
:1028A0001F08BF001E08BE007A08C5007908C400D2
:1028B0007808C3007708C2000A1283120313E226C5
:1028C0000A167A0883160317A1007908A000780871
:1028D0009F0077089E0083102108C3002008C200D3
:1028E0001F08C1001E08C000C701C6011030C50086
:1028F000C4010A1283120313D7250A167A08831615
:1029000003179500790894007808930077089200DF
:102910001D0CFA001C0CF9001B0CF8001A0CF70037
:10292000FA0CF90CF80CF70C3F30FA057A08A10004
:102930007908A00078089F0077089E0003134408D8
:10294000F7004508F800F901FA01C51FA92CF903A1
:10295000FA037A080317A5007908A4007808A300F1
:102960007708A2002108C1002008C0001F08BF008E
:102970001E08BE002508C5002408C4002308C300A3
:102980002208C2000A1283120313E2260A167A08EA
:1029900083160317A1007908A00078089F00770824
:1029A0009E0083102108C3002008C2001F08C10038
:1029B0001E08C000C701C6012030C500C4010A12AC
:1029C00083120313D7250A167A0883160317990072
:1029D000790898007808970077089600160812077B
:1029E0009E0013089F0017080318170F9F0714086D
:1029F000A00018080318180FA0071508A10019084F
:102A00000318190FA10703134208F7004308F80041
:102A1000F901FA01C31F0E2DF903FA037708031712
:102A20009E0778080318780F9F0779080318790F15
:102A3000A0077A0803187A0FA10783102108C300A2
:102A40002008C2001F08C1001E08C000C701C6013F
:102A5000C5011030C4000A1283120313D7250A16C9
:102A6000831603171A08F7071B0803181B0FF8072C
:102A70001C0803181C0FF9071D0803181D0FFA077F
:102A80007A089D0079089C0078089B0077089A00D6
:102A9000100884008313111883171A088000840A11
:102AA0001B088000840A1C088000840A1D0880001E
:102AB0000130F800831003136E080317A5000313F9
:102AC0006D080317A40003136C080317A300031376
:102AD0006B080317A200A901A801A7016430A60092
:102AE0000A128312031370240A167A088316031736
:102AF0009300790892007808910077089000831479
:102B000094308400831703136E080317A500031382
:102B10006D080317A40003136C080317A300031325
:102B20006B080317A200A901A801A7016430A60041
:102B30000A128312031370240A1683160317170848
:102B40009B0016089A0015089900140898001B08A5
:102B50009F001A089E0019089D0018089C000A1280
:102B60008312031361230A167A08831603179F0042
:102B700079089E0078089D0077089C000A30A30021
:102B8000D730A2002330A1007830A0000A128312AF
:102B9000031380230A167A08831603179B0079080B
:102BA0009A00780899007708980013089F00120887
:102BB0009E0011089D0010089C000A128312031346
:102BC00061230A16831603179D0104089C001D103B
:102BD000831B1D1483107A08A1007908A0007808CF
:102BE0009F0077089E001B08A5001A08A40019087A
:102BF000A3001808A2000A128A15831203130020EA
:102C00000A168A11831603171C08840083131D18E3
:102C100083177A080313DB007908DA007808D900F3
:102C20007708D8005308033C031C1E2E5B08D7000E
:102C30005A08D6005908D5005808D400D30A5308BA
:102C4000023C0318252E0430D300003083120317F2
:0E2C50009C0010309D008A150A120313C42F39
:1030000083160317AD01E730AC00B9018312031337
:103010002C162C088316870000008312AC152C0890
:10302000831687000000831207122C122C088316C7
:103030008700000083128711AC112C0883168700CB
:10304000EE300317BA000A128A1183120313AE225C
:103050000A168A15F73083160317BA000A128A1166
:1030600083120313AE220A168A152C162C08831617
:10307000870000008312AC152C088316870000001F
:103080008312871D412807122C122C0883168700F3
:10309000000083128711AC112C0883168700EF30D3
:1030A0000317BA000A128A1183120313AE220A16FA
:1030B0008A150130F7000A128A110E230A168A15A2
:1030C000780883160317B8000130F7000A128A1136
:1030D000831203130E230A168A1578088316031722
:1030E000B7000130F7000A128A11831203130E236E
:1030F0000A168A15780883160317B600390CBE0025
:10310000380CBD00370CBC00360CBB00BE0CBD0C2F
:10311000BC0CBB0CBE0CBD0CBC0CBB0CBE0CBD0C6B
:10312000BC0CBB0C0F30BE053B08F7003C08F80098
:103130003D080F39F900FA017A080313A70079084E
:10314000A6007808A5007708A4000130F7000A124D
:103150008A1183120E230A168A157808831603171C
:10316000B8000130F7000A128A11831203130E23EC
:103170000A168A15780883160317B7000130F7007E
:103180000A128A11831203130E230A168A1578086D
:1031900083160317B600390CBE00380CBD00370C7F
:1031A000BC00360CBB00BE0CBD0CBC0CBB0CBE0C7A
:1031B000BD0CBC0CBB0CBE0CBD0CBC0CBB0C0F3056
:1031C000BE053B08F7003C08F8003D080F39F90040
:1031D000FA017A080313A3007908A2007808A10075
:1031E0007708A0000317B8010130F7000A128A110E
:1031F000831203130E230A168A1578088316031701
:10320000B700F7010A128A11831203130E230A165C
:103210008A15780883160317B600831203132C123D
:103220002C088316870000008312AC152C08831627
:1032300087008312871D1A2900001E2900002C1602
:103240002C0883168700000003173608F70037089C
:10325000F800F901FA017A080313AB007908AA0013
:103260007808A9007708A800831023080317C30073
:10327000031322080317C200031321080317C10018
:10328000031320080317C000C701C601C501083099
:10329000C4000A128A1183120313D7250A168A154D
:1032A0007A0883160317B9007908B8007808B700C0
:1032B0007708B600BD01BC01031331080317BB003A
:1032C000031330080317BA003D08C1003C08C000D2
:1032D0003B08BF003A08BE00C501C401C30102306B
:1032E000C2000A128A1183120313E2260A168A15F3
:1032F000770883160317B6027808031C780FB70205
:103300007908031C790FB8027A08031C7A0FB902F6
:1033100003133208F7003308F800F901FA01B31F6C
:103320009329F903FA037A080317BD007908BC0052
:103330007808BB007708BA003908C1003808C00017
:103340003708BF003608BE003D08C5003C08C40071
:103350003B08C3003A08C2000A128A118312031301
:10336000E2260A168A157A0883160317B900790827
:10337000B8007808B7007708B60083103908C30092
:103380003808C2003708C1003608C000C701C601AE
:103390000830C500C4010A128A1183120313D7250D
:1033A0000A168A157A0883160317B1007908B00047
:1033B0007808AF007708AE008310031323080317C3
:1033C000C300031322080317C200031321080317C5
:1033D000C100031320080317C000C701C601C501BF
:1033E0001030C4000A128A1183120313D7250A165B
:1033F0008A157A0883160317B9007908B800780887
:10340000B7007708B60003133008F7003108F8005A
:10341000F901FA0130080317B6027808031C780F87
:10342000B7027908031C790FB8027A08031C7A0FD7
:10343000B9028310031323080317C30003132208E0
:103440000317C200031321080317C1000313200848
:103450000317C000C701C601C5011030C4000A121D
:103460008A1183120313D7250A168A157A08831640
:103470000317BD007908BC007808BB007708BA00C4
:1034800003133108F800F901FA01300803173A0272
:10349000F7007808031C780F4F2A3B08502A3B029C
:1034A000F8007908031C790F572A3C08582A3C0277
:1034B000F9007A08031C7A0F5F2A3D08602A3D0252
:1034C000FA00BD007908BC007808BB007708BA0094
:1034D0003908C1003808C0003708BF003608BE00F0
:1034E0003D08C5003C08C4003B08C3003A08C200C0
:1034F0000A128A1183120313E2260A168A157A0821
:1035000083160317B9007908B8007808B700770860
:10351000B60083103908C3003808C2003708C1005C
:103520003608C000C701C6011030C500C4010A1228
:103530008A1183120313D7250A168A157A0883166F
:103540000317B9007908B8007808B7007708B60003
:1035500003133408F7003508F800F901FA01B51F24
:10356000B32AF903FA037A080317BD007908BC00EF
:103570007808BB007708BA003908C1003808C000D5
:103580003708BF003608BE003D08C5003C08C4002F
:103590003B08C3003A08C2000A128A1183120313BF
:1035A000E2260A168A157A0883160317B9007908E5
:1035B000B8007808B7007708B60083103908C30050
:1035C0003808C2003708C1003608C000C701C6016C
:1035D0004030C500C4010A128A1183120313D72593
:1035E0000A168A157A0883160317B5007908B400FD
:1035F0007808B3007708B20032082E070313AC0036
:1036000003172F080313AD00031733080318330FF4
:103610000A2B0D2B0313AD07031730080313AE005D
:10362000031734080318340F162B192B0313AE0796
:10363000031731080313AF00031735080318350FBC
:10364000222B252B0313AF0703172D08FA002C0894
:10365000840083132D188317B9010408B8003910AA
:10366000831B391403132F080317C10003132E08FB
:103670000317C00003132D080317BF0003132C0802
:103680000317BE00C501C401C3010530C2000A1200
:103690008A1183120313E2260A168A15831603176A
:1036A000380884008313391883177A08BD00790815
:1036B000BC007808BB007708BA008030BA07003039
:1036C00003180130BB07003003180130BC0700307D
:1036D00003180130BD07BF010408BE003F10831B63
:1036E0003F1483103D08C3003C08C2003B08C100E2
:1036F0003A08C000C701C6010130C500C4010A1262
:103700008A1183120313D7250A168A158316031705
:103710003E08840083133F18831777088000840ACB
:1037200078088000840A79088000840A7A0880007A
:103730000130F80000308312A3001830A4008A156D
:103740000A120313C42F83168C16C03083128B0405
:10375000FF3083168500DF3086009E308700FF3003
:10376000880089000317880189010908C039890088
:1037700003131F129F1220300317880083120313B4
:103780001F179F1783169F1783121F148316811705
:10379000831286122C162C088316870000008312D1
:1037A000AC152C08831687000000831207122C1218
:1037B0002C0883168700000083128711AC112C0897
:1037C0008316870080300317BA000A128A11831209
:1037D0000313AE220A168A1583160317BA010A12BA
:1037E0008A1183120313AE220A168A15113083162A
:1037F0000317BA000A128A1183120313AE220A16A3
:103800008A159F3083160317BA000A128A11831291
:103810000313AE220A168A152C122C088316870071
:1038200000008312AC152C08831687008312871DB5
:10383000172C00001B2C00002C162C088316870068
:10384000000083122C162C088316870000008312B8
:10385000AC152C08831687000000831207122C1267
:103860002C0883168700000083128711AC112C08E6
:103870008316870080300317BA000A128A11831258
:103880000313AE220A168A15053083160317BA00F1
:103890000A128A1183120313AE220A168A152030E7
:1038A00083160317BA000A128A1183120313AE2279
:1038B0000A168A1583160317BA010A128A1183128F
:1038C0000313AE220A168A152C122C0883168700C1
:1038D00000008312AC152C08831687008312871D05
:1038E0006F2C0000732C00002C162C088316870008
:1038F00000000915043083120317AE00FA30C4002B
:103900000A128A110313FA220A168A150317AE0B3C
:103910007E2C0330AE000130AF00B000B100B20128
:10392000B301D030B6000A128A1103131E270A16FB
:103930008A157808603C0319A02C0030F8005C2E32
:10394000E0300317BD00B630BE000A128A1103131F
:1039500084270A168A1564300317C4000A128A11D4
:103960000313FA220A168A15F3300317B6000A1257
:103970008A1103131E270A168A1578080139013C9B
:10398000031DCC2C64300317C4000A128A110313E0
:10399000FA220A168A15B42C88300317B4000A12CA
:1039A000031393260A1679088316B1007808B0002D
:1039B0008A3083120317B4000A12031393260A16DF
:1039C00079088316B3007808B2008C30831203178D
:1039D000B4000A12031393260A1679088316B50059
:1039E0007808B4008E3083120317B4000A12031350
:1039F00093260A1679088316B7007808B600903027
:103A000083120317B4000A12031393260A167908C7
:103A10008316B9007808B800923083120317B400F7
:103A20000A12031393260A1679088316BB00780836
:103A3000BA00943083120317B4000A1203139326BA
:103A40000A1679088316BD007808BC0096308312E8
:103A50000317B4000A12031393260A167908831673
:103A6000BF007808BE00983083120317B4000A1212
:103A7000031393260A1679088316C1007808C0003C
:103A80009A3083120317B4000A12031393260A16FE
:103A900079088316C3007808C2009C30831203178C
:103AA000B4000A12031393260A1679088316C50078
:103AB0007808C4009E3083120317B4000A1203135F
:103AC00093260A1679088316C7007808C600A13025
:103AD00083120317B6000A128A1103131E270A164F
:103AE0008A1578088316C800E13083120317B400E2
:103AF0000A12031393260A1679088316CA00780857
:103B0000C900E33083120317B6000A128A110313A7
:103B10001E270A168A1578088316CB00E430831214
:103B20000317B6000A128A1103131E270A168A15F4
:103B30000317B5017808B400B40DB50DB40DB50D7B
:103B4000B40DB50DB40DB50DF030B405E530B600CB
:103B50000A128A1103131E270A168A1578080F39CC
:103B600003173404F7003508FA00770883160313A7
:103B7000CC007A08CD000039F7004D080839FA006A
:103B800077087A040319C62DF030CD04E63083128D
:103B90000317B6000A128A1103131E270A168A1584
:103BA0000317B5017808B400B40DB50DB40DB50D0B
:103BB000B40DB50DB40DB50DF030B405E530B6005B
:103BC0000A128A1103131E270A168A15780EF700A7
:103BD0000F30F705770803173404F7003508FA00AB
:103BE000770883160313CE007A08CF000039F70058
:103BF0004F080839FA0077087A040319012EF030CB
:103C0000CF04E73083120317B6000A128A11031398
:103C10001E270A168A1578088316D0008312031708
:103C20002E08B4002F08B5003008B6003108B700E0
:103C30003208B8003308B9003608BA00390EBD00A2
:103C4000BD0DE030BD05380DF700F70DFC30F70570
:103C500077083D04FC39BC00350EBD00BD0DE030D9
:103C6000BD05370DF700F70DFC30F70577083D046B
:103C70003404BB00F230BD003A08BE000A128A11BB
:103C8000031384270A168A15F5300317BD003C0874
:103C9000BE000A128A11031384270A168A15F4300B
:103CA0000317BD003B08BE000A128A1103138427C4
:0E3CB0000A168A150130F8008A150A12462FEE
:04400E00F22CFF3F52
:00000001FF
;PIC16F887
;CRC=FD14  CREATED="07-jun.-20 17:08"
