:100000000D308A00D12D0000FF00030E8301A100F6
:100010000A08A0008A010408A2007708A300780853
:10002000A4007908A5007A08A60003170D08031399
:10003000A70003170F080313A80003170C080313E6
:10004000A90003170E080313AA00831383128C3030
:100050008400801E2D288C1A4E2822088400230834
:10006000F7002408F8002508F9002608FA002708F8
:1000700003178D000313280803178F0003132908A3
:1000800003178C0003132A0803178E00031320089C
:100090008A00210E8300FF0E7F0E09008A110A12CA
:1000A000D0280A108A100A118207E634003410346E
:1000B0000134173401341E34013483160317D1017F
:1000C000500851074E07F8004F08FA000318FA0AC3
:1000D0007808D2007A08D30051084C0784008313B3
:1000E0004D1883170008D400520884008313531856
:1000F0008317540880005108D10A4C0784008313E9
:100100004D1883178008031D60288312031308000D
:10011000831603174F08FA004E08840083137A18D9
:1001200083170008D2005108FA0050088400831396
:100130007A18831700085202031DB5284F08FA00E9
:100140004E08840083137A1883178008031DAB2898
:100150000030F800CD284F08FA004E08CE0A0319E7
:10016000CF0AD00A0319D10A8A284F08FA004E088C
:10017000840083134F1883170008D2005108FA0037
:100180005008840083135118831700085202031883
:10019000CB28FF30CC280130F8008312031308006D
:1001A0008C1ED0281A0883160317C50045080D3A7F
:1001B000831203130319E328293A0319F428083A90
:1001C0000319F828B229350BE62833143508023C08
:1001D0000319B314331CF328B31CF328B3103310E2
:1001E0000130F800BF29BD29B4013408B600BD298B
:1001F0005F303407840083138001B608031D47294C
:1002000083160317CD015F30CC00CF013730CE000D
:10021000D001831203135D20473083160317C600F5
:100220005030C7005230C8004D30C9004330CA00BA
:10023000CB01CF013730CE000130D100C630D00025
:10024000831203138820F808031D29290130B50003
:100250004729473083160317C6005030C700473080
:10026000C800C9004130CA00CB01CF013730CE00F1
:100270000130D100C630D000831203138820F80863
:10028000031D45290230B50047290330B500360B60
:100290005729350B572983160317CD015F30CC0042
:1002A000CF013D30CE00D001831203135D2036080C
:1002B000033C031D6A29350B6A2983160317CD01F8
:1002C0005F30CC00CF014530CE000230D000831229
:1002D00003135D203608043C031D7929350B792969
:1002E0005F084E3C031D77294E30C60079295330F4
:1002F000C6003608053C031D8C29350B8C29831656
:100300000317CD015F30CC00CF015230CE00013059
:10031000D000831203135D203608063C031D9B2981
:10032000350B9B295F08453C031D99294530D200B8
:100330009B295730D2003608073C031DAF293508EA
:10034000023C031DAF2983160317CD015F30CC009B
:10035000CF014330CE00D001831203135D20B60AD3
:10036000B401BD293408B40A5F3E840083138316A8
:10037000031745088000831203130030F8008C1225
:100380008A110A122D288E30F70003173A08F80058
:100390003908F900FA01F808031DD8297908F8008E
:1003A000F9010830F702F808031DD829F701E02900
:1003B0000310F81BDF29F90DF80DF703D829F813FE
:1003C00003130800031739080319A82AC5003D08BC
:1003D0000319A82AC502031CF2297F30C507031898
:1003E000A82AF8298130C502031CA82A0319A82AC3
:1003F0004508F700F801F901FA01C4013A08C30001
:10040000C3173B08C2003C08C1001930C5004008B2
:10041000C10203181B2A0130C20203181B2AC3029F
:1004200003181B2AC40203181B2AC40AC30AC20ADF
:100430004008C1074D2A3F08C2020318362A01307E
:10044000C3020318362AC4020318362AC40AC30A90
:100450003F08C2074008C107031C4D2AC20A031DFA
:100460004D2AC30A031D4D2AC40A4D2A3E0880386E
:10047000C30203184C2A0130C40203184C2AC40AD0
:100480003E088038C3073F08C207031C2A2AC30A54
:10049000031D2A2AC40A2A2A7A14C50B502A5B2A69
:1004A0000310C10DC20DC30DC40D0310FA0DF90DDB
:1004B000F80DC60D072A461C632A0310F80CF90C28
:1004C000FA0CC60C662AF7030319A82AC61B8F2A42
:1004D0000310C10DC20DC30DC40D4008C1020318A5
:1004E0007B2A0130C20203187B2AC30203187B2A2D
:1004F000C402031C9E2A3F08C2020318862A013048
:10050000C3020318862AC402031C9E2A3E088038B0
:10051000C30203188F2A0130C402031C9E2AFA0A60
:10052000031D9E2AF90A031D9E2AF80A031D9E2A0E
:10053000F70A0319A82AF80CF90CFA0C3A08C500B6
:100540003E08C506C51FA62AF817AC2AF813AC2A20
:10055000F701F801F901FA01031308000830F80067
:1005600000008711AC112C088316870000000317C8
:10057000B10D831203130712031CC42A2C162C0876
:1005800083168700C82A83122C122C088316870032
:1005900000008312AC152C08831687008312871D78
:1005A000CF2AF80BB02A00008711AC112C08831653
:1005B0008700000083122C162C0883168700000089
:1005C00000008312AC152C08831687008312871D48
:1005D000E72AF8010000071A78148711AC112C08DB
:1005E00083168700831207122C122C0883168700AB
:1005F000831208003B3084008317000803190D2B79
:100600000630F800F701F70B032BF80B022B7B30B9
:10061000F700F70B092B800B002B0800083083161E
:100620000317B2007708B300831203132C162C08AB
:100630008316870000008312AC152C0883168700F0
:100640008312871D212B071A0314071E0310F80DB0
:100650000000AC112C0883168700831287118316C3
:100660000317B20B142B831203132C162C088316BA
:10067000870000008312071283160317330803193B
:10068000482B831203132C122C08831687000317A0
:10069000000083120313AC152C0883168700831205
:1006A000871D502B00008711AC112C088316870082
:1006B0000000831207122C122C0883168700831265
:1006C0000800031744080319D22BCC00480803196B
:1006D000D22BCC070318732B7F30CC02031CD22BF8
:1006E0000319D22B772B8130CC070318D22B4C085F
:1006F000F700F801F901FA014508D000D0174608C3
:10070000CF004708CE001830CC00CD014E1CA02BE6
:100710004B08FA07031C922BF90A031D922BF80AC7
:100720000319CD174A08F907031C992BF80A031976
:10073000CD174908C600C6174608F8070318CD1795
:10074000CD0DF80CF90CFA0CD00CCF0CCE0C03101C
:10075000CC0B852B0130F7070318D22BF81BB72BD6
:10076000D00DFA0DF90DF80DF7030319D22BD01F98
:10077000C82BFA0A031DC82BF90A031DC82BF80A57
:10078000031DC82BF80CF90CFA0CF70A0319D22B2D
:100790004508CD004908CD06CD1FD02BF817D62B24
:1007A000F813D62BF701F801F901FA010313080039
:1007B0002C102C0883168700831207100830F800CD
:1007C000E12B0000F817F42BF8130317CF0C0313D9
:1007D00003180714031C07107817F42B7813F80B71
:1007E000E52BF22B0000071416308400840BF62B47
:1007F000F92B0000F81BE42B781BEE2B08000B08EC
:100800000317B70003138B13831603178C170C14ED
:10081000000000008312B71F102C03138B1703175F
:100820000C087F3903194D2CB7000D08B8000F08CC
:10083000B9003708CF000313D823031738088D00F9
:1008400039088F0003130B080317BA0003138B1327
:10085000831603178C170C14000000008312BA1FB4
:10086000342C03138B1703170C0D0E0D7F3903194E
:100870004D2CB7000D08B8000F08B9003708CF009D
:100880000313D823031738088D0039088F008D0A09
:1008900003198F0A0313FF2B031703130800831890
:1008A000542C9C3084008317F701F801F901FA01F8
:1008B000831603179C019D019E019F011B081A04CA
:1008C000190418040319942C2030A0000310940D6F
:1008D000950D960D970D9C0D9D0D9E0D9F0D1B0862
:1008E0001F02031D7D2C1A081E02031D7D2C1908F2
:1008F0001D02031D7D2C18081C02031C8E2C1808D9
:100900009C021908031C190F9D021A08031C1A0FD8
:100910009E021B08031C1B0F9F020314F70DF80D0A
:10092000F90DFA0DA00B662C1C088000840A1D0826
:100930008000840A1E088000840A1F088000831239
:100940000313080004080317BC003B08BE0003198A
:10095000C42C3A08C7003908C6003808C500370853
:10096000C400CB01CA012030C9008230C800031383
:1009700061237A080317BA007908B9007808B8002B
:100980007708B700BE0BA92C3A08C7003908C60083
:100990003808C5003708C4004408B63CC400FA0152
:1009A0004508C800C5170310C50CC60CC70CFA0CC7
:1009B000F90CF80CF70CC40BD32CC81FEA2CF70960
:1009C000F809F909FA09F70A0319F80A0319F90AE3
:1009D0000319FA0A7A08BA007908B9007808B80049
:1009E0007708B700BA1F012DBC03BC16B709B809B8
:1009F000B909BA09B70A0319B80A0319B90A0319D8
:100A0000BA0A3B30C3009A30C200CA30C100C001EC
:100A10000A30BE003B080319BC0A83143730840037
:100A200083173A08831697008312390883169600B5
:100A300083123808831695008312370883169400B2
:100A40008312430883169B008312420883169A0080
:100A50008312410883169900831240088316980078
:100A6000831203134F247808F708031D4E2D031734
:100A70003B0A3E02031D3E2D03134E2D3C08031975
:100A8000512D0F393E020319472D0318892DBC1B28
:100A9000892D3C1B512D2030832D0313203003174B
:100AA000BC05BC1E612DBC123B08031DBC037708AE
:100AB000BC002D30CF000313D82303173C08F700E8
:100AC000BC013B083E02031D712D7708BC002E308F
:100AD000CF000313D82303173C08F7002030BC05D0
:100AE00000303030BC1E832DBC123B08031DBC03FC
:100AF0007708BC002D30CF000313D82303173C0820
:100B0000F700BC013030F7077708CF000313D82374
:100B10000317831043088316970083124208831635
:100B200096008312410883169500831240088316AD
:100B300094009B019A0199010A30980083120313D3
:100B40004F247A080317C3007908C2007808C1004F
:100B50007708C000BE0B0D2D031308008318B32DBA
:100B6000BF3084008317831603173A083E06803986
:100B7000C400BA1FC62DB709B809B909BA09B70A1E
:100B80000319B80A0319B90A0319BA0ABE1FD32DEB
:100B9000BB09BC09BD09BE09BB0A0319BC0A03197C
:100BA000BD0A0319BE0AF701F801F901FA01BF01F4
:100BB000C001C101C2013E083D043C043B040319CD
:100BC000112E2030C3000310B70DB80DB90DBA0DAA
:100BD000BF0DC00DC10DC20D3E084202031DFA2D0E
:100BE0003D084102031DFA2D3C084002031DFA2D69
:100BF0003B083F02031C0B2E3B08BF023C08031CB2
:100C00003C0FC0023D08031C3D0FC1023E08031CFF
:100C10003E0FC2020314F70DF80DF90DFA0DC30BC8
:100C2000E32DC41F1E2EF709F809F909FA09F70A7E
:100C30000319F80A0319F90A0319FA0A3F08800090
:100C4000840A40088000840A41088000840A42081F
:100C5000800083120313080004080317C7003B3009
:100C6000CE009A30CD00CA30CC00CB010A30C9008A
:100C70008314433084008317460883169700831239
:100C80004508831696008312440883169500831244
:100C900043088316940083124E0883169B00831228
:100CA0004D0883169A0083124C088316990083120C
:100CB0004B0883169800831203134F247808F70813
:100CC000031D792E03174908013A031D692E0313EA
:100CD000792E470803197B2E0F3949020319722E0A
:100CE0000318822EC71B822E471B7B2E20307C2EA2
:100CF00003130317C7013030F7077708CF0003133A
:100D0000D823031783104E088316970083124D08CB
:100D10008316960083124C088316950083124B08A5
:100D2000831694009B019A0199010A30980083125E
:100D300003134F247A080317CE007908CD007808F2
:100D4000CC007708CB00C90B382E03130800A32171
:100D500041272C00A329412A2C004F336616EC347E
:100D60006E0045397216453972002030831603171C
:100D7000C100BD01BE01BF01C0013808FA0037083B
:100D8000F9003608F8003508F7000310771CD62E56
:100D90003908BD073A0803183A0FBE073B08031885
:100DA0003B0FBF073C0803183C0FC007C00CBF0C2B
:100DB000BE0CBD0CFA0CF90CF80CF70CC10BC52ECF
:100DC000831203130800AC122C088316870020300E
:100DD00083128706E3308316EB000630EC008A1599
:100DE0000A128312882E2C162C0883168700000006
:100DF0008312AC152C08831687000000831207129B
:100E00002C122C0883168700000083128711AC1166
:100E10002C0883168700EE300317B10083120313EA
:100E2000AE2203172D088316B10083120313AE22DE
:100E30002C162C088316870000008312AC152C0892
:100E40008316870000008312871D242F07122C129F
:100E50002C0883168700000083128711AC112C0820
:100E600083168700EF300317B10083120313AE22FD
:100E7000F7010E2378080317AE0003132C122C0879
:100E80008316870000008312AC152C088316870098
:100E90008312871D492F00004D2F00002C162C08AF
:100EA000831687000000831203172E08F80003132F
:100EB00008002C162C088316870000008312AC153E
:100EC0002C08831687000000831207122C122C08AE
:100ED00083168700000083128711AC112C0883163B
:100EE0008700EE300317B10083120313AE220317FD
:100EF00034088316B10083120313AE22031735089A
:100F00008316B10083120313AE222C122C08831611
:100F1000870000008312AC152C088316870083120B
:100F2000871D902F0000942F00002C162C0883168C
:080F3000870000008312080095
:101000008316D10A1430F80083121F08C3397804FC
:101010009F009F149F180A281E08FA0083161E08B6
:10102000D3007A08D400540883120317B80083163B
:101030000313530883120317B700BA010530B90030
:101040001030BB00F701FA01B80CB70C031C2E28B6
:101050003908F7070318FA0A3A08FA07FA0CF70CE6
:10106000F90CF80CBB0B24287908B8007808B700F5
:101070003808BA003708B9008A110313C3218A154A
:101080007A080317BC007908BB007808BA00770813
:10109000B900C001BF01BE018930BD008A11031330
:1010A000E2218A157A088316D8007908D7007808D3
:1010B000D6007708D50083122C162C0883168700DB
:1010C00000008312AC152C088316870000008312E1
:1010D00007122C122C088316870000008312871138
:1010E000AC112C088316870080300317B1008A11D9
:1010F00083120313AE228A15043083160317B1003E
:101100008A1183120313AE228A152C122C0883161F
:10111000870000008312AC152C0883168700831209
:10112000871D90280000942800002C162C08831698
:1011300087000000013083120317BB008A110313DC
:10114000FA228A152C162C088316870000008312B9
:10115000AC152C08831687000000831207122C128E
:101160002C0883168700000083128711AC112C080D
:101170008316870081300317B1008A11831203138D
:10118000AE228A150130F7008A110E238A157808DD
:10119000ED00F7018A110E238A157808EC002C1255
:1011A0002C088316870000008312AC152C088316C8
:1011B00087008312871DDA280000DE2800002C1625
:1011C0002C0883168700000083126D080317B800EF
:1011D00003136C080317B700B901BA013A08BE003F
:1011E0003908BD003808BC003708BB00B630F7002E
:1011F000FA01F901F8013B083C043D043E04031DDB
:101200000329F70110290310F81B0F29BB0DBC0D92
:10121000BD0DBE0DFA0DF90DF80DF70B0329F813EE
:101220007A08C7007908C6007808C5007708C400A6
:10123000CD30CB00CC30CA004C30C9007A30C80069
:101240008A11031361238A157A088316DC00790852
:10125000DB007808DA007708D9008312031738100A
:10126000B901BA01831603130911831209158316F4
:1012700009118312091112300317BB008A110313DD
:10128000FA228A1583160911831209152B30F700EB
:10129000F70B482983160915831203173810031317
:1012A000091D55290317381403130317381C5B292C
:1012B0000130F800D6298530F700F70B5D29831639
:1012C000031309158312031738100313091D6B2923
:1012D0000317381403130317381871290230F80064
:1012E000D6298530F700F70B7329B9013908043C7A
:1012F000031CB7296E303907F800FA010318FA0AFF
:101300007808BB007A08BC00BD01BE01BD013D08E4
:10131000073C031CAB290310BE0D831603130915EC
:1013200083120919952903178D293130F700F70B1E
:1013300097299A29831609158312091DA2290317D3
:101340003E1403138316091583120919A2290130CB
:101350000317BD0787293E08F8003B088400831364
:101360003C188317780880000130B9077629831666
:1013700003130911831209150317B9013908033C36
:10138000031CCB296E303907840083130008BA0789
:101390000130B907BE2972083A020319D329033074
:1013A000F800D629D6290030F800D6297808B700E9
:1013B0003708013A03130319E429033A0319E7290B
:1013C000013A0319EB29EF290130F8006D2A0230A8
:1013D000F8006D2A6D2A0330F8006D2A6D2A6E0818
:1013E000FA006F080317B9007A08BA008A110313CC
:1013F000C3218A157A08FE007908FD007808FC00F0
:101400007708FB007E080317BC007D08BB007C0842
:10141000BA007B08B900C001BF012030BE00823095
:10142000BD008A110313E2218A157A08FE007908AB
:10143000FD007808FC007708FB0070087F3903176F
:10144000B800FA007108B9007A08BA008A110313CB
:10145000C3218A157A08F6007908F5007808F400A7
:101460007708F300F01F4F2A76080317C7007508A6
:10147000C6007408C5007308C400CB01CA018030DF
:10148000C9007F30C8008A11031361238A157A08C6
:10149000F6007908F5007808F4007708F30076087C
:1014A0000317BC007508BB007408BA007308B900C4
:1014B000C001BF012030BE008230BD008A1103137D
:1014C000E2218A157A08F6007908F5007808F40018
:1014D0007708F3000030F8006D2A78088316DD00E5
:1014E00052085102031D4E2DA730831203178D00A1
:1014F00006308F008A110313FF238A153D08031756
:10150000CF008A110313D8238A153E080317CF0092
:101510008A110313D8238A152C300317CF008A11A0
:101520000313D8238A153F080317CF008A1103132A
:10153000D8238A1540080317CF008A110313D82334
:101540008A152C300317CF008A110313D8238A156C
:1015500041080317CF008A110313D8238A154208C4
:101560000317CF008A110313D8238A152C300317D1
:10157000CF008A110313D8238A1545080317CF001B
:101580008A110313D8238A1546080317CF008A113E
:101590000313D8238A1547080317CF008A110313B2
:1015A000D8238A1548080317CF008A110313D823BC
:1015B0008A1549080317CF008A110313D8238A1507
:1015C0004A080317CF008A110313D8238A154B0842
:1015D0000317CF008A110313D8238A154C08031769
:1015E000CF008A110313D8238A154D080317CF00A3
:1015F0008A110313D8238A154E080317CF008A11C6
:101600000313D8238A154F080317CF008A11031339
:10161000D8238A1550080317CF008A110313D82343
:101620008A152C300317CF008A110313D8238A158B
:1016300052080317CF008A110313D8238A155308C1
:101640000317CF008A110313D8238A1554080317F0
:10165000CF008A110313D8238A1555080317CF002A
:101660008A110313D8238A1556080317CF008A114D
:101670000313D8238A1557080317CF008A110313C1
:10168000D8238A1558080317CF008A110313D823CB
:101690008A1559080317CF008A110313D8238A1516
:1016A0005A080317CF008A110313D8238A155B0841
:1016B0000317CF008A110313D8238A155C08031778
:1016C000CF008A110313D8238A155D080317CF00B2
:1016D0008A110313D8238A152C300317CF008A11DF
:1016E0000313D8238A1543080317CF008A11031365
:1016F000D8238A1544080317CF008A110313D8236F
:101700008A150A300317CF008A110313D8238A15CC
:101710000D300317CF008A110313D8238A15AA307E
:1017200003178D0006308F008A110313FF238A15DB
:1017300083165D08013A83120319A52B033A031996
:10174000A52B013A0319AF2BB92BAD3003178D0030
:1017500006308F008A110313FF238A15E22BB13064
:1017600003178D0006308F008A110313FF238A159B
:10177000E22B0130840076080317BA007508B9001F
:101780007408B8007308B7000130BB008A11031356
:10179000A2248A152C300317CF008A110313D823F3
:1017A0008A15013084007E080317BA007D08B9004D
:1017B0007C08B8007B08B7000130BB008A11031316
:1017C000A2248A152C300317CF008A110313D823C3
:1017D0008A158310831661080317BA000313600883
:1017E0000317B90003135F080317B80003135E085B
:1017F0000317B700BE01BD01BC016430BB008A11F4
:1018000083120313AE258A157A080317BA007908E4
:10181000B9007808B8007708B70083143B3084001B
:1018200083178316031361080317BA0003136008B4
:101830000317B90003135F080317B80003135E080A
:101840000317B700BE01BD01BC016430BB008A11A3
:1018500083120313AE258A1503173E08C2003D0804
:10186000C1003C08C0003B08BF00423084003A0879
:10187000C6003908C5003808C4003708C3008A11FB
:1018800003132C268A152E300317CF008A11031359
:10189000D8238A154230840003174208C600410845
:1018A000C5004008C4003F08C3008A1103132C265A
:1018B0008A152C300317CF008A110313D8238A15F9
:1018C0008310831665080317970003136408031732
:1018D00096000313630803179500031362080317A8
:1018E00094009B019A019901643098008A11831237
:1018F00003134F248A157A080317BA007908B90030
:101900007808B8007708B70083143B308400831749
:10191000831603136508031797000313640803175E
:101920009600031363080317950003136208031757
:1019300094009B019A019901643098008A118312E6
:1019400003134F248A1503173E08C2003D08C10047
:101950003C08C0003B08BF00443084003A08C60081
:101960003908C5003808C4003708C3008A110313BA
:101970002C268A152E300317CF008A110313D82383
:101980008A154230840003174208C6004108C5008A
:101990004008C4003F08C3008A1103132C268A158F
:1019A0002C300317CF008A110313D8238A158930EE
:1019B00084008316580883120317BA008316031392
:1019C000570883120317B9008316031356088312AE
:1019D0000317B80083160313550883120317B700C3
:1019E0000230BB008A110313A2248A152C3003177E
:1019F000CF008A110313D8238A15893084008316F7
:101A00005C0883120317BA00831603135B08831262
:101A10000317B900831603135A0883120317B8007B
:101A200083160313590883120317B7000230BB0053
:101A30008A110313A2248A150A300317CF008A11D2
:101A40000313D8238A150D300317CF008A1103130F
:101A5000D8238A158316D1018312BD01BE01BF01AF
:101A6000C001C101C201C501C601C701C801C90148
:101A7000CA01CB01CC01CD01CE01CF01D001D201F1
:101A8000D301D401D501D601D701D801D901DA019A
:101A9000DB01DC01DD01C301C401831600308312C8
:101AA0000317A3000830A4008A150A120313882E16
:101AB0002C162C088316870000008312AC152C0806
:101AC000831687000000831207122C122C0883163D
:101AD0008700000083128711AC112C088316870041
:101AE000EE300317B1008A1183120313AE228A1558
:101AF00003172B088316B1008A1183120313AE2239
:101B00008A152C162C088316870000008312AC154A
:101B10002C088316870000008312871D8D2D071265
:101B20002C122C0883168700000083128711AC1139
:101B30002C0883168700EF300317B1008A11831237
:101B40000313AE228A150130F7008A110E238A157D
:101B500078080317AC00F7018A1103130E238A15C6
:101B600078080317AD0003132C122C088316870086
:101B700000008312AC152C08831687008312871D82
:101B8000BF2D0000C32D00002C162C0883168700E3
:101B90000000831203172C08F8002D08F900031326
:101BA000080003081F3983008316031787152A309E
:101BB0000313990000309A00A630980090308312E9
:101BC0009800FF30AC002C102C088316870083127D
:101BD00007143310B310B401B5018316D1010230DC
:101BE000D200DD01EE01ED0103170908C0398900BB
:101BF00003131F129F1200300317880083128701FE
:101C00008801890183130313AD01AE010A16A32BCA
:101C10000A1214300317A500FA30BB008A1103130F
:101C2000FA228A150317A50B0C2E031387168316A9
:101C3000E601E8010A30E700EA01E901E330EB00E0
:101C40000630EC0083120317900192010A309100D4
:101C500094010130930000309500103096009701F8
:101C600099010A3098009B0102309A0000309C00D4
:101C700018309D009E01A0010A309F00A201033090
:101C8000A1000030A3000830A4000313AB01B5305D
:101C900090008E010B308F00DC308E000C10031092
:101CA0002B0DF7008A1151208A15F90001307707B2
:101CB0008A1151208A15FA007908840083137A1852
:101CC00083170008F900840A0008F700840A000856
:101CD000F800840A800A0008FA00031D722E840AA4
:101CE000800A8403840A00087802031D8A2E77087C
:101CF0007A02031D8A2E84038001840A8001840AEB
:101D0000F91B8A2E840A00088A00840300088200D6
:101D100083120313AB0A04302B02031D4F2EAB01B9
:0C1D20000C18492E902EFF30AB00630021
:102000000317DD01E230DC008310831603132F0871
:102010000317BA0003132E080317B90003132D0882
:102020000317B80003132C080317B700BE01BD0146
:10203000BC010230BB000A1283120313AE250A163C
:102040007A088316031793007908920078089100A4
:1020500077089000003010028312DE00831611080A
:102060008312DF00FA30031CFB30DF0283161208F4
:102070008312E0000030031C0130E00283161308D5
:102080008312E1000030031C0130E102831061087B
:102090008316BA00831260088316B90083125F08A2
:1020A0008316B80083125E088316B700BE01BD0117
:1020B000BC010430BB000A1283120313AE250A16BA
:1020C0007A08831603179300790892007808910024
:1020D000770890008310831261088316BA00831278
:1020E00060088316B90083125F088316B800831254
:1020F0005E088316B700BE01BD01BC010430BB0001
:102100000A1283120313AE250A167A0883160317E0
:1021100097007908960078089500770894001308CE
:10212000B8001208B7001108B6001008B50017086B
:10213000BC001608BB001508BA001408B9000A1242
:1021400083120313B5260A167A0883160317930021
:10215000790892007808910077089000831013089E
:10216000BA001208B9001108B8001008B700BE0183
:10217000BD010830BC00BB010A1283120313AE2557
:102180000A167A08831603179300790892007808D4
:1021900091007708900003134008F7004108F80009
:1021A000F901FA01C11FD628F903FA037A080317C7
:1021B000970079089600780895007708940013082E
:1021C000B8001208B7001108B6001008B5001708CB
:1021D000BC001608BB001508BA001408B9000A12A2
:1021E00083120313B5260A167A080317E500790847
:1021F000E4007808E3007708E200831603133E0842
:10220000F7003F08F800F901FA01BF1F0929F90397
:10221000FA037A080317930079089200780891006E
:1022200077089000831261088316B8008312600853
:102230008316B70083125F088316B60083125E0808
:102240008316B5001308BC001208BB001108BA00C1
:102250001008B9000A1283120313B5260A167A0869
:102260008316031793007908920078089100770885
:1022700090001308B8001208B7001108B600100843
:10228000B500BC01BB01BA010230B9000A128312C9
:102290000313B5260A1677080317E2077808031810
:1022A000780FE30779080318790FE4077A08031811
:1022B0007A0FE507831065088316BA008312640855
:1022C0008316B900831263088316B800831262086C
:1022D0008316B700BE01BD01BC010430BB000A1269
:1022E00083120313AE250A167A0883160317930088
:1022F000790892007808910077089000970196017C
:1023000003133D080317950003133C0803179400BB
:10231000951F8C29960397031708B8001608B70075
:102320001508B6001408B500BC010130BB00BA01A5
:10233000B9010A1283120313B5260A167708831609
:10234000031710078312E200831611088312E300BB
:1023500078080318780FE307831612088312E40045
:1023600079080318790FE407831613088312E50030
:102370007A0803187A0FE507831693019201031375
:102380003B080317910003133A0803179000911FAD
:10239000CB29920393038310831261088316BA003A
:1023A000831260088316B90083125F088316B80091
:1023B00083125E088316B700BE01BD01BC01043064
:1023C000BB000A1283120313AE250A167A0883167D
:1023D000031797007908960078089500770894000D
:1023E0008310831261088316BA0083126008831673
:1023F000B90083125F088316B80083125E08831643
:10240000B700BE01BD01BC010430BB000A1283123B
:102410000313AE250A167A08831603179B00790862
:102420009A0078089900770898001708B8001608ED
:10243000B7001508B6001408B5001B08BC001A0840
:10244000BB001908BA001808B9000A128312031356
:10245000B5260A167A08831603179700790896009E
:10246000780895007708940083101708BA001608BA
:10247000B9001508B8001408B700BE01BD0120302E
:10248000BC00BB010A1283120313AE250A167A0898
:102490008316031797007908960078089500770847
:1024A00094001308B8001208B7001108B60010080D
:1024B000B5001708BC001608BB001508BA001408C0
:1024C000B9000A1283120313B5260A167A08831676
:1024D000031793007908920078089100770890001C
:1024E00083101308BA001208B9001108B8001008C8
:1024F000B700BE01BD01BC010830BB000A12831247
:102500000313AE250A167A08831603179300790879
:1025100092007808910077089000970196010313C4
:102520003908031795000313380803179400951F03
:102530009B2A960397031708B8001608B7001508DA
:10254000B6001408B500831261088316BC0083121C
:1025500060088316BB0083125F088316BA008312DB
:102560005E088316B9000A1283120313B5260A16F1
:102570007A08831603179700790896007808950063
:102580007708940083101708BA001608B9001508D8
:10259000B8001408B700BE01BD01BC010230BB0089
:1025A0000A1283120313AE250A167708831603173F
:1025B000900778080318780F910779080318790FA6
:1025C00092077A0803187A0F930783101308BA004A
:1025D0001208B9001108B8001008B700BE01043095
:1025E000BD00BC01BB010A1283120313AE250A16FB
:1025F0007A080317E1007908E0007808DF0077081F
:10260000DE005E0883169000803083125F07831619
:102610009100831260088316920000300318013085
:10262000920783126108831693000030031801306B
:10263000930703133608F7003708F800F901FA0189
:102640007A080317970079089600780895007708AC
:1026500094001308B8001208B7001108B60010085B
:10266000B5001708BC001608BB001508BA0014080E
:10267000B9000A1283120313B5260A167A088316C4
:10268000031793007908920078089100770890006A
:1026900083101308BA001208B9001108B800100816
:1026A000B700BE01BD018030BC00BB010A1283121D
:1026B0000313AE250A167A080317E1007908E00033
:1026C0007808DF007708DE00DE08031D732BDF08C3
:1026D000031D732BE008031D732BE108031D732BEF
:1026E0000030F800ED2D831603132408003CF7009A
:1026F000F8012508031C250FF8021030F900260800
:10270000031C260FF902FA012708031C270FFA02FF
:102710007A080317930079089200780891007708E7
:1027200090008310831265088316BA008312640830
:102730008316B900831263088316B80083126208F7
:102740008316B700BE01BD011030BC00BB010A12E8
:1027500083120313AE250A16770883160317900217
:102760007808031C780F91027908031C790F9202F4
:102770007A08031C7A0F93021308B8001208B700F6
:102780001108B6001008B500BC01BB010C30BA003E
:102790003530B9000A1283120313B5260A167A08D7
:1027A0000317E9007908E8007808E7007708E600F1
:1027B00069087F3C031C142C0310660D83169000DF
:1027C0008312670D831691008312680D83169200A1
:1027D0008312690D83169300831013089700120863
:1027E0009600110895001008940083126108831662
:1027F0009B008312600883169A0083125F08831679
:10280000990083125E08831698000A12831203133C
:102810004F240A167A080317E9007908E8007808B7
:10282000E7007708E600532C8310690883169700A9
:102830008312680883169600831267088316950032
:1028400083126608831694008312610883169B0026
:102850008312600883169A0083125F08831699001A
:1028600083125E08831698000A12831203134F2402
:102870000A167A08831603179300790892007808DD
:102880009100770890000310100D8312E600831664
:10289000110D8312E7008316120D8312E8008316D0
:1028A000130D8312E9008316930192010313470865
:1028B000031791000313460803179000911F622C21
:1028C000920393038312690C831697008312680C9A
:1028D000831696008312670C831695008312660C8C
:1028E00083169400970C960C950C940C970C960CF0
:1028F000950C940C1F3097058312690CFA00680C34
:10290000F900670CF800660CF700FA0CF90CF80CEB
:10291000F70CFA0CF90CF80CF70C1F30FA057A08D2
:1029200083169B0079089A00780899007708980028
:102930001708B8001608B7001508B6001408B50047
:102940001B08BC001A08BB001908BA001808B90017
:102950000A1283120313B5260A167A088316031780
:102960009700790896007808950077089400FA0196
:10297000170CF900160CF800150CF700F90CF80C00
:10298000F70CF90CF80CF70CF90CF80CF70CF90C27
:10299000F80CF70C0730F9051308B8001208B70057
:1029A0001108B6001008B5007A08BC007908BB0011
:1029B0007808BA007708B9000A1283120313B52603
:1029C0000A167A088316031793007908920078088C
:1029D00091007708900083101308BA001208B9001C
:1029E0001108B8001008B700BE01BD011030BC00CE
:1029F000BB010A1283120313AE250A167A080317C5
:102A0000E1007908E0007808DF007708DE00690C53
:102A1000FA00680CF900670CF800660CF700FA0C75
:102A2000F90CF80CF70C3F30FA057A08831693007E
:102A30007908920078089100770890000313440801
:102A4000F7004508F800F901FA01C51F292DF9031F
:102A5000FA037A080317970079089600780895001A
:102A6000770894001308B8001208B7001108B600E0
:102A70001008B5001708BC001608BB001508BA00FE
:102A80001408B9000A1283120313B5260A167A082D
:102A9000831603179300790892007808910077084D
:102AA000900083101308BA001208B9001108B8008A
:102AB0001008B700BE01BD012030BC00BB010A12E6
:102AC00083120313AE250A167A080317E500790866
:102AD000E4007808E3007708E20062085E078316E6
:102AE000900083125F088316910083126308031815
:102AF000630F7B2D7E2D831691078312600883164A
:102B00009200831264080318640F872D8A2D8316A0
:102B100092078312610883169300831265080318D5
:102B2000650F932D962D8316930783128316031337
:102B30004208F7004308F800F901FA01C31FA22D6B
:102B4000F903FA0377080317900778080318780F3A
:102B5000910779080318790F92077A0803187A0FFA
:102B6000930783101308BA001208B9001108B800BF
:102B70001008B700BE01BD01BC011030BB000A1235
:102B800083120313AE250A1603176608F7076708B2
:102B90000318670FF80768080318680FF907690832
:102BA0000318690FFA077A08E9007908E80078083D
:102BB000E7007708E6005C08840083135D1883173C
:102BC00066088000840A67088000840A680880001C
:102BD000840A690880000130F80000309500103048
:0A2BE00096008A150A120313882ECE
:1030000083160317A401DE30A300B001831203135B
:103010002C162C088316870000008312AC152C0890
:10302000831687000000831207122C122C088316C7
:103030008700000083128711AC112C0883168700CB
:10304000EE300317B1000A128A1183120313AE2265
:103050000A168A15F73083160317B1000A128A116F
:1030600083120313AE220A168A152C162C08831617
:10307000870000008312AC152C088316870000001F
:103080008312871D412807122C122C0883168700F3
:10309000000083128711AC112C0883168700EF30D3
:1030A0000317B1000A128A1183120313AE220A1603
:1030B0008A150130F7000A128A110E230A168A15A2
:1030C000780883160317AF000130F7000A128A113F
:1030D000831203130E230A168A1578088316031722
:1030E000AE000130F7000A128A11831203130E2377
:1030F0000A168A15780883160317AD00300CB50040
:103100002F0CB4002E0CB3002D0CB200B50CB40C77
:10311000B30CB20CB50CB40CB30CB20CB50CB40CB3
:10312000B30CB20C0F30B5053208F7003308F800C5
:1031300034080F39F900FA017A080313A700790857
:10314000A6007808A5007708A4000130F7000A124D
:103150008A1183120E230A168A157808831603171C
:10316000AF000130F7000A128A11831203130E23F5
:103170000A168A15780883160317AE000130F70087
:103180000A128A11831203130E230A168A1578086D
:1031900083160317AD00300CB5002F0CB4002E0CB5
:1031A000B3002D0CB200B50CB40CB30CB20CB50CC2
:1031B000B40CB30CB20CB50CB40CB30CB20C0F3095
:1031C000B5053208F7003308F80034080F39F90064
:1031D000FA017A080313A3007908A2007808A10075
:1031E0007708A0000317AF010130F7000A128A1117
:1031F000831203130E230A168A1578088316031701
:10320000AE00F7010A128A11831203130E230A1665
:103210008A15780883160317AD00831203132C1246
:103220002C088316870000008312AC152C08831627
:1032300087008312871D1A2900001E2900002C1602
:103240002C0883168700000003172D08F7002E08AE
:10325000F800F901FA017A080313AB007908AA0013
:103260007808A9007708A800831023080317BA007C
:10327000031322080317B900031321080317B8002A
:10328000031320080317B700BE01BD01BC010830BD
:10329000BB000A128A1183120313AE250A168A157F
:1032A0007A0883160317B0007908AF007808AE00DB
:1032B0007708AD00B401B301031331080317B2005E
:1032C000031330080317B1003408B8003308B700FF
:1032D0003208B6003108B500BC01BB01BA010230AA
:1032E000B9000A128A1183120313B5260A168A1529
:1032F000770883160317AD027808031C780FAE0217
:103300007908031C790FAF027A08031C7A0FB00208
:1033100003133208F7003308F800F901FA01B31F6C
:103320009329F903FA037A080317B4007908B30064
:103330007808B2007708B1003008B8002F08B7004D
:103340002E08B6002D08B5003408BC003308BB00B9
:103350003208BA003108B9000A128A118312031325
:10336000B5260A168A157A0883160317B00079085D
:10337000AF007808AE007708AD0083103008BA00BF
:103380002F08B9002E08B8002D08B700BE01BD01F6
:103390000830BC00BB010A128A1183120313AE2548
:1033A0000A168A157A0883160317A8007908A70059
:1033B0007808A6007708A5008310031323080317D5
:1033C000BA00031322080317B900031321080317D7
:1033D000B800031320080317B700BE01BD01BC01EC
:1033E0001030BB000A128A1183120313AE250A168D
:1033F0008A157A0883160317B0007908AF00780899
:10340000AE007708AD0003133008F7003108F8006C
:10341000F901FA0130080317AD027808031C780F90
:10342000AE027908031C790FAF027A08031C7A0FE9
:10343000B0028310031323080317BA0003132208F2
:103440000317B900031321080317B800031320085A
:103450000317B700BE01BD01BC011030BB000A124A
:103460008A1183120313AE250A168A157A08831669
:103470000317B4007908B3007808B2007708B100E8
:1034800003133108F800F901FA013008031731027B
:10349000F7007808031C780F4F2A3208502A3202AE
:1034A000F8007908031C790F572A3308582A330289
:1034B000F9007A08031C7A0F5F2A3408602A340264
:1034C000FA00B4007908B3007808B2007708B100B8
:1034D0003008B8002F08B7002E08B6002D08B50038
:1034E0003408BC003308BB003208BA003108B90008
:1034F0000A128A1183120313B5260A168A157A084E
:1035000083160317B0007908AF007808AE0077087B
:10351000AD0083103008BA002F08B9002E08B8009B
:103520002D08B700BE01BD011030BC00BB010A125E
:103530008A1183120313AE250A168A157A08831698
:103540000317B0007908AF007808AE007708AD0027
:1035500003133408F7003508F800F901FA01B51F24
:10356000B32AF903FA037A080317B4007908B30001
:103570007808B2007708B1003008B8002F08B7000B
:103580002E08B6002D08B5003408BC003308BB0077
:103590003208BA003108B9000A128A1183120313E3
:1035A000B5260A168A157A0883160317B00079081B
:1035B000AF007808AE007708AD0083103008BA007D
:1035C0002F08B9002E08B8002D08B700BE01BD01B4
:1035D0004030BC00BB010A128A1183120313AE25CE
:1035E0000A168A157A0883160317AC007908AB000F
:1035F0007808AA007708A900290825070313AC005A
:10360000031726080313AD0003172A0803182A0F0F
:103610000A2B0D2B0313AD07031727080313AE0066
:1036200003172B0803182B0F162B192B0313AE07A8
:10363000031728080313AF0003172C0803182C0FD7
:10364000222B252B0313AF0703172408FA002308A6
:103650008400831324188317B0010408AF003010CE
:10366000831B301403132F080317B80003132E080D
:103670000317B70003132D080317B60003132C0814
:103680000317B500BC01BB01BA010530B9000A122D
:103690008A1183120313B5260A168A158316031797
:1036A0002F0884008313301883177A08B400790830
:1036B000B3007808B2007708B1008030B10700305D
:1036C00003180130B207003003180130B30700308F
:1036D00003180130B407B6010408B5003610831B87
:1036E000361483103408BA003308B9003208B80021
:1036F0003108B700BE01BD010130BC00BB010A1298
:103700008A1183120313AE250A168A15831603172E
:103710003508840083133618831777088000840ADD
:1037200078088000840A79088000840A7A0880007A
:103730000130F800003083129C0018309D008A157B
:103740000A120313882E83168C16C03083128B0442
:10375000FF308316850086009E308700FF3088008A
:1037600089000317880189010908C03989000313FA
:103770001F129F12203003178800831203131F1794
:103780009F1783169F1783121F14831681178312A6
:1037900087122C162C088316870000008312AC15A4
:1037A0002C08831687000000831207122C122C08A5
:1037B00083168700000083128711AC112C08831632
:1037C000870080300317B1000A128A118312031395
:1037D000AE220A168A1583160317B1010A128A113E
:1037E00083120313AE220A168A15113083160317AB
:1037F000B1000A128A1183120313AE220A168A1527
:103800009F3083160317B1000A128A118312031323
:10381000AE220A168A152C122C0883168700000087
:103820008312AC152C08831687008312871D162C73
:1038300000001A2C00002C162C08831687000000AC
:1038400083122C162C088316870000008312AC15F7
:103850002C08831687000000831207122C122C08F4
:1038600083168700000083128711AC112C08831681
:10387000870080300317B1000A128A1183120313E4
:10388000AE220A168A15053083160317B1000A12F4
:103890008A1183120313AE220A168A15203083166A
:1038A0000317B1000A128A1183120313AE220A16FB
:1038B0008A1583160317B1010A128A1183120313A2
:1038C000AE220A168A152C122C08831687000000D7
:1038D0008312AC152C08831687008312871D6E2C6B
:1038E0000000722C00002C162C08831687000000A4
:1038F0000915043083120317A500FA30BB000A1221
:103900008A110313FA220A168A150317A50B7D2CB8
:103910000330A5000130A600A700A800A901AA0154
:10392000D030AD000A128A110313F3260A168A1545
:103930007808603C03199F2C0030F8005B2EE030C3
:103940000317B400B630B5000A128A1103135927C1
:103950000A168A1564300317BB000A128A11031372
:10396000FA220A168A15F3300317AD000A128A11DB
:103970000313F3260A168A1578080139013C031D42
:10398000CB2C64300317BB000A128A110313FA22EE
:103990000A168A15B32C88300317AB000A120313DA
:1039A00058250A1679088316B1007808B0008A30C5
:1039B00083120317AB000A12031358250A1679085D
:1039C0008316B3007808B2008C3083120317AB0063
:1039D0000A12031358250A1679088316B5007808C9
:1039E000B4008E3083120317AB000A12031358255C
:1039F0000A1679088316B7007808B600903083124B
:103A00000317AB000A12031358250A167908831608
:103A1000B9007808B800923083120317AB000A127D
:103A2000031358250A1679088316BB007808BA00D4
:103A3000943083120317AB000A12031358250A1699
:103A400079088316BD007808BC00963083120317EE
:103A5000AB000A12031358250A1679088316BF0013
:103A60007808BE00983083120317AB000A120313C4
:103A700058250A1679088316C1007808C0009A30C4
:103A800083120317AB000A12031358250A1679088C
:103A90008316C3007808C2009C3083120317AB0062
:103AA0000A12031358250A1679088316C5007808E8
:103AB000C4009E3083120317AB000A12031358256B
:103AC0000A1679088316C7007808C600A130831249
:103AD0000317AD000A128A110313F3260A168A157A
:103AE00078088316C800E13083120317AB000A126E
:103AF000031358250A1679088316CA007808C900E6
:103B0000E33083120317AD000A128A110313F32660
:103B10000A168A1578088316CB00E430831203173F
:103B2000AD000A128A110313F3260A168A15031729
:103B3000AC017808AB00AB0DAC0DAB0DAC0DAB0D13
:103B4000AC0DAB0DAC0DF030AB05E530AD000A129D
:103B50008A110313F3260A168A1578080F390317FA
:103B60002B04F7002C08FA00770883160313CC0007
:103B70007A08CD000039F7004D080839FA007708B7
:103B80007A040319C52DF030CD04E63083120317F3
:103B9000AD000A128A110313F3260A168A150317B9
:103BA000AC017808AB00AB0DAC0DAB0DAC0DAB0DA3
:103BB000AC0DAB0DAC0DF030AB05E530AD000A122D
:103BC0008A110313F3260A168A15780EF7000F30B0
:103BD000F705770803172B04F7002C08FA0077087D
:103BE00083160313CE007A08CF000039F7004F0880
:103BF0000839FA0077087A040319002EF030CF0450
:103C0000E73083120317AD000A128A110313F3265B
:103C10000A168A1578088316D00083120317250820
:103C2000AB002608AC002708AD002808AE00290824
:103C3000AF002A08B0002D08B100300EB400B40D5A
:103C4000E030B4052F0DF700F70DFC30F7057708CD
:103C50003404FC39B3002C0EB400B40DE030B405CC
:103C60002E0DF700F70DFC30F705770834042B0410
:103C7000B200F230B4003108B5000A128A11031301
:103C800059270A168A15F5300317B4003308B50012
:103C90000A128A11031359270A168A15F4300317DA
:103CA000B4003208B5000A128A11031359270A1604
:0C3CB0008A150130F8008A150A12082E4F
:04400E00F22CFF3F52
:00000001FF
;PIC16F887
;CRC=317A  CREATED="20-may.-20 21:17"
