:100000000B308A00472B0000FF00030E8301A10084
:100010000A08A0008A010408A2007708A300780853
:10002000A4007908A5007A08A60003170D08031399
:10003000A70003170F080313A80003170C080313E6
:10004000A90003170E080313AA00831383128C3030
:100050008400801E2D288C1A4E2822088400230834
:10006000F7002408F8002508F9002608FA002708F8
:1000700003178D000313280803178F0003132908A3
:1000800003178C0003132A0803178E00031320089C
:100090008A00210E8300FF0E7F0E09008A110A12CA
:1000A000C8280A108A100A118207B9340034C034F3
:1000B00000340317A801270828072507F800260899
:1000C000FA000318FA0A7808A9007A08AA00280892
:1000D000230784008313241883170008AB00290822
:1000E000840083132A1883172B0880002808A80A85
:1000F000230784008313241883178008031D5B28BB
:100100000313080003172608FA0025088400831348
:100110007A1883170008A9002808FA002708840025
:1001200083137A18831700082902031DAE282608B6
:10013000FA002508840083137A1883178008031DAA
:10014000A4280030F800C6282608FA002508A50AC9
:100150000319A60AA70A0319A80A83282608FA0081
:10016000250884008313261883170008A90028088F
:10017000FA0027088400831328188317000829022F
:100180000318C428FF30C5280130F8000313080005
:100190008C1EC8281A0803179C001C080D3A03136C
:1001A0000319D928293A0319EA28083A0319EE282D
:1001B000E229350BDC2833143508023C0319B3144B
:1001C000331CE928B31CE928B31033100130F800C0
:1001D000ED29EB29B4013408B600EB29AD30340722
:1001E000840083138001B608031D37290317A40177
:1001F000AD30A300A6013730A500A7010313592095
:10020000473003179D0050309E0052309F004D3004
:10021000A0004330A100A201A6013730A5000130A3
:10022000A8001D30A70003138220F808031D1B2916
:100230000130B5003729473003179D0050309E002C
:1002400047309F00A0004130A100A201A601373035
:10025000A5000130A8001D30A70003138220F80874
:10026000031D35290230B50037290330B500360BA0
:100270004529350B45290317A401AD30A300A6017C
:100280003D30A500A701031359203608033C031D88
:100290005629350B56290317A401AD30A300A6013A
:1002A0005E30A5000130A700031359203608043C36
:1002B000031D6929350B692983162D084E3C031D42
:1002C000662930308312DE00692983162D308312AF
:1002D000DE003608053C031D7A29350B7A29031701
:1002E000A401AD30A300A601A030A5000130A700F5
:1002F000031359203608063C031D8B29350B8B2927
:1003000083162D08453C031D88293030A0008A291A
:100310002D30A00083123608073C031D9B29350BA6
:100320009B290317A401AD30A300A6014F30A500FF
:10033000A701031359203608083C031DAB29350BD0
:10034000AB290317A401AD30A300A6015530A500C9
:10035000A701031359203608093C031DBB29350B9F
:10036000BB290317A401AD30A300A6014830A500A6
:10037000A701031359203608073C031DCD29350872
:10038000023C031DCD290317A401AD30A300A60133
:100390005B30A500A701031359203608093C031D53
:1003A000DF293508023C031DDF290317A401AD3006
:1003B000A300A6016B30A500A70103135920B60ABC
:1003C000B401EB293408B40AAD3E8400831303174B
:1003D0001C08800003130030F8008C128A110A12E6
:1003E0002D282C102C088316870083120710083044
:1003F000F800FA290000F8170D2AF8138316DA0C12
:10040000831203180714031C071078170D2A78139A
:10041000F80BFE290B2A0000071416308400840B09
:100420000F2A122A0000F81BFD29781B072A080052
:100430000B088316C90083128B13831603178C17BE
:100440000C14000000000313C91F292A83128B1704
:100450008316831203170C087F3903198A2A83161F
:100460000313C900831203170D0883160313CA0070
:10047000831203170F0883160313CB004908DA0011
:100480008312F12183164A08831203178D00831605
:1004900003134B08831203178F0003130B088316F3
:1004A000CC0083128B13831603178C170C140000D7
:1004B00000000313CC1F5F2A83128B17831683124D
:1004C00003170C0D0E0D7F3903198A2A83160313A7
:1004D000C900831203170D0883160313CA00831281
:1004E00003170F0883160313CB004908DA008312A1
:1004F000F12183164A08831203178D008316031314
:100500004B08831203178F008D0A03198F0A0313F8
:10051000182A031703130800F701F80183164B0884
:1005200003104C18F707F70CF80CCC18F707F70C6A
:10053000F80C4C19F707F70CF80CCC19F707F70C67
:10054000F80C4C1AF707F70CF80CCC1AF707F70C55
:10055000F80C4C1BF707F70CF80CCC1BF707F70C43
:10056000F80C8312080083164D08F8014C0203189A
:10057000BC2A4C08F700C82AF7010830CE00CC0D81
:10058000F70D4D0877020318F700F80DCE0BBF2AC0
:1005900083120800780883164A08CC006430CD0026
:1005A0008312B32277088316CA0078083030031DFF
:1005B000E02ACB1CE92ACB19E92A4B1A2030E32A7E
:1005C000CB114B124B14F8077808DA008312F12193
:1005D00083164A08CC000A30CD008312B322770874
:1005E0008316CA0078083030031DFC2ACB19022B71
:1005F0004B1C022B4B1A2030F8077808DA008312C4
:10060000F12183163030CA074A08DA008312F1213B
:1006100008008316600803197A2BE80064080319A0
:100620007A2BE80703181B2B7F30E802031C7A2B78
:1006300003197A2B1F2B8130E80703187A2B6808DF
:10064000F700F801F901FA016108EC00EC17620803
:10065000EB006308EA001830E800E9016A1C482B47
:100660006708FA07031C3A2BF90A031D3A2BF80A0C
:100670000319E9176608F907031C412BF80A031947
:10068000E9176508E200E2176208F8070318E9179E
:10069000E90DF80CF90CFA0CEC0CEB0CEA0C03105D
:1006A000E80B2D2B0130F70703187A2BF81B5F2B73
:1006B000EC0DFA0DF90DF80DF70303197A2BEC1F69
:1006C000702BFA0A031D702BF90A031D702BF80A10
:1006D000031D702BF80CF90CFA0CF70A03197A2B8E
:1006E0006108E9006508E906E91F782BF8177E2BF9
:1006F000F8137E2BF701F801F901FA0183120800C3
:100700008E30F70083166508F8006408F900FA01D6
:10071000F808031D952B7908F800F9010830F70255
:10072000F808031D952BF7019D2B0310F81B9C2B3C
:10073000F90DF80DF703952BF813831208008316B3
:1007400064080319BB2C8312031794008316031348
:1007500068080319BB2C831203179402031CB82BDF
:100760007F309407031CB72B83160313BB2CC42BB9
:10077000813094020318BF2B83160313BB2C031D77
:10078000C42B83160313BB2C1408F700F801F901DE
:10079000FA0193018316031365088312031792006D
:1007A00092178316031366088312031791008316AA
:1007B00003136708831203179000193094008316FF
:1007C00003136B088312031790020318FB2B0130ED
:1007D00091020318FB2B92020318FB2B93020318C0
:1007E000FB2B930A920A910A831603136B08831258
:1007F00003179007452C831603136A088312031707
:1008000091020318222C013092020318222C930229
:100810000318222C930A920A831603136A08831280
:1008200003179107831603136B08831203179007AE
:10083000031C452C910A031D452C920A031D452CCF
:10084000930A452C83160313690880388312031713
:1008500092020318442C013093020318442C930A8B
:1008600083160313690880388312031792078316CF
:1008700003136A08831203179107031C122C920AB0
:10088000031D122C930A122C7A14940B482C532C0F
:100890000310900D910D920D930D0310FA0DF90DAB
:1008A000F80D950DDF2B151C5B2C0310F80CF90CC3
:1008B000FA0C950C602CF70B602C83160313BB2CE1
:1008C000951B952C0310900D910D920D930D831691
:1008D00003136B088312031790020318792C01305D
:1008E00091020318792C92020318792C9302031CAD
:1008F000A72C831603136A088312031791020318A7
:10090000882C013092020318882C9302031CA72C18
:1009100083160313690880388312031792020318A1
:10092000952C01309302031CA72CFA0A031DA72C57
:10093000F90A031DA72CF80A031DA72CF70A031DAB
:10094000A42C83160313BB2CF80CF90CFA0C831699
:1009500003136508831203179400831603136908B1
:10096000831203179406941FB72CF817C12CF813A1
:10097000C12C83160313F701F801F901FA01831260
:100980000317031308008030831CC92C8316E90663
:1009900083120317920193018316031365088312D0
:1009A0000317910083160313690883120317910636
:1009B0008316031364080319092E8312031790008A
:1009C000F70083160313680803191E2E83120317FA
:1009D00090020319942D031C3A2D83160313690802
:1009E0008312031796009617831603136A0883125F
:1009F00003179500831603136B08831203179400E3
:100A000093010310960C950C940C930C900B002DF5
:100A1000911F0D2D12143C2E121010101216E730DB
:100A200084008313512E1212911B202D101C2B2D8C
:100A3000960C950C940C930CF70A0319372E2B2D5A
:100A4000961B2E2D0310930D940D950D960DF70307
:100A50000319372E202D1217C42D121383160313DA
:100A60006508831203179100911F382D9617302EB9
:100A70009613302E83160313680883120317900011
:100A8000F70083160313640883120317900283167A
:100A90000313650883120317960096178316031332
:100AA00066088312031795008316031367088312E1
:100AB0000317940093010310960C950C940C930C5F
:100AC000900B5A2D911F672D92143C2E92101010EE
:100AD0009216EB3084008313512E9212911B7A2DC3
:100AE000101C852D960C950C940C930CF70A031989
:100AF000372E852D961B882D0310930D940D950D83
:100B0000960DF7030319372E7A2D9217C42D9213E1
:100B1000831603136908831203179100911F922D06
:100B20009617302E9613302E8316031369088312FE
:100B3000031796009617831603136A088312031788
:100B40009500831603136B08831203179400911FFB
:100B5000AD2D961312153C2E121193011010E73093
:100B600084008313512E911BDA2D8316031365081D
:100B7000831203179100101CC42D960C950C940C35
:100B8000930CF70A0319372E931FD52D940A031DD2
:100B9000D52D950A031DD52D960A031DD52D960C2E
:100BA000950C940CF70A0319372E121B2D2D921B4E
:100BB000872D012E80309606961FE62D3C2E83163B
:100BC00003136908831203179100F72D831603138B
:100BD00065088312031791009608031DF72D9508E9
:100BE000031DF72D9408031DF72DF701302E961BDA
:100BF000012E0310930D940D950D960DF70BF72D07
:100C0000372E911F052E9617302E9613302E8316F1
:100C100003136808F7006908831203179600831608
:100C200003136A08831203179500831603136B08D6
:100C3000831203179400302E831603136408F70001
:100C40006508831203179600831603136608831240
:100C50000317950083160313670883120317940084
:100C60001608F8001508F9001408FA006F2EF701AD
:100C7000F801F901FA016F2E93019409950996097B
:100C80009309930A031D4A2E940A031D4A2E950ABE
:100C90000319960A12180C2D9218662D1219AC2DF4
:100CA000DF2D00089407031C5B2E950A031D5B2EA5
:100CB000960A03191014840300089507031C632E79
:100CC000960A0319101484030008801F803A9607BF
:100CD00003181014121A132D921A6D2DB32D03132D
:100CE00008008E30F70083165608F8005508F90002
:100CF000FA01D61F802EF809F909F90A0319F80A32
:100D0000F808031D8D2E7908F800F9010830F70264
:100D1000F808031D8D2EF701962E0310F81B942E54
:100D2000F90DF80DF7038D2ED61FF8138312080066
:100D300083189D2EE23084008313F701F801F90136
:100D4000FA018316E201E301E401E50161086004B0
:100D50005F045E040319DC2E2030E6000310DA0D78
:100D6000DB0DDC0DDD0DE20DE30DE40DE50D61089D
:100D70006502031DC52E60086402031DC52E5F08B1
:100D80006302031DC52E5E086202031CD62E5E0898
:100D9000E2025F08031C5F0FE3026008031C600FA0
:100DA000E4026108031C610FE5020314F70DF80D5E
:100DB000F90DFA0DE60BAE2E62088000840A630876
:100DC0008000840A64088000840A65088000831219
:100DD000080004088316D2005108D40003190B2F11
:100DE0005008E3004F08E2004E08E1004D08E00023
:100DF000E701E6012030E5008230E4008312092398
:100E00007A088316D0007908CF007808CE007708DA
:100E1000CD00D40BF02E5008DD004F08DC004E084A
:100E2000DB004D08DA005A08B63CDA00FA015B082C
:100E3000DE00DB170310DB0CDC0CDD0CFA0CF90C0C
:100E4000F80CF70CDA0B1A2FDE1F312FF709F8090F
:100E5000F909FA09F70A0319F80A0319F90A031933
:100E6000FA0A7A08D0007908CF007808CE0077080F
:100E7000CD00D01F482FD203D216CD09CE09CF09FD
:100E8000D009CD0A0319CE0A0319CF0A0319D00AD3
:100E90003B30D9009A30D800CA30D700D6010A308A
:100EA000D40051080319D20A8314CD30840083136F
:100EB0005008DD004F08DC004E08DB004D08DA006A
:100EC0005908E1005808E0005708DF005608DE0026
:100ED000831298267808F708031D852F8316510A78
:100EE0005402031D752F8312852F52080319882F72
:100EF0000F39540203197E2F0318C02FD21BC02FA5
:100F0000521B882F2030BA2F831220308316D2052F
:100F1000D21E982FD2125108031DD2037708D20097
:100F20002D30DA008312F12183165208F700D20126
:100F300051085402031DA82F7708D2002E30DA0082
:100F40008312F12183165208F7002030D2050030B9
:100F50003030D21EBA2FD2125108031DD2037708A7
:100F6000D2002D30DA008312F12183165208F700E7
:100F7000D2013030F7077708DA008312F1218316A7
:100F800083105908DD005808DC005708DB005608BC
:100F9000DA00E101E001DF010A30DE008312982669
:100FA0007A088316D9007908D8007808D70077081E
:100FB000D600D40B542F83120800A32141272C0004
:100FC000A329412A0001AC122C0883168700203087
:100FD00083128706E3308316BE000730BF008A15F0
:060FE0000A128312E12B4E
:1010000083164A08D2004908D100D401D301D8017F
:10101000D701D6017F30D500DC01DB01DA01D9012F
:101020005D14DD105D11DF0151085204031D1D2800
:10103000F701F801F901FA0149295F08DF0A5107B0
:1010400084008313521883170008DE00DE0803199A
:1010500003295D1C3D285E08203C03193D285D10D6
:101060005E082B3C031D3728DD10F9283D285E085B
:101070002D3C031D3D28DD14F9285D1847285E0826
:101080002E3C031D47285D1947285D15F9285D187A
:10109000F6285E082F3C0318F6285E08393C031C2E
:1010A000F6283030DE025D1DB4285808E3005708EA
:1010B000E2005608E1005508E000E701E6012030B3
:1010C000E5008230E4008A11831209238A157A0828
:1010D0008316D8007908D7007808D6007708D5009D
:1010E000E5015E08E4008A11831280238A157A08DC
:1010F0008316E3007908E2007808E1007708E00051
:101100006308E7006208E6006108E5006008E400A3
:101110005808EB005708EA005608E9005508E800AF
:101120008A1183129F238A15831083165C08E700B7
:101130005B08E6005A08E5005908E4007A08EB006D
:101140007908EA007808E9007708E8008A11831234
:10115000C3248A157A088316DC007908DB00780836
:10116000DA007708D900F528E301E2012030E10038
:101170008230E0005C08E7005B08E6005A08E50002
:101180005908E4008A11831209238A157A08831604
:10119000E3007908E2007808E1007708E000E50163
:1011A0005E08E4008A11831280238A158310831657
:1011B0006308E7006208E6006108E5006008E400F3
:1011C0007A08EB007908EA007808E9007708E80077
:1011D0008A118312C3248A157A088316DC007908E1
:1011E000DB007808DA007708D900F9285D18F928BB
:1011F00003295F08DF0A51078400831352188317FD
:101200000008DE002628DD1C2029E301E2018030F1
:10121000E1007F30E0005C08E7005B08E6005A0868
:10122000E5005908E4008A11831209238A157A0817
:101230008316DC007908DB007808DA007708D9002B
:101240005308540403194129DF0803193629DF0321
:10125000530884008313541883175F0851078000D4
:10126000840A520880000318800A41295308840028
:10127000831354188317840A52088000840351088A
:1012800080005908F7005A08F8005B08F9005C086C
:10129000FA007A08D4007908D3007808D2007708D9
:1012A000D1005408E7005308E6005208E500510851
:1012B000E400EB01EA014830E9008530E8008A11DA
:1012C00083129F238A157A088316CE007908CD00F1
:1012D0007808CC007708CB004E08D4004D08D30026
:1012E0004C08D2004B08D1008E30F7005108F702AD
:1012F0005208F9005308F800F917F70803198B2969
:101300000310F908031D8729F80803198B29F90C24
:10131000F80CF70B8029D21F9229F809F909F80A6D
:101320000319F90A7908D0007808CF005008D600D0
:101330004F08D5008A11831271268A1583148316EB
:101340004E08E7004D08E6004C08E5004B08E400B5
:101350007A08EB007908EA007808E9007708E800E5
:101360008A118312C3248A157A088316CE0079085D
:10137000CD007808CC007708CB004E08E3004D087C
:10138000E2004C08E1004B08E000E701E6012030F4
:10139000E5008130E4008A11831209238A157A0856
:1013A0008316D4007908D3007808D2007708D100DA
:1013B0005408E7005308E6005208E5005108E4002D
:1013C000EB01EA014030E9008030E8008A11831225
:1013D0009F238A157A088316D4007908D3007808E9
:1013E000D2007708D1005008D6004F08D5008A11E6
:1013F000831271268A15831083165408E700530858
:10140000E6005208E5005108E4007A08EB0079088C
:10141000EA007808E9007708E8008A118312C324FB
:101420008A157A088316CE007908CD007808CC009A
:101430007708CB004B08F7004C08F8004D08F9007E
:101440004E08FA0083120800F20A73087202031DA4
:10145000102BDD3003178D0007308F008A11031326
:1014600018228A1530303D028316CA00CB000A309C
:10147000CC008A1183128C228A1578088316C90041
:10148000303083123E0283164907F8007808C900FD
:10149000CA000130CB008A118312CA228A152C306F
:1014A0008316DA008A118312F1218A1530303F0247
:1014B0008316CA00CB000A30CC008A1183128C221A
:1014C0008A1578088316C9003030831240028316CB
:1014D0004907F8007808C900CA000130CB008A111A
:1014E0008312CA228A152C308316DA008A118312DD
:1014F000F1218A15303041028316CA00CB000A3030
:10150000CC008A1183128C228A1578088316C900B0
:1015100030308312420283164907F8007808C90068
:10152000CA000130CB008A118312CA228A152C30DE
:101530008316DA008A118312F1218A158316CA01F3
:101540005E30C900831200207A088316CC00790827
:10155000CB007808CA007708C900893084004C089D
:10156000D0004B08CF004A08CE004908CD00063015
:10157000D1008A118312E9268A152C308316DA00ED
:101580008A118312F1218A158316CA01A030C9007D
:10159000831200207A088316CC007908CB007808E3
:1015A000CA007708C900893084004C08D0004B0875
:1015B000CF004A08CE004908CD000630D1008A117C
:1015C0008312E9268A152C308316DA008A118312D9
:1015D000F1218A150A308316DA008A118312F1216B
:1015E0008A150D308316DA008A118312F1218A15CB
:1015F000E03003178D0007308F008A110313182283
:101600008A150A308316DA008A118312F1218A15AD
:101610000D308316DA008A118312F1218A15F20146
:1016200024308316C5000A30C6008A150A128312B8
:10163000E12B83168C16C03083128B04FF30831687
:10164000850086009E308700FF30880089000317E0
:101650008801890103138117831287128A150A12E0
:101660007C2BC8308400831300080319442B0630F8
:10167000F800F701F70B3A2BF80B392B7B30F7000A
:10168000F70B402B800B372B8A150A12832B03088C
:101690001F39830083160317871508300313990039
:1016A00002309A00A6309800903083129800FF30E4
:1016B000AC002C102C0883168700831207143310FB
:1016C000B310B401B501F2010230F300F501F401E9
:1016D000831603170908C039890003131F129F12CC
:1016E0000030031788008312870188018901831362
:1016F0000313AD01AE01192B14308316C700FA3065
:10170000C8008312312B8316C70B7F2B83128716D9
:101710008316B901BB010A30BA00BD01BC01E33038
:10172000BE000730BF00C001C2010A30C100C401C1
:101730000130C3002430C5000A30C6008312AB015B
:10174000B53090008E010B308F00DC308E000C1015
:1017500003102B0DF7008A1151208A15F900013072
:1017600077078A1151208A15FA00790884008313BB
:101770007A1883170008F900840A0008F700840A21
:101780000008F800840A800A0008FA00031DCB2B29
:10179000840A800A8403840A00087802031DE32B6C
:1017A00077087A02031DE32B84038001840A8001F9
:1017B000840AF91BE32B840A00088A0084030008CA
:1017C000820083120313AB0A02302B02031DA82BE5
:0E17D000AB010C18A22BE92BFF30AB0063001D
:04400E00F22CFF3F52
:00000001FF
;PIC16F887
;CRC=11F1  CREATED="09-may.-20 21:26"
