:100000000D308A00F42D0000FF00030E8301A100D3
:100010000A08A0008A010408A2007708A300780853
:10002000A4007908A5007A08A60003170D08031399
:10003000A70003170F080313A80003170C080313E6
:10004000A90003170E080313AA00831383128C3030
:100050008400801E2D288C1A4E2822088400230834
:10006000F7002408F8002508F9002608FA002708F8
:1000700003178D000313280803178F0003132908A3
:1000800003178C0003132A0803178E00031320089C
:100090008A00210E8300FF0E7F0E09008A110A12CA
:1000A000D0280A108A100A118207143401341B3434
:1000B0000134223401342934013483160317D80162
:1000C000570858075507F8005608FA000318FA0AA7
:1000D0007808D9007A08DA00580853078400831397
:1000E000541883170008DB005908840083135A183A
:1000F00083175B0880005808D80A530784008313CD
:10010000541883178008031D602883120313080006
:10011000831603175608FA005508840083137A18CB
:1001200083170008D9005808FA0057088400831381
:100130007A18831700085902031DB5285608FA00DB
:100140005508840083137A1883178008031DAB2891
:100150000030F800CD285608FA005508D50A0319D2
:10016000D60AD70A0319D80A8A285608FA00550869
:1001700084008313561883170008D9005808FA0022
:10018000570884008313581883170008590203186E
:10019000CB28FF30CC280130F8008312031308006D
:1001A0008C1ED0281A0883160317CC004C080D3A71
:1001B000831203130319E328293A0319F428083A90
:1001C0000319F828B229350BE62833143508023C08
:1001D0000319B314331CF328B31CF328B3103310E2
:1001E0000130F800BF29BD29B4013408B600BD298B
:1001F0005F303407840083138001B608031D47294C
:1002000083160317D4015F30D300D6013730D500F1
:10021000D701831203135D20473083160317CD00E7
:100220005030CE005230CF004D30D0004330D1009E
:10023000D201D6013730D5000130D800CD30D700FB
:10024000831203138820F808031D29290130B50003
:100250004729473083160317CD005030CE00473072
:10026000CF00D0004130D100D201D6013730D500C7
:100270000130D800CD30D700831203138820F8084E
:10028000031D45290230B50047290330B500360B60
:100290005729350B572983160317D4015F30D30034
:1002A000D6013D30D500D701831203135D203608F7
:1002B000033C031D6A29350B6A2983160317D401F1
:1002C0005F30D300D6014530D5000230D70083120D
:1002D00003135D203608043C031D7929350B792969
:1002E0005F084E3C031D77294E30C60079295330F4
:1002F000C6003608053C031D8C29350B8C29831656
:100300000317D4015F30D300D6015230D50002303C
:10031000D700831203135D203608063C031D9B297A
:10032000350B9B295F08453C031D99294530D300B7
:100330009B295730D3003608073C031DAF293508E9
:10034000023C031DAF2983160317D4015F30D3008D
:10035000D6014330D500D701831203135D20B60ABE
:10036000B401BD293408B40A5F3E840083138316A8
:1003700003174C088000831203130030F8008C121E
:100380008A110A122D288E30F70003174808F8004A
:100390004708F900FA01F808031DD8297908F80080
:1003A000F9010830F702F808031DD829F701E02900
:1003B0000310F81BDF29F90DF80DF703D829F813FE
:1003C00003130800031747080319A82AD3004B0892
:1003D0000319A82AD302031CF2297F30D30703187C
:1003E000A82AF8298130D302031CA82A0319A82AB5
:1003F0005308F700F801F901FA01D2014808D100C9
:10040000D1174908D0004A08CF001930D3004E0850
:10041000CF0203181B2A0130D00203181B2AD10275
:1004200003181B2AD20203181B2AD20AD10AD00AA7
:100430004E08CF074D2A4D08D0020318362A013046
:10044000D1020318362AD2020318362AD20AD10A58
:100450004D08D0074E08CF07031C4D2AD00A031DB4
:100460004D2AD10A031D4D2AD20A4D2A4C08803844
:10047000D10203184C2A0130D20203184C2AD20AA6
:100480004C088038D1074D08D007031C2A2AD10A0E
:10049000031D2A2AD20A2A2A7A14D30B502A5B2A4D
:1004A0000310CF0DD00DD10DD20D0310FA0DF90DA3
:1004B000F80DD40D072A541C632A0310F80CF90C0C
:1004C000FA0CD40C662AF7030319A82AD41B8F2A26
:1004D0000310CF0DD00DD10DD20D4E08CF02031851
:1004E0007B2A0130D00203187B2AD10203187B2A11
:1004F000D202031C9E2A4D08D0020318862A01301E
:10050000D1020318862AD202031C9E2A4C08803886
:10051000D10203188F2A0130D202031C9E2AFA0A44
:10052000031D9E2AF90A031D9E2AF80A031D9E2A0E
:10053000F70A0319A82AF80CF90CFA0C4808D3009A
:100540004C08D306D31FA62AF817AC2AF813AC2AF6
:10055000F701F801F901FA01031308000830F80067
:1005600000008711AC112C088316870000000317C8
:10057000B80D831203130712031CC42A2C162C086F
:1005800083168700C82A83122C122C088316870032
:1005900000008312AC152C08831687008312871D78
:1005A000CF2AF80BB02A00008711AC112C08831653
:1005B0008700000083122C162C0883168700000089
:1005C00000008312AC152C08831687008312871D48
:1005D000E72AF8010000071A78148711AC112C08DB
:1005E00083168700831207122C122C0883168700AB
:1005F00083120800493084008317000803190D2B6B
:100600000630F800F701F70B032BF80B022B7B30B9
:10061000F700F70B092B800B002B0800083083161E
:100620000317B9007708BA00831203132C162C089D
:100630008316870000008312AC152C0883168700F0
:100640008312871D212B071A0314071E0310F80DB0
:100650000000AC112C0883168700831287118316C3
:100660000317B90B142B831203132C162C088316B3
:100670008700000083120712831603173A08031934
:10068000482B831203132C122C08831687000317A0
:10069000000083120313AC152C0883168700831205
:1006A000871D502B00008711AC112C088316870082
:1006B0000000831207122C122C0883168700831265
:1006C0000800B630F700FA01F901F80183160317A4
:1006D0001C081D041E041F04031D702BF7017D2B35
:1006E0000310F81B7C2B9C0D9D0D9E0D9F0DFA0D8C
:1006F000F90DF80DF70B702BF81383120313080094
:100700008316031736080319F22BBE003A080319A3
:10071000F22BBE070318932B7F30BE02031CF22B73
:100720000319F22B972B8130BE070318F22B3E08DA
:10073000F700F801F901FA013708C200C2173808BA
:10074000C1003908C0001830BE00BF01401CC02BDA
:100750003D08FA07031CB22BF90A031DB22BF80A55
:100760000319BF173C08F907031CB92BF80A031932
:10077000BF173B08B800B8173808F8070318BF17A9
:10078000BF0DF80CF90CFA0CC20CC10CC00C031014
:10079000BE0BA52B0130F7070318F22BF81BD72B44
:1007A000C20DFA0DF90DF80DF7030319F22BC21F54
:1007B000E82BFA0A031DE82BF90A031DE82BF80AB7
:1007C000031DE82BF80CF90CFA0CF70A0319F22BAD
:1007D0003708BF003B08BF06BF1FF02BF817F62BEA
:1007E000F813F62BF701F801F901FA01831203134C
:1007F00008002C102C08831687008312071008307D
:10080000F800022C0000F817152CF8130317D60C6B
:10081000031303180714031C07107817152C7813FB
:10082000F80B062C132C0000071416308400840BE0
:10083000172C1A2C0000F81B052C781B0F2C080015
:100840000B080317C50003138B13831603178C17AC
:100850000C14000000008312C51F312C03138B17EA
:1008600003170C087F3903196E2CC5000D08C6004C
:100870000F08C7004508D6000313F92303174608DD
:100880008D0047088F0003130B080317C8000313DC
:100890008B13831603178C170C14000000008312AF
:1008A000C81F552C03138B1703170C0D0E0D7F3922
:1008B00003196E2CC5000D08C6000F08C7004508B7
:1008C000D6000313F923031746088D0047088F004D
:1008D0008D0A03198F0A0313202C03170313080032
:1008E0008318752CAD3084008317F701F801F901E6
:1008F000FA0183160317AD01AE01AF01B0012C0858
:100900002B042A0429040319B52C2030B10003104C
:10091000A50DA60DA70DA80DAD0DAE0DAF0DB00D1B
:100920002C083002031D9E2C2B082F02031D9E2C29
:100930002A082E02031D9E2C29082D02031CAF2C11
:100940002908AD022A08031C2A0FAE022B08031C3B
:100950002B0FAF022C08031C2C0FB0020314F70D51
:10096000F80DF90DFA0DB10B872C2D088000840AC3
:100970002E088000840A2F088000840A3008800036
:1009800083120313080004080317CE004D08D0009B
:100990000319ED2C4C088316B90083124B088316FB
:1009A000B80083124A088316B700831249088316D9
:1009B000B600BD01BC012030BB008230BA008312FA
:1009C000031380237A080317CC007908CB0078083A
:1009D000CA007708C900D00BCA2C4C08D9004B08B4
:1009E000D8004A08D7004908D6005608B63CD600B9
:1009F000FA015708DA00D7170310D70CD80CD90C16
:100A0000FA0CF90CF80CF70CD60BFC2CDA1F132D92
:100A1000F709F809F909FA09F70A0319F80A031995
:100A2000F90A0319FA0A7A08CC007908CB00780889
:100A3000CA007708C900CC1F2A2DCE03CE16C909DB
:100A4000CA09CB09CC09C90A0319CA0A0319CB0A76
:100A50000319CC0A3B30D5009A30D400CA30D300F9
:100A6000D2010A30D0004D080319CE0A8314493050
:100A7000840083174C088316A80083124B08831642
:100A8000A70083124A088316A6008312490883161A
:100A9000A500831255088316AC00831254088316F0
:100AA000AB00831253088316AA00831252088316E0
:100AB000A9008312031370247808F708031D772D0B
:100AC00003174D0A5002031D672D0313772D4E089F
:100AD00003197A2D0F3950020319702D0318B22D06
:100AE000CE1BB22D4E1B7A2D2030AC2D031320309F
:100AF0000317CE05CE1E8A2DCE124D08031DCE0340
:100B00007708CE002D30D6000313F92303174E08C3
:100B1000F700CE014D085002031D9A2D7708CE0034
:100B20002E30D6000313F92303174E08F7002030A8
:100B3000CE0500303030CE1EAC2DCE124D08031D38
:100B4000CE037708CE002D30D6000313F923031708
:100B50004E08F700CE013030F7077708D6000313B0
:100B6000F9230317831055088316A800831254082D
:100B70008316A700831253088316A6008312520817
:100B80008316A500AC01AB01AA010A30A9008312AB
:100B9000031370247A080317D5007908D400780865
:100BA000D3007708D200D00B362D03130800803015
:100BB000831CDF2D83160317BD06831203138316D0
:100BC0000317C201C3013908C1003D08C106380836
:100BD0000319CE2EC000F7003C080319D72EC0021F
:100BE0000319732E031C312E3D08C600C6173E089C
:100BF000C5003F08C400C3010310C60CC50CC40CDB
:100C0000C30CC00BFB2DC11F082E4214EB2E42104B
:100C100040104216BB3084008317002F4212C11BC4
:100C20001B2E401C262EC60CC50CC40CC30CF70A88
:100C30000319E62E262EC61B292E0310C30DC40D44
:100C4000C50DC60DF7030319E62E1B2E4217932E72
:100C500042133908C100C11F2F2EC617DF2EC6133D
:100C6000DF2E3C08C000F7003808C0023908C60073
:100C7000C6173A08C5003B08C400C3010310C60CE0
:100C8000C50CC40CC30CC00B3D2EC11F4A2EC21490
:100C9000EB2EC2104010C216BF3084008317002F05
:100CA000C212C11B5D2E401C682EC60CC50CC40CA4
:100CB000C30CF70A0319E62E682EC61B6B2E031011
:100CC000C30DC40DC50DC60DF7030319E62E5D2E29
:100CD000C217932EC2133D08C100C11F712EC61743
:100CE000DF2EC613DF2E3D08C600C6173E08C5001E
:100CF0003F08C400C11F802EC6134215EB2E4211BF
:100D0000C3014010BB3084008317002FC11BA92EE4
:100D10003908C100401C932EC60CC50CC40CC30C72
:100D2000F70A0319E62EC31FA42EC40A031DA42E1E
:100D3000C50A031DA42EC60A031DA42EC60CC50C8D
:100D4000C40CF70A0319E62E421B282EC21B6A2E7A
:100D5000C82E8030C606C61FB12EEB2E3D08C1003E
:100D6000BE2E3908C100C608031DBE2EC508031DCE
:100D7000BE2EC408031DBE2EF701DF2EC61BC82ED3
:100D80000310C30DC40DC50DC60DF70BBE2EE62E08
:100D9000C11FCC2EC617DF2EC613DF2E3C08F7006E
:100DA0003D08C6003E08C5003F08C400DF2E3808D5
:100DB000F7003908C6003A08C5003B08C4004608D9
:100DC000F8004508F9004408FA001E2FF701F80161
:100DD000F901FA011E2FC301C409C509C609C309D7
:100DE000C30A031DF92EC40A031DF92EC50A0319EF
:100DF000C60A4218072EC218492E42197F2EAE2E5F
:100E00000008C407031C0A2FC50A031D0A2FC60ABF
:100E10000319401484030008C507031C122FC60AD7
:100E20000319401484030008801F803AC607031882
:100E30004014421A0E2EC21A502E862E831203130D
:100E40000800A32141272C002C162C162C050D0080
:100E5000A329412A2C004F336616EC346E00453925
:100E60007216453972008318382FC63084008317F4
:100E700083160317410845068039CB00C11F4B2F4D
:100E8000BE09BF09C009C109BE0A0319BF0A031977
:100E9000C00A0319C10AC51F582FC209C309C409D2
:100EA000C509C20A0319C30A0319C40A0319C50AEA
:100EB000F701F801F901FA01C601C701C801C9012A
:100EC00045084404430442040319962F2030CA0005
:100ED0000310BE0DBF0DC00DC10DC60DC70DC80D51
:100EE000C90D45084902031D7F2F44084802031D10
:100EF0007F2F43084702031D7F2F42084602031C31
:100F0000902F4208C6024308031C430FC70244083F
:100F1000031C440FC8024508031C450FC9020314F3
:100F2000F70DF80DF90DFA0DCA0B682FCB1FA32F83
:100F3000F709F809F909FA09F70A0319F80A031970
:100F4000F90A0319FA0A46088000840A4708800053
:100F5000840A48088000840A490880008312031329
:100F60000800203083160317C800C401C501C6015C
:100F7000C7013F08FA003E08F9003D08F8003C08A8
:100F8000F7000310771CD22F4008C407410803184C
:100F9000410FC50742080318420FC607430803184C
:100FA000430FC707C70CC60CC50CC40CFA0CF90CD0
:100FB000F80CF70CC80BC12F83120313080083161B
:100FC0008612203083128606DF300317990007301F
:0A0FD0009A008A150A120313AC2ED2
:101000008316D10A1430F80083121F08C3397804FC
:101010009F009F149F180A281E08FA0083161E08B6
:10102000D4007A08D500550883120317C60083162A
:101030000313540883120317C500C8010530C70005
:101040001030C900F701FA01C60CC50C031C2E288C
:101050004708F7070318FA0A4808FA07FA0CF70CCA
:10106000F90CF80CC90B24287908C6007808C500CB
:101070004608C8004508C7008A110313C3218A1512
:101080007A080317CA007908C9007808C8007708E9
:10109000C700CE01CD01CC018930CB008A110313EA
:1010A000E2218A157A088316E5007908E4007808B9
:1010B000E3007708E20083122C162C0883168700C1
:1010C00000008312AC152C088316870000008312E1
:1010D00007122C122C088316870000008312871138
:1010E000AC112C088316870080300317B8008A11D2
:1010F00083120313AE228A15043083160317B80037
:101100008A1183120313AE228A152C122C0883161F
:10111000870000008312AC152C0883168700831209
:10112000871D90280000942800002C162C08831698
:1011300087000000013083120317C9008A110313CE
:10114000FA228A152C162C088316870000008312B9
:10115000AC152C08831687000000831207122C128E
:101160002C0883168700000083128711AC112C080D
:101170008316870081300317B8008A118312031386
:10118000AE228A150130F7008A110E238A157808DD
:10119000ED00F7018A110E238A157808EC002C1255
:1011A0002C088316870000008312AC152C088316C8
:1011B00087008312871DDA280000DE2800002C1625
:1011C0002C0883168700000083126D080317C600E1
:1011D00003136C080317C500C701C801480883162C
:1011E0009F008312470883169E00831246088316C9
:1011F0009D008312450883169C008A1183120313F5
:1012000061238A157A0883160317B9007908B80094
:101210007808B7007708B600CD30BD00CC30BC00F0
:101220004C30BB007A30BA008A118312031380233A
:101230008A157A088316E9007908E8007808E7003B
:101240007708E600831203174610C701C80183160A
:101250000313091183120915831609118312091149
:1012600012300317C9008A110313FA228A15831654
:101270000911831209152B30F700F70B3D2983164E
:1012800009158312031746100313091D4A29031772
:10129000461403130317461C50290130F800CB29CC
:1012A0008530F700F70B52298316031309158312B3
:1012B000031746100313091D60290317461403136F
:1012C0000317461866290230F800CB298530F7004D
:1012D000F70B6829C7014708043C031CAC296E3092
:1012E0004707F800FA010318FA0A7808C9007A08D3
:1012F000CA00CB01CC01CB014B08073C031CA02941
:101300000310CC0D831603130915831209198A29BA
:10131000031782293130F700F70B8C298F298316A8
:1013200009158312091D972903174C1403138316FB
:10133000091583120919972901300317CB077C2956
:101340004C08F8004908840083134A18831778086A
:1013500080000130C7076B2983160313091183121C
:1013600009150317C7014708033C031CC0296E3049
:101370004707840083130008C8070130C707B32953
:10138000720848020319C8290330F800CB29CB2979
:101390000030F800CB297808C5004508013A03134E
:1013A0000319D929033A0319DC29013A0319E02961
:1013B000E4290130F800642A0230F800642A642A23
:1013C0000330F800642A642A6E08FA006F080317D5
:1013D000C7007A08C8008A110313C3218A157A0846
:1013E000FE007908FD007808FC007708FB007E0805
:1013F0000317CA007D08C9007C08C8007B08C70025
:10140000CE01CD012030CC008230CB008A110313F5
:10141000E2218A157A08FE007908FD007808FC00B0
:101420007708FB0070087F390317C600FA007108BF
:10143000C7007A08C8008A110313C3218A157A08E5
:10144000F6007908F5007808F4007708F300F01F3B
:10145000462A760883160317B9007508B800740881
:10146000B7007308B600BD01BC018030BB007F30FF
:10147000BA008A118312031380238A157A08F600B2
:101480007908F5007808F4007708F3007608031768
:10149000CA007508C9007408C8007308C700CE01E7
:1014A000CD012030CC008230CB008A110313E22121
:1014B0008A157A08F6007908F5007808F4007708AC
:1014C000F3000030F800642A78088316EA00520816
:1014D0005102031D882C2130831203178D00073021
:1014E0008F008A11031320248A15C70803190A2BB9
:1014F0003D080317D6008A110313F9238A153E0805
:101500000317D6008A110313F9238A152C30031709
:10151000D6008A110313F9238A153F080317D60052
:101520008A110313F9238A1540080317D6008A117C
:101530000313F9238A152C300317D6008A110313DD
:10154000F9238A1541080317D6008A110313F923DA
:101550008A1542080317D6008A110313F9238A1546
:101560002C300317D6008A110313F9238A15013092
:101570000317C40044080B3C031CCC2A4530440725
:10158000840083130008C500D6008A110313F923D1
:101590008A150317C40ABA2A2C30D6008A110313FD
:1015A000F9238A1501300317C40044080B3C031CBF
:1015B000E72A52304407840083130008C500D60090
:1015C0008A110313F9238A150317C40AD52A2C306C
:1015D000D6008A110313F9238A1543080317D6008E
:1015E0008A110313F9238A1544080317D6008A11B8
:1015F0000313F9238A150A300317D6008A1103133F
:10160000F9238A150D300317D6008A110313F92325
:101610008A15132B243003178D0007308F008A1191
:10162000031320248A15283003178D0007308F00FC
:101630008A11031320248A1583166A08013A83123B
:101640000319292B033A0319292B013A0319332BC8
:101650003D2B2B3003178D0007308F008A110313A9
:1016600020248A156D2B2F3003178D0007308F0033
:101670008A11031320248A156D2B0130840076080B
:101680000317CC007508CB007408CA007308C900A2
:101690000130CD008A110313C3248A152C3003179F
:1016A000D6008A110313F9238A15013084007E08BD
:1016B0000317CC007D08CB007C08CA007B08C9005A
:1016C0000130CD008A110313C3248A152C3003176F
:1016D000D6008A110313F9238A1583148316590837
:1016E0000317BB00031358080317BA000313570866
:1016F0000317B900031356080317B80003135D0856
:101700000317BF0003135C080317BE0003135B0835
:101710000317BD0003135A080317BC008A11831274
:101720000313D7258A157A080317C8007908C7005C
:101730007808C6007708C500893084008316031333
:10174000610883120317CC00831603136008831209
:101750000317CB00831603135F0883120317CA0015
:10176000831603135E0883120317C9000230CD00ED
:101770008A110313C3248A152C300317D6008A114B
:101780000313F9238A150230840083165D0883123F
:101790000317CC00831603135C0883120317CB00D6
:1017A000831603135B0883120317CA0083160313FF
:1017B0005A0883120317C9000230CD008A1103139F
:1017C000C3248A152C300317D6008A110313F9237A
:1017D0008A150230840003174808CC004708CB0064
:1017E0004608CA004508C9000230CD008A1103131B
:1017F000C3248A152C300317D6008A110313F9234A
:101800008A15893084008316650883120317CC007B
:1018100083160313640883120317CB008316031384
:10182000630883120317CA00831603136208831226
:101830000317C9000230CD008A110313C3248A158F
:101840002C300317D6008A110313F9238A15893027
:1018500084008316690883120317CC0083160313D0
:10186000680883120317CB008316031367088312DB
:101870000317CA0083160313660883120317C900EF
:101880000230CD008A110313C3248A150A300317CE
:10189000D6008A110313F9238A150D300317D600D9
:1018A0008A110313F9238A150317C5014508053C5E
:1018B000031C612C3D304507840083138001C50A59
:1018C000562CC50145080B3C031C6D2C45304507C3
:1018D000840083138001C50A622CC50145080B3CB6
:1018E000031C792C52304507840083138001C50AFC
:1018F0006E2CC5014508013C031C852C433045076F
:10190000840083138001C50A7A2C83160313D10146
:10191000003083120317AE000830AF008A150A1298
:101920000313AC2EB630F700FA01F901F801831663
:1019300003173A10B91FAA2C3A14B609B709B80907
:10194000B909B60A031DAA2CB70A031DAA2CB80AA6
:101950000319B90A3608370438043904031DB22CB8
:10196000F701C12C0310F81BBE2CB60DB70DB80D36
:10197000B90DFA0DF90DF80DF70BB22CF8133A1852
:10198000F8178312031308002C162C0883168700FF
:1019900000008312AC152C08831687000000831208
:1019A00007122C122C08831687000000831287115F
:1019B000AC112C0883168700EE300317B8008A118B
:1019C00083120313AE228A1503173A088316B80050
:1019D0008A1183120313AE228A152C162C08831643
:1019E000870000008312AC152C08831687000000C6
:1019F0008312871DF92C07122C122C0883168700DE
:101A0000000083128711AC112C0883168700EF3079
:101A10000317B8008A1183120313AE228A15F70147
:101A20008A110E238A1578080317BB0003132C12A2
:101A30002C088316870000008312AC152C0883162F
:101A400087008312871D222D0000262D00002C16F2
:101A50002C08831687000000831203173B08F80048
:101A6000031308002C162C0883168700000083122D
:101A7000AC152C08831687000000831207122C1265
:101A80002C0883168700000083128711AC112C08E4
:101A900083168700EE300317B8008A1183120313F0
:101AA000AE228A15031741088316B8008A118312E3
:101AB0000313AE228A15031742088316B8008A1151
:101AC00083120313AE228A152C122C08831687006A
:101AD00000008312AC152C08831687008312871D23
:101AE0006F2D0000732D00002C162C088316870024
:101AF0000000831208002C162C08831687000000B3
:101B00008312AC152C08831687000000831207127D
:101B10002C122C0883168700000083128711AC1149
:101B20002C0883168700EE300317B8008A11831241
:101B30000313AE228A15031738088316B8008A11DA
:101B400083120313AE228A152C162C0883168700E5
:101B500000008312AC152C08831687000000831246
:101B6000871DB02D07122C122C0883168700000049
:101B700083128711AC112C0883168700EF300317EE
:101B8000B8008A1183120313AE228A150130F700C0
:101B90008A110E238A1578080317B900F7018A11F4
:101BA00003130E238A1578080317BA0003132C12A7
:101BB0002C088316870000008312AC152C088316AE
:101BC00087008312871DE22D0000E62D00002C16F1
:101BD0002C08831687000000831203173908F800C9
:101BE0003A08F9000313080003081F39830083161D
:101BF000031787152A300313990000309A00A63086
:101C00009800903083129800FF30AC002C102C0804
:101C100083168700831207143310B310B401B50183
:101C20008316D1010230D200D301EA0183120317D7
:101C3000B101B00183160908C039890003131F12CE
:101C40009F120030031788008312870188018901E1
:101C500083130313AD01AE010A16622C0A1214306D
:101C60000317B200FA30C9008A110313FA228A1549
:101C70000317B20B322E0313861603179401960135
:101C80000A30950098019701DF30990007309A00DB
:101C90009B019D010A309C009F0101309E00003095
:101CA000A0001030A100A201A4010A30A300A601E7
:101CB0000230A5000030A7001830A800A901AB0130
:101CC0000A30AA00AD010330AC000030AE0008308D
:101CD000AF000313AB01B53090008E010B308F00C5
:101CE000DC308E000C1003102B0DF7008A115120F0
:101CF0008A15F900013077078A1151208A15FA00F8
:101D00007908840083137A1883170008F900840A7D
:101D10000008F700840A0008F800840A800A000816
:101D2000FA00031D962E840A800A8403840A0008A0
:101D30007802031DAE2E77087A02031DAE2E8403AF
:101D40008001840A8001840AF91BAE2E840A0008EF
:101D50008A0084030008820083120313AB0A043054
:101D60002B02031D732EAB010C186D2EB42EFF3009
:041D7000AB00630061
:1020000001300317E4001030E3008310831603133C
:102010002F080317C10003132E080317C000031372
:102020002D080317BF0003132C080317BE00C501BA
:10203000C401C3010230C2000A1283120313332702
:102040000A167A088316031797007908960078080D
:10205000950077089400003014028312E50083167F
:1020600015088312E600FA30031CFB30E6028316E3
:1020700016088312E7000030031C0130E7028316C4
:1020800017088312E8000030031C0130E8028310B7
:1020900068088316C100831267088316C000831284
:1020A00066088316BF00831265088316BE00C5014B
:1020B000C401C3010430C2000A1283120313332780
:1020C0000A167A088316031797007908960078088D
:1020D0009500770894008310831268088316C10066
:1020E000831267088316C000831266088316BF0038
:1020F000831265088316BE00C501C401C301043004
:10210000C2000A128312031333270A167A088316B1
:1021100003179B0079089A007808990077089800BF
:102120001708BF001608BE001508BD001408BC0043
:102130001B08C3001A08C2001908C1001808C00013
:102140000A1283120313B1270A167A08831603179B
:102150009700790896007808950077089400831016
:102160001708C1001608C0001508BF001408BE00FB
:10217000C501C4010830C300C2010A12831203134F
:1021800033270A167A0883160317970079089600F2
:10219000780895007708940003134008F700410879
:1021A000F800F901FA01C11FD728F903FA037A08E8
:1021B00003179B0079089A0078089900770898001F
:1021C0001708BF001608BE001508BD001408BC00A3
:1021D0001B08C3001A08C2001908C1001808C00073
:1021E0000A1283120313B1270A167A080317EC00A8
:1021F0007908EB007808EA007708E90083160313F2
:102200003E08F7003F08F800F901FA01BF1F0A294C
:10221000F903FA037A0803179700790896007808FB
:10222000950077089400831268088316BF00831214
:1022300067088316BE00831266088316BD008312EA
:1022400065088316BC001708C3001608C2001508ED
:10225000C1001408C0000A1283120313B1270A1622
:102260007A08831603179700790896007808950076
:10227000770894001708BF001608BE001508BD00B7
:102280001408BC00C301C201C1010230C0000A121F
:1022900083120313B1270A1677080317E907780892
:1022A0000318780FEA0779080318790FEB077A0803
:1022B00003187A0FEC0783106C088316C100831291
:1022C0006B088316C00083126A088316BF0083124E
:1022D00069088316BE00C501C401C3010430C200F1
:1022E0000A128312031333270A167A088316031778
:1022F00097007908960078089500770894009B016C
:102300009A0103133D080317990003133C080317B0
:102310009800991F8D299A039B031B08BF001A0878
:10232000BE001908BD001808BC00C3010130C2007E
:10233000C101C0010A1283120313B1270A167708DC
:102340008316031714078312E900831615088312F6
:10235000EA0078080318780FEA0783161608831234
:10236000EB0079080318790FEB078316170883121F
:10237000EC007A0803187A0FEC0783169701960190
:1023800003133B080317950003133A08031794003F
:10239000951FCC2996039703831083126808831630
:1023A000C100831267088316C00083126608831673
:1023B000BF00831265088316BE00C501C401C301B6
:1023C0000430C2000A128312031333270A167A0854
:1023D000831603179B0079089A00780899007708FC
:1023E00098008310831268088316C100831267085F
:1023F0008316C000831266088316BF008312650827
:102400008316BE00C501C401C3010430C2000A1214
:102410008312031333270A167A08831603179F00C3
:1024200079089E0078089D0077089C001B08BF0073
:102430001A08BE001908BD001808BC001F08C30018
:102440001E08C2001D08C1001C08C0000A12831229
:102450000313B1270A167A08831603179B0079081D
:102460009A00780899007708980083101B08C1002B
:102470001A08C0001908BF001808BE00C501C40131
:102480002030C300C2010A128312031333270A1635
:102490007A08831603179B0079089A007808990038
:1024A000770898001708BF001608BE001508BD0081
:1024B0001408BC001B08C3001A08C2001908C10098
:1024C0001808C0000A1283120313B1270A167A08EB
:1024D0008316031797007908960078089500770807
:1024E000940083101708C1001608C0001508BF002B
:1024F0001408BE00C501C401C3010830C2000A129D
:102500008312031333270A167A08831603179700DA
:102510007908960078089500770894009B019A0145
:102520000313390803179900031338080317980099
:10253000991F9C2A9A039B031B08BF001A08BE0020
:102540001908BD001808BC00831268088316C30070
:10255000831267088316C200831266088316C100BF
:10256000831265088316C0000A1283120313B12771
:102570000A167A08831603179B0079089A007808D0
:1025800099007708980083101B08C1001A08C00042
:102590001908BF001808BE00C501C401C3010230FC
:1025A000C2000A128312031333270A167708831610
:1025B0000317940778080318780F9507790803180C
:1025C000790F96077A0803187A0F97078310170870
:1025D000C1001608C0001508BF001408BE00C501E0
:1025E0000430C400C301C2010A128312031333274B
:1025F0000A167A080317E8007908E7007808E60069
:102600007708E5006508831694008030831266071A
:10261000831695008312670883169600003003180E
:10262000013096078312680883169700003003185C
:102630000130970703133608F7003708F800F9014F
:10264000FA017A0803179B0079089A007808990024
:10265000770898001708BF001608BE001508BD00CF
:102660001408BC001B08C3001A08C2001908C100E6
:102670001808C0000A1283120313B1270A167A0839
:102680008316031797007908960078089500770855
:10269000940083101708C1001608C0001508BF0079
:1026A0001408BE00C501C4018030C300C2010A1273
:1026B0008312031333270A167A080317E8007908F0
:1026C000E7007808E6007708E500E508031D742BAD
:1026D000E608031D742BE708031D742BE808031D8F
:1026E000742B0030F800D42D831603132408003C0B
:1026F000F700F8012508031C250FF8021030F90037
:102700002608031C260FF902FA012708031C270FCD
:10271000FA027A080317970079089600780895005E
:1027200077089400831083126C088316C10083120B
:102730006B088316C00083126A088316BF008312D9
:1027400069088316BE00C501C4011030C300C20170
:102750000A128312031333270A1677088316031706
:1027600094027808031C780F95027908031C790FEE
:1027700096027A08031C7A0F97021708BF00160802
:10278000BE001508BD001408BC00C301C2010C3016
:10279000C1003530C0000A1283120313B1270A1694
:1027A0007A0883160317930079089200780891003D
:1027B0007708900013087F3C031C102C0310100DA9
:1027C0009400110D9500120D9600130D97008310C3
:1027D0001708A8001608A7001508A6001408A500E9
:1027E000831268088316AC00831267088316AB0057
:1027F000831266088316AA00831265088316A9004F
:102800000A128312031370240A167A088316031718
:102810009300790892007808910077089000412C85
:1028200083101308A8001208A7001108A6001008BA
:10283000A500831268088316AC008312670883160C
:10284000AB00831266088316AA00831265088316FC
:10285000A9000A128312031370240A167A08831639
:102860000317970079089600780895007708940078
:102870000310140D9000150D9100160D9200170D08
:10288000930097019601031347080317950003135C
:10289000460803179400951F4F2C96039703130CBB
:1028A0009B00120C9A00110C9900100C98009B0CC4
:1028B0009A0C990C980C9B0C9A0C990C980C1F3044
:1028C0009B05130CFA00120CF900110CF800100C07
:1028D000F700FA0CF90CF80CF70CFA0CF90CF80CE0
:1028E000F70C1F30FA057A089F0079089E007808D7
:1028F0009D0077089C001B08BF001A08BE0019083D
:10290000BD001808BC001F08C3001E08C2001D0837
:10291000C1001C08C0000A1283120313B1270A1653
:102920007A08831603179B0079089A0078089900A3
:1029300077089800FA011B0CF9001A0CF800190C22
:10294000F700F90CF80CF70CF90CF80CF70CF90C73
:10295000F80CF70CF90CF80CF70C0730F905170810
:10296000BF001608BE001508BD001408BC007A0898
:10297000C3007908C2007808C1007708C0000A12B5
:1029800083120313B1270A167A08831603179700D8
:102990007908960078089500770894008310170846
:1029A000C1001608C0001508BF001408BE00C5010C
:1029B000C4011030C300C2010A128312031333276B
:1029C0000A167A080317E8007908E7007808E60095
:1029D0007708E5008316130CFA00120CF900110CAD
:1029E000F800100CF700FA0CF90CF80CF70C3F305B
:1029F000FA057A0897007908960078089500770814
:102A0000940003134408F7004508F800F901FA019F
:102A1000C51F0C2DF903FA037A0803179B007908E8
:102A20009A0078089900770898001708BF001608E0
:102A3000BE001508BD001408BC001B08C3001A081E
:102A4000C2001908C1001808C0000A12831203133B
:102A5000B1270A167A08831603179700790896009B
:102A6000780895007708940083101708C1001608AD
:102A7000C0001508BF001408BE00C501C401203005
:102A8000C300C2010A128312031333270A167A08FD
:102A90000317EC007908EB007808EA007708E900F2
:102AA00069086507831694008312660883169500EB
:102AB00083126A0803186A0F5E2D612D831695072D
:102AC000831267088316960083126B0803186B0F36
:102AD0006A2D6D2D8316960783126808831697005A
:102AE00083126C0803186C0F762D792D83169707C7
:102AF0008312831603134208F7004308F800F90114
:102B0000FA01C31F852DF903FA0377080317940709
:102B100078080318780F950779080318790F960736
:102B20007A0803187A0F970783101708C100160850
:102B3000C0001508BF001408BE00C501C401C301D0
:102B40001030C2000A128312031333270A168316A9
:102B500003171008F70711080318110FF8071208D8
:102B60000318120FF90713080318130FFA077A084E
:102B700093007908920078089100770890008312FA
:102B80006308840083136418831783161008800079
:102B9000840A11088000840A12088000840A13083D
:102BA00080000130F8008312831013088316A800F8
:102BB000831212088316A700831211088316A60039
:102BC000831210088316A500AC01AB01AA01643082
:102BD000A9000A128312031370240A167A088316B6
:102BE0000317930079089200780891007708900005
:102BF0008314943084008317831213088316A8006B
:102C0000831212088316A700831211088316A600E8
:102C1000831210088316A500AC01AB01AA01643031
:102C2000A9000A128312031370240A1683160317CD
:102C300017089B0016089A001508990014089800B8
:102C40001B089F001A089E0019089D0018089C0088
:102C50000A128312031361230A167A0883160317D4
:102C6000B9007908B8007808B7007708B6000A30CC
:102C7000BD00D730BC002330BB007830BA000A1248
:102C80008312031380230A167A08831603179B0006
:102C900079089A00780899007708980013089F002F
:102CA00012089E0011089D0010089C000A12831251
:102CB000031361230A16831603179D0104089C0061
:102CC0001D10831B1D1483107A08BB007908BA00FD
:102CD0007808B9007708B8001B08BF001A08BE00C2
:102CE0001908BD001808BC000A1283120313D72567
:102CF0000A16831603171C08840083131D188317F4
:102D00007A080313DD007908DC007808DB00770817
:102D1000DA005308033C031C952E5D08D9005C08BB
:102D2000D8005B08D7005A08D600D30A5308023CE3
:102D300003189C2E0430D300003083120317A00028
:0C2D40001030A1008A150A120313AC2EFB
:1030000083160317AB01EB30AA00B7018312031339
:103010002C162C088316870000008312AC152C0890
:10302000831687000000831207122C122C088316C7
:103030008700000083128711AC112C0883168700CB
:10304000EE300317B8000A128A1183120313AE225E
:103050000A168A15F73083160317B8000A128A1168
:1030600083120313AE220A168A152C162C08831617
:10307000870000008312AC152C088316870000001F
:103080008312871D412807122C122C0883168700F3
:10309000000083128711AC112C0883168700EF30D3
:1030A0000317B8000A128A1183120313AE220A16FC
:1030B0008A150130F7000A128A110E230A168A15A2
:1030C000780883160317B6000130F7000A128A1138
:1030D000831203130E230A168A1578088316031722
:1030E000B5000130F7000A128A11831203130E2370
:1030F0000A168A15780883160317B400370CBC002B
:10310000360CBB00350CBA00340CB900BC0CBB0C3F
:10311000BA0CB90CBC0CBB0CBA0CB90CBC0CBB0C7B
:10312000BA0CB90C0F30BC053908F7003A08F800A2
:103130003B080F39F900FA017A080313A700790850
:10314000A6007808A5007708A4000130F7000A124D
:103150008A1183120E230A168A157808831603171C
:10316000B6000130F7000A128A11831203130E23EE
:103170000A168A15780883160317B5000130F70080
:103180000A128A11831203130E230A168A1578086D
:1031900083160317B400370CBC00360CBB00350C8B
:1031A000BA00340CB900BC0CBB0CBA0CB90CBC0C8A
:1031B000BB0CBA0CB90CBC0CBB0CBA0CB90C0F3064
:1031C000BC053908F7003A08F8003B080F39F90048
:1031D000FA017A080313A3007908A2007808A10075
:1031E0007708A0000317B6010130F7000A128A1110
:1031F000831203130E230A168A1578088316031701
:10320000B500F7010A128A11831203130E230A165E
:103210008A15780883160317B400831203132C123F
:103220002C088316870000008312AC152C08831627
:1032300087008312871D1A2900001E2900002C1602
:103240002C0883168700000003173408F7003508A0
:10325000F800F901FA017A080313AB007908AA0013
:103260007808A9007708A800831023080317C10075
:10327000031322080317C000031321080317BF001C
:10328000031320080317BE00C501C401C3010830A1
:10329000C2000A128A118312031333270A168A15F1
:1032A0007A0883160317B7007908B6007808B500C6
:1032B0007708B400BB01BA01031331080317B90042
:1032C000031330080317B8003B08BF003A08BE00DC
:1032D0003908BD003808BC00C301C201C101023079
:1032E000C0000A128A1183120313B1270A168A1525
:1032F000770883160317B4027808031C780FB50209
:103300007908031C790FB6027A08031C7A0FB702FA
:1033100003133208F7003308F800F901FA01B31F6C
:103320009329F903FA037A080317BB007908BA0056
:103330007808B9007708B8003708BF003608BE0023
:103340003508BD003408BC003B08C3003A08C20081
:103350003908C1003808C0000A128A118312031309
:10336000B1270A168A157A0883160317B700790859
:10337000B6007808B5007708B40083103708C1009C
:103380003608C0003508BF003408BE00C501C401BE
:103390000830C300C2010A128A11831203133327B3
:1033A0000A168A157A0883160317AF007908AE004B
:1033B0007808AD007708AC008310031323080317C7
:1033C000C100031322080317C000031321080317C9
:1033D000BF00031320080317BE00C501C401C301C9
:1033E0001030C2000A128A118312031333270A16FF
:1033F0008A157A0883160317B7007908B60078088B
:10340000B5007708B40003133008F7003108F8005E
:10341000F901FA0130080317B4027808031C780F89
:10342000B5027908031C790FB6027A08031C7A0FDB
:10343000B7028310031323080317C10003132208E4
:103440000317C000031321080317BF00031320084C
:103450000317BE00C501C401C3011030C2000A1227
:103460008A118312031333270A168A157A088316E2
:103470000317BB007908BA007808B9007708B800CC
:1034800003133108F800F901FA0130080317380274
:10349000F7007808031C780F4F2A3908502A3902A0
:1034A000F8007908031C790F572A3A08582A3A027B
:1034B000F9007A08031C7A0F5F2A3B08602A3B0256
:1034C000FA00BB007908BA007808B9007708B8009C
:1034D0003708BF003608BE003508BD003408BC0000
:1034E0003B08C3003A08C2003908C1003808C000D0
:1034F0000A128A1183120313B1270A168A157A0851
:1035000083160317B7007908B6007808B500770866
:10351000B40083103708C1003608C0003508BF006A
:103520003408BE00C501C4011030C300C2010A1234
:103530008A118312031333270A168A157A08831611
:103540000317B7007908B6007808B5007708B4000B
:1035500003133408F7003508F800F901FA01B51F24
:10356000B32AF903FA037A080317BB007908BA00F3
:103570007808B9007708B8003708BF003608BE00E1
:103580003508BD003408BC003B08C3003A08C2003F
:103590003908C1003808C0000A128A1183120313C7
:1035A000B1270A168A157A0883160317B700790817
:1035B000B6007808B5007708B40083103708C1005A
:1035C0003608C0003508BF003408BE00C501C4017C
:1035D0004030C300C2010A128A1183120313332739
:1035E0000A168A157A0883160317B3007908B20001
:1035F0007808B1007708B00030082C070313AC003E
:1036000003172D080313AD00031731080318310FFA
:103610000A2B0D2B0313AD0703172E080313AE005F
:10362000031732080318320F162B192B0313AE079A
:1036300003172F080313AF00031733080318330FC2
:10364000222B252B0313AF0703172B08FA002A0898
:10365000840083132B188317B7010408B6003710B2
:10366000831B371403132F080317BF0003132E08FF
:103670000317BE0003132D080317BD0003132C0806
:103680000317BC00C301C201C1010530C0000A120A
:103690008A1183120313B1270A168A15831603179A
:1036A000360884008313371883177A08BB0079081B
:1036B000BA007808B9007708B8008030B807003041
:1036C00003180130B907003003180130BA07003081
:1036D00003180130BB07BD010408BC003D10831B6B
:1036E0003D1483103B08C1003A08C0003908BF00F0
:1036F0003808BE00C501C4010130C300C2010A126E
:103700008A118312031333270A168A1583160317A7
:103710003C08840083133D18831777088000840ACF
:1037200078088000840A79088000840A7A0880007A
:103730000130F800831003136E080317C100031350
:103740006D080317C00003136C080317BF000313B1
:103750006B080317BE00C501C401C3016430C20079
:103760000A128A118312031333270A168A157A085C
:1037700083160317AD007908AC007808AB00770812
:10378000AA008314AE308400831703136E08031756
:10379000C10003136D080317C00003136C0803175F
:1037A000BF0003136B080317BE00C501C401C301AA
:1037B0006430C2000A128A118312031333270A16D7
:1037C0008A15831603173108B5003008B4002F0896
:1037D000B3002E08B2003508B9003408B800330829
:1037E000B7003208B6000A128312031392240A1695
:1037F0007A0883160317B9007908B8007808B7006B
:103800007708B6000A30BD00D730BC002330BB00BB
:103810007830BA000A128A118312031380230A1621
:103820008A157A0883160317B5007908B40078085A
:10383000B3007708B2002D08B9002C08B8002B0897
:10384000B7002A08B6000A128312031392240A163C
:1038500083160317B7010408B6003710831B37140B
:1038600083107A08BB007908BA007808B900770895
:10387000B8003508BF003408BE003308BD00320868
:10388000BC000A128A1183120313D7250A168A155F
:1038900083160317360884008313371883177A08B2
:1038A0000313E1007908E0007808DF007708DE0004
:1038B000003083120317A7001830A8008A150A12D7
:1038C0000313AC2E83168C16C03083128B04831620
:1038D00003170908C039890003131F129F122030F3
:1038E00003178800831203131F179F1783169F1750
:1038F00083121F14FF3083168500DF3086009E3050
:103900008700FF30880089000317880189010313AD
:103910008100831286122C162C0883168700000063
:103920008312AC152C08831687000000831207123F
:103930002C122C0883168700000083128711AC110B
:103940002C088316870080300317B8000A128A11EA
:1039500083120313AE220A168A1583160317B801C1
:103960000A128A1183120313AE220A168A15113025
:1039700083160317B8000A128A1183120313AE22AA
:103980000A168A159F3083160317B8000A128A1187
:1039900083120313AE220A168A152C122C088316E2
:1039A000870000008312AC152C0883168700831251
:1039B000871DD82C0000DC2C00002C162C08831648
:1039C0008700000083122C162C0883168700000045
:1039D0008312AC152C08831687000000831207128F
:1039E0002C122C0883168700000083128711AC115B
:1039F0002C088316870080300317B8000A128A113A
:103A000083120313AE220A168A1505308316031794
:103A1000B8000A128A1183120313AE220A168A15FD
:103A2000203083160317B8000A128A118312031379
:103A3000AE220A168A1583160317B8010A128A11D4
:103A400083120313AE220A168A152C122C08831631
:103A5000870000008312AC152C08831687008312A0
:103A6000871D302D0000342D00002C162C088316E5
:103A7000870000000915043083120317B200FA30E2
:103A8000C9000A128A110313FA220A168A150317AB
:103A9000B20B3F2D0330B2000130B300B400B500CB
:103AA000B601B701D030BA000A120313C4240A16B3
:103AB0007808603C03195F2D0030F800032FE030D8
:103AC0000317C100B630C2000A12031332250A16CA
:103AD00064300317C9000A128A110313FA220A1666
:103AE0008A15F3300317BA000A120313C4240A1606
:103AF00078080139013C031D872D64300317C90084
:103B00000A128A110313FA220A168A15712D8830B7
:103B10000317B8000A1203137B250A1679088316C7
:103B2000B1007808B0008A3083120317B8000A1277
:103B300003137B250A1679088316B3007808B200B0
:103B40008C3083120317B8000A1203137B250A1660
:103B500079088316B5007808B4008E3083120317F5
:103B6000B8000A1203137B250A1679088316B700DA
:103B70007808B600903083120317B8000A120313B6
:103B80007B250A1679088316B9007808B8009230A8
:103B900083120317B8000A1203137B250A1679084B
:103BA0008316BB007808BA00943083120317B8005C
:103BB0000A1203137B250A1679088316BD007808BC
:103BC000BC00963083120317B8000A1203137B253A
:103BD0000A1679088316BF007808BE009830831251
:103BE0000317B8000A1203137B250A1679088316F7
:103BF000C1007808C0009A3083120317B8000A1277
:103C000003137B250A1679088316C3007808C200BF
:103C10009C3083120317B8000A1203137B250A167F
:103C200079088316C5007808C4009E3083120317F4
:103C3000B8000A1203137B250A1679088316C700F9
:103C40007808C600A13083120317BA000A120313C2
:103C5000C4240A1678088316C800E13083120317BB
:103C6000B8000A1203137B250A1679088316CA00C6
:103C70007808C900E33083120317BA000A1203134D
:103C8000C4240A1678088316CB00E4308312031785
:103C9000BA000A120313C4240A160317B9017808DC
:103CA000B800B80DB90DB80DB90DB80DB90DB80DF6
:103CB000B90DF030B805E530BA000A120313C42478
:103CC0000A1678080F3903173804F7003908FA0084
:103CD000770883160313CC007A08CD000039F7006B
:103CE0004D080839FA0077087A040319792EF03064
:103CF000CD04E63083120317BA000A120313C4245A
:103D00000A160317B9017808B800B80DB90DB80D37
:103D1000B90DB80DB90DB80DB90DF030B805E530D5
:103D2000BA000A120313C4240A16780EF7000F30E3
:103D3000F705770803173804F7003908FA00770801
:103D400083160313CE007A08CF000039F7004F081E
:103D50000839FA0077087A040319B02EF030CF043E
:103D6000E73083120317BA000A120313C4240A1699
:103D700078088316D000831203173208B80033087E
:103D8000B9003408BA003508BB003608BC00370853
:103D9000BD003A08BE003D0EC100C10DE030C105B6
:103DA0003C0DF700F70DFC30F70577084104FC39AE
:103DB000C000390EC100C10DE030C1053B0DF70058
:103DC000F70DFC30F705770841043804BF00F230E6
:103DD000C1003E08C2000A12031332250A16F5304C
:103DE0000317C1004008C2000A12031332250A1645
:103DF000F4300317C1003F08C2000A120313322532
:0C3E00000A160130F8008A150A122E2E56
:04400E00F22CFF3F52
:00000001FF
;PIC16F887
;CRC=B647  CREATED="11-jun.-20 01:15"
