:1000000008308A0000280000FF00030E8301A100D1
:100010000A08A0008A010408A2007708A300780853
:10002000A4007908A5007A08A60003170D08031399
:10003000A70003170F080313A80003170C080313E6
:10004000A90003170E080313AA00831383128C3030
:100050008400801E2D288C1A4E2822088400230834
:10006000F7002408F8002508F9002608FA002708F8
:1000700003178D000313280803178F0003132908A3
:1000800003178C0003132A0803178E00031320089C
:100090008A00210E8300FF0E7F0E09008A110A12CA
:1000A000C8280A108A100A118207A0340034A73425
:1000B00000348316D601550856075307F800540834
:1000C000FA000318FA0A7808D7007A08D800560808
:1000D000510784008313521883170008D90057086A
:1000E0008400831358188317590880005608D60ACD
:1000F000510784008313521883178008031D5B285F
:100100008312080083165408FA00530884008313EE
:100110007A1883170008D7005608FA00550884009B
:1001200083137A18831700085702031DAE2854085A
:10013000FA005308840083137A1883178008031D7C
:10014000A4280030F800C6285408FA005308D30A3F
:100150000319D40AD50A0319D60A83285408FA00C9
:10016000530884008313541883170008D7005608D7
:10017000FA005508840083135618831700085702A5
:100180000318C428FF30C5280130F8008312080086
:100190008C1EC8281A088316CA004A080D3A831212
:1001A0000319D928293A0319EA28083A0319EE282D
:1001B0009829350BDC2833143508023C0319B31495
:1001C000331CE928B31CE928B31033100130F800C0
:1001D000A329A129B4013408B600A1295F3034074E
:1001E000840083138001B608031D35298316D201CC
:1001F0005F30D100D4013730D300D50183125920AC
:1002000047308316CB005030CC005230CD004D30FB
:10021000CE004330CF00D001D4013730D300D60117
:10022000CB30D50083128220F808031D1A29013033
:10023000B500352947308316CB005030CC0047300D
:10024000CD00CE004130CF00D001D4013730D300F3
:10025000D601CB30D50083128220F808031D332944
:100260000230B50035290330B500360B4329350B74
:1002700043298316D2015F30D100D4013D30D30031
:10028000D501831259203608033C031D5429350B30
:1002900054298316D2015F30D100D4014530D300F8
:1002A0000130D500831259203608043C031D632910
:1002B000350B63295F084E3C031D61294E30C50094
:1002C00063295330C5003608053C031D7429350BDE
:1002D00074298316D2015F30D100D4015230D3008B
:1002E0000130D500831259203608063C031D8329AE
:1002F000350B83295F08453C031D81294530D20019
:1003000083295730D2003608073C031D952935084C
:10031000023C031D95298316D2015F30D100D40120
:100320004330D300D50183125920B60AB401A12964
:100330003408B40A5F3E8400831383164A088000A1
:1003400083120030F8008C128A110A122D2808300E
:10035000F80000008711AC112C08831687000000FC
:10036000B40D83120712031CBB292C162C0883160C
:100370008700BF2983122C122C08831687000000E7
:100380008312AC152C08831687008312871DC6299B
:10039000F80BA92900008711AC112C0883168700DF
:1003A000000083122C162C08831687000000000022
:1003B0008312AC152C08831687008312871DDE2953
:1003C000F8010000071A78148711AC112C08831665
:1003D0008700831207122C122C08831687008312C1
:1003E0000800B4308400831300080319042A06307F
:1003F000F800F701F70BFA29F80BF9297B30F70021
:10040000F70B002A800BF729080008308316B50087
:100410007708B60083122C162C088316870000007C
:100420008312AC152C08831687008312871D162AA9
:10043000071A0314071E0310F80D0000AC112C0856
:1004400083168700831287118316B50B0A2A83123D
:100450002C162C08831687000000831207128316BF
:1004600036080319382A83122C122C0883168700A9
:1004700000008312AC152C08831687008312871D99
:100480003F2A00008711AC112C088316870000005A
:10049000831207122C122C0883168700831208007F
:1004A000B630F700FA01F901F80183163408350473
:1004B00036043704031D5E2AF7016B2A0310F81B6C
:1004C0006A2AB40DB50DB60DB70DFA0DF90DF80D7C
:1004D000F70B5E2AF8138312080083163D080319F0
:1004E000DE2AC50041080319DE2AC50703187F2A42
:1004F0007F30C502031CDE2A0319DE2A832A8130DD
:10050000C5070318DE2A4508F700F801F901FA01CA
:100510003E08C900C9173F08C8004008C700183086
:10052000C500C601471CAC2A4408FA07031C9E2AD2
:10053000F90A031D9E2AF80A0319C6174308F9078A
:10054000031CA52AF80A0319C6174208BF00BF17E3
:100550003F08F8070318C617C60DF80CF90CFA0C7B
:10056000C90CC80CC70C0310C50B912A0130F70742
:100570000318DE2AF81BC32AC90DFA0DF90DF80D70
:10058000F7030319DE2AC91FD42AFA0A031DD42A45
:10059000F90A031DD42AF80A031DD42AF80CF90C11
:1005A000FA0CF70A0319DE2A3E08C6004208C606FE
:1005B000C61FDC2AF817E22AF813E22AF701F8012D
:1005C000F901FA01831208002C102C088316870009
:1005D000831207100830F800ED2A0000F817002BEE
:1005E000F8138316BD0C831203180714031C07109D
:1005F0007817002B7813F80BF12AFE2A0000071455
:1006000016308400840B022B052B0000F81BF02A07
:10061000781BFA2A08000B088316B00083128B138C
:10062000831603178C170C14000000000313B01F6F
:100630001C2B83128B178316831203170C087F3928
:1006400003197D2B83160313B000831203170D08C3
:1006500083160313B100831203170F0883160313C5
:10066000B2003008BD008312E422831631088312E1
:1006700003178D00831603133208831203178F00AC
:1006800003130B088316B30083128B13831603170F
:100690008C170C14000000000313B31F522B83129D
:1006A0008B178316831203170C0D0E0D7F39031958
:1006B0007D2B83160313B000831203170D088316D6
:1006C0000313B100831203170F0883160313B2003C
:1006D0003008BD008312E422831631088312031709
:1006E0008D00831603133208831203178F008D0ABF
:1006F00003198F0A03130B2B031703130800831826
:10070000842BC53084008313F701F801F901FA0145
:100710008316C501C601C701C80144084304420449
:1007200041040319C32B2030C9000310BD0DBE0DB9
:10073000BF0DC00DC50DC60DC70DC80D440848023C
:10074000031DAC2B43084702031DAC2B4208460295
:10075000031DAC2B41084502031CBD2B4108C502FB
:100760004208031C420FC6024308031C430FC70282
:100770004408031C440FC8020314F70DF80DF90DCB
:10078000FA0DC90B952B45088000840A46088000A5
:10079000840A47088000840A480880008312080001
:1007A00004088316B5003408B7000319F22B330888
:1007B000C0003208BF003108BE003008BD00C401CF
:1007C000C3012030C2008230C10083126D227A083A
:1007D0008316B3007908B2007808B1007708B0003A
:1007E000B70BD72B3308C0003208BF003108BE005A
:1007F0003008BD003D08B63CBD00FA013E08C1000E
:10080000BE170310BE0CBF0CC00CFA0CF90CF80C90
:10081000F70CBD0B012CC11F182CF709F809F909B9
:10082000FA09F70A0319F80A0319F90A0319FA0A67
:100830007A08B3007908B2007808B1007708B000F0
:10084000B31F2F2CB503B516B009B109B209B3090E
:10085000B00A0319B10A0319B20A0319B30A3B30EB
:10086000BC009A30BB00CA30BA00B9010A30B700E8
:1008700034080319B50A8314B03084008313330895
:10088000C0003208BF003108BE003008BD003C087F
:10089000C4003B08C3003A08C2003908C1008312F3
:1008A0007F237808F708031D6C2C8316340A37025F
:1008B000031D5C2C83126C2C350803196F2C0F3927
:1008C00037020319652C0318A72CB51BA72C351B61
:1008D0006F2C2030A12C831220308316B505B51E55
:1008E0007F2CB5123408031DB5037708B5002D30F1
:1008F000BD008312E42283163508F700B5013408E1
:100900003702031D8F2C7708B5002E30BD008312EF
:10091000E42283163508F7002030B505003030306A
:10092000B51EA12CB5123408031DB5037708B50018
:100930002D30BD008312E42283163508F700B5017F
:100940003030F7077708BD008312E4228316831046
:100950003C08C0003B08BF003A08BE003908BD0093
:10096000C401C301C2010A30C10083127F237A0887
:100970008316BC007908BB007808BA007708B90074
:10098000B70B3B2C83120800ED0A2C162C0883169B
:10099000870000008312AC152C0883168700000026
:1009A000831207122C122C08831687000000831272
:1009B0008711AC112C08831687008030B400831295
:1009C000A72102308316B4008312A7212C122C0811
:1009D0008316870000008312AC152C08831687004D
:1009E0008312871DF12C0000F52C00002C162C081A
:1009F0008316870000000130B4008312F1212C1609
:100A00002C088316870000008312AC152C0883166F
:100A100087000000831207122C122C08831687000F
:100A2000000083128711AC112C08831687008130D7
:100A3000B4008312A7210130F70005227808EC00EA
:100A4000F70105227808EB002C122C08831687008A
:100A500000008312AC152C08831687008312871DB3
:100A60002F2D0000332D00002C162C088316870034
:100A7000000083126C088316B10083126B08831682
:100A8000B000B201B301B30CB20CB10CB00CB30C9A
:100A9000B20CB10CB00CB30CB20CB10CB00C1F30DA
:100AA000B3053308B7003208B6003108B500300886
:100AB000B400831250227A088316C0007908BF0060
:100AC0007808BE007708BD006F30C4001230C30044
:100AD0000330C2007730C10083126D227A08F20021
:100AE0007908F1007808F0007708EF002C162C0840
:100AF0008316870000008312AC152C08831687002C
:100B00000000831207122C122C08831687000000A5
:100B100083128711AC112C08831687008030B40033
:100B20008312A72104308316B4008312A7212C124C
:100B30002C088316870000008312AC152C0883163E
:100B400087008312871DA22D0000A62D00002C1601
:100B50002C088316870000000130B4008312F121B5
:100B60002C162C088316870000008312AC152C0865
:100B7000831687000000831207122C122C0883169C
:100B80008700000083128711AC112C0883168700A0
:100B90008130B4008312A7210130F70005227808C4
:100BA000EC00F70105227808EB002C122C088316C4
:100BB000870000008312AC152C088316870083126F
:100BC000871DE02D0000E42D00002C162C08831654
:100BD0008700000083126C088316B10083126B0833
:100BE0008316B000B201B3013308B7003208B60073
:100BF0003108B5003008B400831250227A088316F9
:100C0000C0007908BF007808BE007708BD00CD306D
:100C1000C400CC30C3004C30C2007A30C100831213
:100C20006D227A08F6007908F5007808F400770854
:100C3000F3006E086D02031D432F4C3003178D0027
:100C400007308F0003130B233D088316BD0083126A
:100C5000E4223E088316BD008312E4222C30831662
:100C6000BD008312E4223F088316BD008312E422F4
:100C700040088316BD008312E4222C308316BD0089
:100C80008312E42241088316BD008312E422420845
:100C90008316BD008312E4222C308316BD0083121C
:100CA000E42245088316BD008312E4224608831619
:100CB000BD008312E42247088316BD008312E4229C
:100CC00048088316BD008312E42249088316BD003C
:100CD0008312E4224A088316BD008312E4224B08E3
:100CE0008316BD008312E4224C088316BD008312D4
:100CF000E4224D088316BD008312E4224E088316B9
:100D0000BD008312E4224F088316BD008312E42243
:100D100050088316BD008312E4222C308316BD00D8
:100D20008312E42252088316BD008312E422530882
:100D30008316BD008312E42254088316BD0083127B
:100D4000E42255088316BD008312E4225608831658
:100D5000BD008312E42257088316BD008312E422EB
:100D600058088316BD008312E42259088316BD007B
:100D70008312E4225A088316BD008312E4225B0822
:100D80008316BD008312E4225C088316BD00831223
:100D9000E4225D088316BD008312E4222C30831602
:100DA000BD008312E42243088316BD008312E422AF
:100DB00044088316BD008312E4222C308316BD0044
:100DC0008312E4228930840072088316B30071080C
:100DD000B2007008B10083126F088316B0000230B1
:100DE000B4008312D0232C308316BD008312E4227A
:100DF0008930840076088316B3007508B200740841
:100E0000B1007308B0000230B4008312D0230A305E
:100E10008316BD008312E4220D308316BD008312B9
:100E2000E4224F3003178D0007308F0003130B238C
:100E30000A308316BD008312E4220D308316BD00F4
:100E40008312E422ED01BD01BE01BF01C001C10159
:100E5000C201C501C601C701C801C901CA01CB0150
:100E6000CC01CD01CE01CF01D001D201D301D401FB
:100E7000D501D601D701D801D901DA01DB01DC01A6
:100E8000DD01C301C401C4308316AC000430AD00E1
:100E90008A150A1283129E28A32141272C00A32918
:100EA000412A2C00AC122C088316870020308312B4
:100EB000870652308316A5000730A6008A150A124D
:100EC00083129E2883168C16C03083128B04FF3049
:100ED0008316850086009E308700FF3088008900D9
:100EE00003178801890103138117831287122C16B7
:100EF0002C088316870000008312AC152C0883167B
:100F000087000000831207122C122C08831687001A
:100F1000000083128711AC112C08831687008030E3
:100F2000B4008312A7218316B4018312A7211130C4
:100F30008316B4008312A7219F308316B400831256
:100F4000A7212C122C088316870000008312AC15F1
:100F50002C08831687008312871DAC2F0000B02F4A
:100F600000002C162C0883168700000083122C1614
:100F70002C088316870000008312AC152C088316FA
:100F800087000000831207122C122C08831687009A
:100F9000000083128711AC112C0883168700803063
:100FA000B4008312A72105308316B4008312A72151
:100FB00020308316B4008312A7218316B401831254
:100FC000A7212C122C088316870000008312AC1571
:100FD0002C08831687008312871DEC2F0000F02F4A
:100FE00000002C162C0883168700000083128A1537
:040FF0000A12362883
:1010000003081F398300831603178715083003135D
:10101000990002309A00A630980090308312980010
:10102000FF30AC002C102C088316870083120714A5
:101030003310B310B401B501ED010230EE00FC0134
:10104000FB01831603170908C039890003131F1217
:101050009F120030031788008312870188018901DD
:1010600083130313AD01AE018A11622F8A15143068
:101070008316AE00FA30B4008A118312F1218A156A
:101080008316AE0B3A28831287168316A001A2019D
:101090000A30A100A401A3015230A5000730A60028
:1010A000A701A9010A30A800AB010130AA00C43091
:1010B000AC000430AD008312AB01B53090008E015E
:1010C0000B308F00DC308E000C1003102B0DF7005E
:1010D0008A1151208A15F900013077078A115120B1
:1010E0008A15FA007908840083137A188317000898
:1010F000F900840A0008F700840A0008F800840A4E
:10110000800A0008FA00031D8828840A800A8403E4
:10111000840A00087802031DA02877087A02031DBC
:10112000A02884038001840A8001840AF91BA02876
:10113000840A00088A0084030008820083120313D3
:10114000AB0A02302B02031D6528AB010C185F2887
:08115000A628FF30AB0063008C
:04400E00F22CFF3F52
:00000001FF
;PIC16F887
;CRC=0C0E  CREATED="10-may.-20 01:04"
