:100000000D308A00F02D0000FF00030E8301A100D7
:100010000A08A0008A010408A2007708A300780853
:10002000A4007908A5007A08A60003170D08031399
:10003000A70003170F080313A80003170C080313E6
:10004000A90003170E080313AA00831383128C3030
:100050008400801E2D288C1A4E2822088400230834
:10006000F7002408F8002508F9002608FA002708F8
:1000700003178D000313280803178F0003132908A3
:1000800003178C0003132A0803178E00031320089C
:100090008A00210E8300FF0E7F0E09008A110A12CA
:1000A000D0280A108A100A1182071034013417343C
:1000B00001341E3401342534013483160317D8016A
:1000C000570858075507F8005608FA000318FA0AA7
:1000D0007808D9007A08DA00580853078400831397
:1000E000541883170008DB005908840083135A183A
:1000F00083175B0880005808D80A530784008313CD
:10010000541883178008031D602883120313080006
:10011000831603175608FA005508840083137A18CB
:1001200083170008D9005808FA0057088400831381
:100130007A18831700085902031DB5285608FA00DB
:100140005508840083137A1883178008031DAB2891
:100150000030F800CD285608FA005508D50A0319D2
:10016000D60AD70A0319D80A8A285608FA00550869
:1001700084008313561883170008D9005808FA0022
:10018000570884008313581883170008590203186E
:10019000CB28FF30CC280130F8008312031308006D
:1001A0008C1ED0281A0883160317CC004C080D3A71
:1001B000831203130319E328293A0319F428083A90
:1001C0000319F828B229350BE62833143508023C08
:1001D0000319B314331CF328B31CF328B3103310E2
:1001E0000130F800BF29BD29B4013408B600BD298B
:1001F0005F303407840083138001B608031D47294C
:1002000083160317D4015F30D300D6013730D500F1
:10021000D701831203135D20473083160317CD00E7
:100220005030CE005230CF004D30D0004330D1009E
:10023000D201D6013730D5000130D800CD30D700FB
:10024000831203138820F808031D29290130B50003
:100250004729473083160317CD005030CE00473072
:10026000CF00D0004130D100D201D6013730D500C7
:100270000130D800CD30D700831203138820F8084E
:10028000031D45290230B50047290330B500360B60
:100290005729350B572983160317D4015F30D30034
:1002A000D6013D30D500D701831203135D203608F7
:1002B000033C031D6A29350B6A2983160317D401F1
:1002C0005F30D300D6014530D5000230D70083120D
:1002D00003135D203608043C031D7929350B792969
:1002E0005F084E3C031D77294E30C60079295330F4
:1002F000C6003608053C031D8C29350B8C29831656
:100300000317D4015F30D300D6015230D50001303D
:10031000D700831203135D203608063C031D9B297A
:10032000350B9B295F08453C031D99294530D200B8
:100330009B295730D2003608073C031DAF293508EA
:10034000023C031DAF2983160317D4015F30D3008D
:10035000D6014330D500D701831203135D20B60ABE
:10036000B401BD293408B40A5F3E840083138316A8
:1003700003174C088000831203130030F8008C121E
:100380008A110A122D288E30F70003174108F80051
:100390004008F900FA01F808031DD8297908F80087
:1003A000F9010830F702F808031DD829F701E02900
:1003B0000310F81BDF29F90DF80DF703D829F813FE
:1003C00003130800031740080319A82ACC004408A7
:1003D0000319A82ACC02031CF2297F30CC0703188A
:1003E000A82AF8298130CC02031CA82A0319A82ABC
:1003F0004C08F700F801F901FA01CB014108CA00E5
:10040000CA174208C9004308C8001930CC00470881
:10041000C80203181B2A0130C90203181B2ACA028A
:1004200003181B2ACB0203181B2ACB0ACA0AC90AC3
:100430004708C8074D2A4608C9020318362A013062
:10044000CA020318362ACB020318362ACB0ACA0A74
:100450004608C9074708C807031C4D2AC90A031DD7
:100460004D2ACA0A031D4D2ACB0A4D2A4508803859
:10047000CA0203184C2A0130CB0203184C2ACB0ABB
:1004800045088038CA074608C907031C2A2ACA0A31
:10049000031D2A2ACB0A2A2A7A14CC0B502A5B2A5B
:1004A0000310C80DC90DCA0DCB0D0310FA0DF90DBF
:1004B000F80DCD0D072A4D1C632A0310F80CF90C1A
:1004C000FA0CCD0C662AF7030319A82ACD1B8F2A34
:1004D0000310C80DC90DCA0DCB0D4708C80203187B
:1004E0007B2A0130C90203187B2ACA0203187B2A1F
:1004F000CB02031C9E2A4608C9020318862A013033
:10050000CA020318862ACB02031C9E2A450880389B
:10051000CA0203188F2A0130CB02031C9E2AFA0A52
:10052000031D9E2AF90A031D9E2AF80A031D9E2A0E
:10053000F70A0319A82AF80CF90CFA0C4108CC00A8
:100540004508CC06CC1FA62AF817AC2AF813AC2A0B
:10055000F701F801F901FA01031308000830F80067
:1005600000008711AC112C088316870000000317C8
:10057000B80D831203130712031CC42A2C162C086F
:1005800083168700C82A83122C122C088316870032
:1005900000008312AC152C08831687008312871D78
:1005A000CF2AF80BB02A00008711AC112C08831653
:1005B0008700000083122C162C0883168700000089
:1005C00000008312AC152C08831687008312871D48
:1005D000E72AF8010000071A78148711AC112C08DB
:1005E00083168700831207122C122C0883168700AB
:1005F00083120800423084008317000803190D2B72
:100600000630F800F701F70B032BF80B022B7B30B9
:10061000F700F70B092B800B002B0800083083161E
:100620000317B9007708BA00831203132C162C089D
:100630008316870000008312AC152C0883168700F0
:100640008312871D212B071A0314071E0310F80DB0
:100650000000AC112C0883168700831287118316C3
:100660000317B90B142B831203132C162C088316B3
:100670008700000083120712831603173A08031934
:10068000482B831203132C122C08831687000317A0
:10069000000083120313AC152C0883168700831205
:1006A000871D502B00008711AC112C088316870082
:1006B0000000831207122C122C0883168700831265
:1006C000080003174B080319D22BD3004F08031956
:1006D000D22BD3070318732B7F30D302031CD22BEA
:1006E0000319D22B772B8130D3070318D22B530851
:1006F000F700F801F901FA014C08D700D7174D08A7
:10070000D6004E08D5001830D300D401551CA02BBC
:100710005208FA07031C922BF90A031D922BF80AC0
:100720000319D4175108F907031C992BF80A031968
:10073000D4175008CD00CD174D08F8070318D4176B
:10074000D40DF80CF90CFA0CD70CD60CD50C031000
:10075000D30B852B0130F7070318D22BF81BB72BCF
:10076000D70DFA0DF90DF80DF7030319D22BD71F8A
:10077000C82BFA0A031DC82BF90A031DC82BF80A57
:10078000031DC82BF80CF90CFA0CF70A0319D22B2D
:100790004C08D4005008D406D41FD02BF817D62B01
:1007A000F813D62BF701F801F901FA010313080039
:1007B0002C102C0883168700831207100830F800CD
:1007C000E12B0000F817F42BF8130317D60C0313D2
:1007D00003180714031C07107817F42B7813F80B71
:1007E000E52BF22B0000071416308400840BF62B47
:1007F000F92B0000F81BE42B781BEE2B08000B08EC
:100800000317BE0003138B13831603178C170C14E6
:10081000000000008312BE1F102C03138B17031758
:100820000C087F3903194D2CBE000D08BF000F08BE
:10083000C0003E08D6000313D82303173F088D00DD
:1008400040088F0003130B080317C10003138B1319
:10085000831603178C170C14000000008312C11FAD
:10086000342C03138B1703170C0D0E0D7F3903194E
:100870004D2CBE000D08BF000F08C0003E08D6007A
:100880000313D82303173F088D0040088F008D0AFB
:1008900003198F0A0313FF2B031703130800831890
:1008A000542CA03084008317F701F801F901FA01F4
:1008B00083160317A001A101A201A3011F081E04B2
:1008C0001D041C040319942C2030A4000310980D5F
:1008D000990D9A0D9B0DA00DA10DA20DA30D1F0842
:1008E0002302031D7D2C1E082202031D7D2C1D08E2
:1008F0002102031D7D2C1C082002031C8E2C1C08C9
:10090000A0021D08031C1D0FA1021E08031C1E0FC0
:10091000A2021F08031C1F0FA3020314F70DF80DFA
:10092000F90DFA0DA40B662C20088000840A21081A
:100930008000840A22088000840A23088000831231
:100940000313080004080317C3004208C500031975
:10095000C42C4108CE004008CD003F08CC003E0822
:10096000CB00D201D1012030D0008230CF00031360
:1009700061237A080317C1007908C0007808BF0016
:100980007708BE00C50BA92C4108CE004008CD0059
:100990003F08CC003E08CB004B08B63CCB00FA0128
:1009A0004C08CF00CC170310CC0CCD0CCE0CFA0C9D
:1009B000F90CF80CF70CCB0BD32CCF1FEA2CF70952
:1009C000F809F909FA09F70A0319F80A0319F90AE3
:1009D0000319FA0A7A08C1007908C0007808BF0034
:1009E0007708BE00C11F012DC303C316BE09BF098E
:1009F000C009C109BE0A0319BF0A0319C00A0319B5
:100A0000C10A3B30CA009A30C900CA30C800C701C9
:100A10000A30C50042080319C30A83143E3084001B
:100A20008317410883169B008312400883169A009F
:100A300083123F088316990083123E08831698009C
:100A400083124A0883169F008312490883169E006A
:100A50008312480883169D008312470883169C0062
:100A6000831203134F247808F708031D4E2D031734
:100A7000420A4502031D3E2D03134E2D4308031960
:100A8000512D0F3945020319472D0318892DC31B1A
:100A9000892D431B512D2030832D03132030031744
:100AA000C305C31E612DC3124208031DC30377088B
:100AB000C3002D30D6000313D82303174308F700D3
:100AC000C30142084502031D712D7708C3002E3073
:100AD000D6000313D82303174308F7002030C305BB
:100AE00000303030C31E832DC3124208031DC303E0
:100AF0007708C3002D30D6000313D823031743080B
:100B0000F700C3013030F7077708D6000313D82366
:100B1000031783104A0883169B0083124908831623
:100B20009A00831248088316990083124708831697
:100B300098009F019E019D010A309C0083120313BF
:100B40004F247A080317CA007908C9007808C8003A
:100B50007708C700C50B0D2D031308008318B32DAC
:100B6000C630840083178316031741084506803971
:100B7000CB00C11FC62DBE09BF09C009C109BE0AED
:100B80000319BF0A0319C00A0319C10AC51FD32DCF
:100B9000C209C309C409C509C20A0319C30A031952
:100BA000C40A0319C50AF701F801F901FA01C601DF
:100BB000C701C801C901450844044304420403199C
:100BC000112E2030CA000310BE0DBF0DC00DC10D87
:100BD000C60DC70DC80DC90D45084902031DFA2DE4
:100BE00044084802031DFA2D43084702031DFA2D4D
:100BF00042084602031C0B2E4208C6024308031C8F
:100C0000430FC7024408031C440FC8024508031CD5
:100C1000450FC9020314F70DF80DF90DFA0DCA0BB3
:100C2000E32DCB1F1E2EF709F809F909FA09F70A77
:100C30000319F80A0319F90A0319FA0A4608800089
:100C4000840A47088000840A48088000840A49080A
:100C5000800083120313080004080317CE003B3002
:100C6000D5009A30D400CA30D300D2010A30D00067
:100C700083144A30840083174D0883169B00831227
:100C80004C0883169A0083124B088316990083122E
:100C90004A08831698008312550883169F00831212
:100CA000540883169E008312530883169D008312F6
:100CB000520883169C00831203134F247808F70808
:100CC000031D792E03175008013A031D692E0313E3
:100CD000792E4E0803197B2E0F3950020319722EFC
:100CE0000318822ECE1B822E4E1B7B2E20307C2E94
:100CF00003130317CE013030F7077708D60003132C
:100D0000D82303178310550883169B0083125408B9
:100D100083169A008312530883169900831252088F
:100D2000831698009F019E019D010A309C0083124A
:100D300003134F247A080317D5007908D4007808E4
:100D4000D3007708D200D00B382E03130800A3215C
:100D500041272C00A329412A2C004F336616EC347E
:100D60006E0045397216453972002030831603171C
:100D7000C800C401C501C601C7013F08FA003E080A
:100D8000F9003D08F8003C08F7000310771CD62E48
:100D90004008C40741080318410FC507420803185B
:100DA000420FC60743080318430FC707C70CC60CFA
:100DB000C50CC40CFA0CF90CF80CF70CC80BC52EBA
:100DC00083120313080083168612203083128606CE
:100DD000E33003179500063096008A150A120313B4
:100DE000AC2E2C162C088316870000008312AC153D
:100DF0002C08831687000000831207122C122C087F
:100E000083168700000083128711AC112C0883160B
:100E10008700EE300317B80083120313AE220317C6
:100E200034088316B80083120313AE222C162C0844
:100E30008316870000008312AC152C0883168700E8
:100E400000008312871D222F07122C122C088316F4
:100E50008700000083128711AC112C0883168700CD
:100E6000EF300317B80083120313AE22F7010E23ED
:100E700078080317B50003132C122C08831687007B
:100E800000008312AC152C08831687008312871D7F
:100E9000472F00004B2F00002C162C0883168700CC
:100EA0000000831203173508F800031308002C16FE
:100EB0002C088316870000008312AC152C088316BB
:100EC00087000000831207122C122C08831687005B
:100ED000000083128711AC112C0883168700EE30B6
:100EE0000317B80083120313AE2203173B088316BF
:100EF000B80083120313AE2203173C088316B80010
:100F000083120313AE222C122C08831687000000D4
:100F10008312AC152C08831687008312871D8E2F31
:100F20000000922F00002C162C088316870000006A
:040F30008312080020
:101000008316D10A1430F80083121F08C3397804FC
:101010009F009F149F180A281E08FA0083161E08B6
:10102000D3007A08D400540883120317BF00831634
:101030000313530883120317BE00C1010530C0001B
:101040001030C200F701FA01BF0CBE0C031C2E28A1
:101050004008F7070318FA0A4108FA07FA0CF70CD8
:10106000F90CF80CC20B24287908BF007808BE00E0
:101070003F08C1003E08C0008A110313C3218A152E
:101080007A080317C3007908C2007808C1007708FE
:10109000C000C701C601C5018930C4008A1103130D
:1010A000E2218A157A088316D8007908D7007808D3
:1010B000D6007708D50083122C162C0883168700DB
:1010C00000008312AC152C088316870000008312E1
:1010D00007122C122C088316870000008312871138
:1010E000AC112C088316870080300317B8008A11D2
:1010F00083120313AE228A15043083160317B80037
:101100008A1183120313AE228A152C122C0883161F
:10111000870000008312AC152C0883168700831209
:10112000871D90280000942800002C162C08831698
:1011300087000000013083120317C2008A110313D5
:10114000FA228A152C162C088316870000008312B9
:10115000AC152C08831687000000831207122C128E
:101160002C0883168700000083128711AC112C080D
:101170008316870081300317B8008A118312031386
:10118000AE228A150130F7008A110E238A157808DD
:10119000ED00F7018A110E238A157808EC002C1255
:1011A0002C088316870000008312AC152C088316C8
:1011B00087008312871DDA280000DE2800002C1625
:1011C0002C0883168700000083126D080317BF00E8
:1011D00003136C080317BE00C001C1014108C5001C
:1011E0004008C4003F08C3003E08C200B630F70004
:1011F000FA01F901F8014208430444044504031DBF
:101200000329F70110290310F81B0F29C20DC30D84
:10121000C40DC50DFA0DF90DF80DF70B0329F813E0
:101220007A08CE007908CD007808CC007708CB008A
:10123000CD30D200CC30D1004C30D0007A30CF004D
:101240008A11031361238A157A088316DC00790852
:10125000DB007808DA007708D900831203173F1003
:10126000C001C101831603130911831209158316E6
:1012700009118312091112300317C2008A110313D6
:10128000FA228A1583160911831209152B30F700EB
:10129000F70B482983160915831203173F10031310
:1012A000091D552903173F14031303173F1C5B291E
:1012B0000130F800D6298530F700F70B5D29831639
:1012C00003130915831203173F100313091D6B291C
:1012D00003173F14031303173F1871290230F80056
:1012E000D6298530F700F70B7329C0014008043C6C
:1012F000031CB7296E304007F800FA010318FA0AF8
:101300007808C2007A08C300C401C501C4014408BA
:10131000073C031CAB290310C50D831603130915E5
:1013200083120919952903178D293130F700F70B1E
:1013300097299A29831609158312091DA2290317D3
:10134000451403138316091583120919A2290130C4
:101350000317C40787294508F8004208840083134F
:1013600043188317780880000130C0077629831658
:1013700003130911831209150317C0014008033C28
:10138000031CCB296E304007840083130008C1077B
:101390000130C007BE29720841020319D329033066
:1013A000F800D629D6290030F800D6297808BE00E2
:1013B0003E08013A03130319E429033A0319E72904
:1013C000013A0319EB29EF290130F8006D2A0230A8
:1013D000F8006D2A6D2A0330F8006D2A6D2A6E0818
:1013E000FA006F080317C0007A08C1008A110313BE
:1013F000C3218A157A08FE007908FD007808FC00F0
:101400007708FB007E080317C3007D08C2007C0834
:10141000C1007B08C000C701C6012030C500823072
:10142000C4008A110313E2218A157A08FE007908A4
:10143000FD007808FC007708FB0070087F3903176F
:10144000BF00FA007108C0007A08C1008A110313B6
:10145000C3218A157A08F6007908F5007808F400A7
:101460007708F300F01F4F2A76080317CE0075089F
:10147000CD007408CC007308CB00D201D1018030BC
:10148000D0007F30CF008A11031361238A157A08B8
:10149000F6007908F5007808F4007708F30076087C
:1014A0000317C3007508C2007408C1007308C000A8
:1014B000C701C6012030C5008230C4008A11031361
:1014C000E2218A157A08F6007908F5007808F40018
:1014D0007708F3000030F8006D2A78088316DD00E5
:1014E00052085102031D6D2DA730831203178D0082
:1014F00006308F008A110313FF238A153D08031756
:10150000D6008A110313D8238A153E080317D60084
:101510008A110313D8238A152C300317D6008A1199
:101520000313D8238A153F080317D6008A11031323
:10153000D8238A1540080317D6008A110313D8232D
:101540008A152C300317D6008A110313D8238A1565
:1015500041080317D6008A110313D8238A154208BD
:101560000317D6008A110313D8238A152C300317CA
:10157000D6008A110313D8238A1546080317D6000C
:101580008A110313D8238A1547080317D6008A1136
:101590000313D8238A1548080317D6008A110313AA
:1015A000D8238A1549080317D6008A110313D823B4
:1015B0008A154A080317D6008A110313D8238A15FF
:1015C0004B080317D6008A110313D8238A154C0839
:1015D0000317D6008A110313D8238A154D08031761
:1015E000D6008A110313D8238A154E080317D60094
:1015F0008A110313D8238A154F080317D6008A11BE
:101600000313D8238A1550080317D6008A11031331
:10161000D8238A152C300317D6008A110313D82338
:101620008A1552080317D6008A110313D8238A1586
:1016300053080317D6008A110313D8238A155408B8
:101640000317D6008A110313D8238A1555080317E8
:10165000D6008A110313D8238A1556080317D6001B
:101660008A110313D8238A1557080317D6008A1145
:101670000313D8238A1558080317D6008A110313B9
:10168000D8238A1559080317D6008A110313D823C3
:101690008A155A080317D6008A110313D8238A150E
:1016A0005B080317D6008A110313D8238A155C0838
:1016B0000317D6008A110313D8238A155D08031770
:1016C000D6008A110313D8238A152C300317D600AD
:1016D0008A110313D8238A1543080317D6008A11E9
:1016E0000313D8238A1544080317D6008A1103135D
:1016F000D8238A150A300317D6008A110313D8237A
:101700008A150D300317D6008A110313D8238A15C2
:10171000AA3003178D0006308F008A110313FF23B0
:101720008A1583165D08013A831203199E2B033A2A
:1017300003199E2B013A0319A82BB22BAD300317C6
:101740008D0006308F008A110313FF238A15DB2BCF
:10175000B13003178D0006308F008A110313FF2369
:101760008A15DB2B0130840076080317C100750849
:10177000C0007408BF007308BE000130C2008A11A7
:101780000313A2248A152C300317D6008A110313E1
:10179000D8238A15013084007E080317C1007D0814
:1017A000C0007C08BF007B08BE000130C2008A1167
:1017B0000313A2248A152C300317D6008A110313B1
:1017C000D8238A158310831661080317C1000313F9
:1017D00060080317C00003135F080317BF0003135B
:1017E0005E080317BE00C501C401C3016430C20016
:1017F0008A1183120313AE258A157A080317C100D4
:101800007908C0007808BF007708BE008314423012
:10181000840083178316031361080317C1000313A1
:1018200060080317C00003135F080317BF0003130A
:101830005E080317BE00C501C401C3016430C200C5
:101840008A1183120313AE258A1503174508C900B0
:101850004408C8004308C7004208C600423084005C
:101860004108CD004008CC003F08CB003E08CA002C
:101870008A1103132C268A152E300317D6008A11DD
:101880000313D8238A154230840003174908CD007A
:101890004808CC004708CB004608CA008A11031349
:1018A0002C268A152C300317D6008A110313D8234F
:1018B0008A1583108316650803179B0003136408B9
:1018C00003179A00031363080317990003136208B0
:1018D000031798009F019E019D0164309C008A11AE
:1018E000831203134F248A157A080317C10079085D
:1018F000C0007808BF007708BE008314423084001F
:10190000831783160313650803179B0003136408EA
:1019100003179A000313630803179900031362085F
:10192000031798009F019E019D0164309C008A115D
:10193000831203134F248A1503174508C90044086E
:10194000C8004308C7004208C6004430840041086C
:10195000CD004008CC003F08CB003E08CA008A11E9
:1019600003132C268A152E300317D6008A11031371
:10197000D8238A154230840003174908CD0048084F
:10198000CC004708CB004608CA008A1103132C2656
:101990008A152C300317D6008A110313D8238A1511
:1019A000893084008316690883120317C1008316E7
:1019B0000313680883120317C00083160313670814
:1019C00083120317BF0083160313660883120317DD
:1019D000BE000130C2008A110313A2248A152C30E4
:1019E0000317D6008A110313D8238A15893084007F
:1019F0008316580883120317C10083160313570870
:101A000083120317C00083160313560883120317AB
:101A1000BF0083160313550883120317BE0002305C
:101A2000C2008A110313A2248A152C300317D60092
:101A30008A110313D8238A158930840083165C0821
:101A400083120317C100831603135B088312031765
:101A5000C000831603135A0883120317BF008316AE
:101A60000313590883120317BE000230C2008A1103
:101A70000313A2248A150A300317D6008A11031310
:101A8000D8238A150D300317D6008A110313D823E3
:101A90008A158316D1018312BD01BE01BF01C001A9
:101AA000C101C201C501C601C701C801C901CA01FE
:101AB000CB01CC01CD01CE01CF01D001D201D301A8
:101AC000D401D501D601D701D801D901DA01DB0152
:101AD000DC01DD01C301C40183160030831203174A
:101AE000AA000830AB008A150A120313AC2E2C167C
:101AF0002C088316870000008312AC152C0883166F
:101B000087000000831207122C122C08831687000E
:101B1000000083128711AC112C0883168700EE3069
:101B20000317B8008A1183120313AE228A15031714
:101B300032088316B8008A1183120313AE228A1565
:101B40002C162C088316870000008312AC152C0875
:101B50008316870000008312871DAC2D07122C12FC
:101B60002C0883168700000083128711AC112C0803
:101B700083168700EF300317B8008A11831203130E
:101B8000AE228A150130F7008A110E238A157808D3
:101B90000317B300F7018A1103130E238A1578087F
:101BA0000317B40003132C122C08831687000000BF
:101BB0008312AC152C08831687008312871DDE2D37
:101BC0000000E22D00002C162C0883168700000070
:101BD000831203173308F8003408F90003130800D0
:101BE00003081F3983008316031787152A30031350
:101BF000990000309A00A630980090308312980027
:101C0000FF30AC002C102C088316870083120714B9
:101C10003310B310B401B5018316D1010230D200E4
:101C2000DD013330E900E8002330E7008130E600D1
:101C3000EB01EA0103170908C039890003131F12D9
:101C40009F120030031788008312870188018901E1
:101C500083130313AD01AE010A16A32B0A1214302D
:101C60000317AC00FA30C2008A110313FA228A1556
:101C70000317AC0B322E0313861603179001920143
:101C80000A30910094019301E330950006309600EC
:101C9000970199010A3098009B0101309A000030A9
:101CA0009C0010309D009E01A0010A309F00A201FF
:101CB0000230A1000030A3001830A400A501A70144
:101CC0000A30A600A9010330A8000030AA0008309D
:101CD000AB000313AB01B53090008E010B308F00C9
:101CE000DC308E000C1003102B0DF7008A115120F0
:101CF0008A15F900013077078A1151208A15FA00F8
:101D00007908840083137A1883170008F900840A7D
:101D10000008F700840A0008F800840A800A000816
:101D2000FA00031D962E840A800A8403840A0008A0
:101D30007802031DAE2E77087A02031DAE2E8403AF
:101D40008001840A8001840AF91BAE2E840A0008EF
:101D50008A0084030008820083120313AB0A043054
:101D60002B02031D732EAB010C186D2EB42EFF3009
:041D7000AB00630061
:102000000317E401E230E3008310831603132F0863
:102010000317C10003132E080317C00003132D0874
:102020000317BF0003132C080317BE00C501C4012A
:10203000C3010230C2000A1283120313AE250A162E
:102040007A08831603179700790896007808950098
:1020500077089400003014028312E50083161508F7
:102060008312E600FA30031CFB30E60283161608E2
:102070008312E7000030031C0130E70283161708C3
:102080008312E8000030031C0130E8028310680866
:102090008316C100831267088316C0008312660886
:1020A0008316BF00831265088316BE00C501C401F4
:1020B000C3010430C2000A1283120313AE250A16AC
:1020C0007A08831603179700790896007808950018
:1020D000770894008310831268088316C100831266
:1020E00067088316C000831266088316BF00831238
:1020F00065088316BE00C501C401C3010430C200D7
:102100000A1283120313AE250A167A0883160317E0
:102110009B0079089A0078089900770898001708BA
:10212000BF001608BE001508BD001408BC001B083F
:10213000C3001A08C2001908C1001808C0000A121A
:1021400083120313B5260A167A088316031797001D
:10215000790896007808950077089400831017088E
:10216000C1001608C0001508BF001408BE00C50154
:10217000C4010830C300C2010A1283120313AE2542
:102180000A167A08831603179700790896007808CC
:1021900095007708940003134008F7004108F80001
:1021A000F901FA01C11FD628F903FA037A080317C7
:1021B0009B0079089A00780899007708980017081A
:1021C000BF001608BE001508BD001408BC001B089F
:1021D000C3001A08C2001908C1001808C0000A127A
:1021E00083120313B5260A167A080317EC00790840
:1021F000EB007808EA007708E900831603133E082D
:10220000F7003F08F800F901FA01BF1F0929F90397
:10221000FA037A0803179700790896007808950062
:1022200077089400831268088316BF00831267083A
:102230008316BE00831266088316BD0083126508EC
:102240008316BC001708C3001608C2001508C10099
:102250001408C0000A1283120313B5260A167A085E
:102260008316031797007908960078089500770879
:1022700094001708BF001608BE001508BD0014081A
:10228000BC00C301C201C1010230C0000A128312A6
:102290000313B5260A1677080317E9077808031809
:1022A000780FEA0779080318790FEB077A08031803
:1022B0007A0FEC0783106C088316C10083126B0839
:1022C0008316C00083126A088316BF008312690850
:1022D0008316BE00C501C401C3010430C2000A1246
:1022E00083120313AE250A167A0883160317970084
:1022F0007908960078089500770894009B019A0168
:1023000003133D080317990003133C0803179800B3
:10231000991F8C299A039B031B08BF001A08BE0053
:102320001908BD001808BC00C3010130C200C1017A
:10233000C0010A1283120313B5260A167708831602
:10234000031714078312E900831615088312EA00A5
:1023500078080318780FEA07831616088312EB0033
:1023600079080318790FEB07831617088312EC001E
:102370007A0803187A0FEC07831697019601031366
:102380003B080317950003133A0803179400951FA1
:10239000CB29960397038310831268088316C10024
:1023A000831267088316C000831266088316BF0075
:1023B000831265088316BE00C501C401C301043041
:1023C000C2000A1283120313AE250A167A08831676
:1023D00003179B0079089A007808990077089800FD
:1023E0008310831268088316C1008312670883165E
:1023F000C000831266088316BF0083126508831627
:10240000BE00C501C401C3010430C2000A12831218
:102410000313AE250A167A08831603179F0079085E
:102420009E0078089D0077089C001B08BF001A08D2
:10243000BE001908BD001808BC001F08C3001E0814
:10244000C2001D08C1001C08C0000A128312031339
:10245000B5260A167A08831603179B0079089A0096
:10246000780899007708980083101B08C1001A08A3
:10247000C0001908BF001808BE00C501C401203003
:10248000C300C2010A1283120313AE250A167A088A
:10249000831603179B0079089A007808990077083B
:1024A00098001708BF001608BE001508BD001408E4
:1024B000BC001B08C3001A08C2001908C100180894
:1024C000C0000A1283120313B5260A167A0883166F
:1024D000031797007908960078089500770894000C
:1024E00083101708C1001608C0001508BF001408A3
:1024F000BE00C501C401C3010830C2000A12831224
:102500000313AE250A167A08831603179700790875
:10251000960078089500770894009B019A010313B0
:102520003908031799000313380803179800991FF7
:102530009B2A9A039B031B08BF001A08BE001908B8
:10254000BD001808BC00831268088316C3008312FC
:1025500067088316C200831266088316C1008312BF
:1025600065088316C0000A1283120313B5260A16E3
:102570007A08831603179B0079089A007808990057
:102580007708980083101B08C1001A08C0001908BA
:10259000BF001808BE00C501C401C3010230C2005B
:1025A0000A1283120313AE250A167708831603173F
:1025B000940778080318780F950779080318790F9E
:1025C00096077A0803187A0F970783101708C10037
:1025D0001608C0001508BF001408BE00C50104306D
:1025E000C400C301C2010A1283120313AE250A16E6
:1025F0007A080317E8007908E7007808E60077080A
:10260000E500650883169400803083126607831600
:102610009500831267088316960000300318013076
:10262000960783126808831697000030031801305C
:10263000970703133608F7003708F800F901FA0185
:102640007A0803179B0079089A00780899007708A0
:1026500098001708BF001608BE001508BD00140832
:10266000BC001B08C3001A08C2001908C1001808E2
:10267000C0000A1283120313B5260A167A088316BD
:10268000031797007908960078089500770894005A
:1026900083101708C1001608C0001508BF001408F1
:1026A000BE00C501C4018030C300C2010A128312FA
:1026B0000313AE250A167A080317E8007908E70025
:1026C0007808E6007708E500E508031D732BE608A7
:1026D000031D732BE708031D732BE808031D732BE1
:1026E0000030F800D32D831603132408003CF700B4
:1026F000F8012508031C250FF8021030F900260800
:10270000031C260FF902FA012708031C270FFA02FF
:102710007A080317970079089600780895007708DB
:102720009400831083126C088316C10083126B0817
:102730008316C00083126A088316BF0083126908DB
:102740008316BE00C501C4011030C300C2010A12C5
:1027500083120313AE250A16770883160317940213
:102760007808031C780F95027908031C790F9602EC
:102770007A08031C7A0F97021708BF001608BE00DC
:102780001508BD001408BC00C301C2010C30C10013
:102790003530C0000A1283120313B5260A167A08D0
:1027A0008316031793007908920078089100770840
:1027B000900013087F3C031C0F2C0310100D940095
:1027C000110D9500120D9600130D97008310170838
:1027D0009B0016089A0015089900140898008312A7
:1027E000680883169F008312670883169E00831271
:1027F000660883169D008312650883169C000A12E2
:10280000831203134F240A167A08831603179300C2
:10281000790892007808910077089000402C831086
:1028200013089B0012089A001108990010089800DC
:102830008312680883169F008312670883169E0020
:102840008312660883169D008312650883169C0018
:102850000A12831203134F240A167A0883160317E9
:10286000970079089600780895007708940003107F
:10287000140D9000150D9100160D9200170D930088
:1028800097019601031347080317950003134608A1
:1028900003179400951F4E2C96039703130C9B006F
:1028A000120C9A00110C9900100C98009B0C9A0CB9
:1028B000990C980C9B0C9A0C990C980C1F309B054A
:1028C000130CFA00120CF900110CF800100CF700B0
:1028D000FA0CF90CF80CF70CFA0CF90CF80CF70CD4
:1028E0001F30FA057A089F0079089E0078089D003D
:1028F00077089C001B08BF001A08BE001908BD001D
:102900001808BC001F08C3001E08C2001D08C10033
:102910001C08C0000A1283120313B5260A167A088F
:10292000831603179B0079089A00780899007708A6
:102930009800FA011B0CF9001A0CF800190CF700AA
:10294000F90CF80CF70CF90CF80CF70CF90CF80C66
:10295000F70CF90CF80CF70C0730F9051708BF0055
:102960001608BE001508BD001408BC007A08C30094
:102970007908C2007808C1007708C0000A128312E3
:102980000313B5260A167A088316031797007908E9
:102990009600780895007708940083101708C10006
:1029A0001608C0001508BF001408BE00C501C40108
:1029B0001030C300C2010A1283120313AE250A1697
:1029C0007A080317E8007908E7007808E600770836
:1029D000E5008316130CFA00120CF900110CF80034
:1029E000100CF700FA0CF90CF80CF70C3F30FA0554
:1029F0007A0897007908960078089500770894007F
:102A000003134408F7004508F800F901FA01C51F4F
:102A10000B2DF903FA037A0803179B0079089A0033
:102A200078089900770898001708BF001608BE00BC
:102A30001508BD001408BC001B08C3001A08C2001A
:102A40001908C1001808C0000A1283120313B52622
:102A50000A167A08831603179700790896007808F3
:102A600095007708940083101708C1001608C0006D
:102A70001508BF001408BE00C501C4012030C30002
:102A8000C2010A1283120313AE250A167A0803172D
:102A9000EC007908EB007808EA007708E90069089B
:102AA00065078316940083126608831695008312C7
:102AB0006A0803186A0F5D2D602D8316950783122F
:102AC00067088316960083126B0803186B0F692D35
:102AD0006C2D83169607831268088316970083125D
:102AE0006C0803186C0F752D782D831697078312C9
:102AF000831603134208F7004308F800F901FA01AE
:102B0000C31F842DF903FA03770803179407780885
:102B10000318780F950779080318790F96077A0834
:102B200003187A0F970783101708C1001608C00012
:102B30001508BF001408BE00C501C401C301103050
:102B4000C2000A1283120313AE250A168316031756
:102B50001008F70711080318110FF80712080318D7
:102B6000120FF90713080318130FFA077A089300D6
:102B70007908920078089100770890008312630822
:102B80008400831364188317831610088000840A56
:102B900011088000840A12088000840A130880004B
:102BA0000130F800831200309C0010309D008A151F
:062BB0000A120313AC2E13
:1030000083160317AB01DE30AA00B7018312031346
:103010002C162C088316870000008312AC152C0890
:10302000831687000000831207122C122C088316C7
:103030008700000083128711AC112C0883168700CB
:10304000EE300317B8000A128A1183120313AE225E
:103050000A168A15F73083160317B8000A128A1168
:1030600083120313AE220A168A152C162C08831617
:10307000870000008312AC152C088316870000001F
:103080008312871D412807122C122C0883168700F3
:10309000000083128711AC112C0883168700EF30D3
:1030A0000317B8000A128A1183120313AE220A16FC
:1030B0008A150130F7000A128A110E230A168A15A2
:1030C000780883160317B6000130F7000A128A1138
:1030D000831203130E230A168A1578088316031722
:1030E000B5000130F7000A128A11831203130E2370
:1030F0000A168A15780883160317B400370CBC002B
:10310000360CBB00350CBA00340CB900BC0CBB0C3F
:10311000BA0CB90CBC0CBB0CBA0CB90CBC0CBB0C7B
:10312000BA0CB90C0F30BC053908F7003A08F800A2
:103130003B080F39F900FA017A080313A700790850
:10314000A6007808A5007708A4000130F7000A124D
:103150008A1183120E230A168A157808831603171C
:10316000B6000130F7000A128A11831203130E23EE
:103170000A168A15780883160317B5000130F70080
:103180000A128A11831203130E230A168A1578086D
:1031900083160317B400370CBC00360CBB00350C8B
:1031A000BA00340CB900BC0CBB0CBA0CB90CBC0C8A
:1031B000BB0CBA0CB90CBC0CBB0CBA0CB90C0F3064
:1031C000BC053908F7003A08F8003B080F39F90048
:1031D000FA017A080313A3007908A2007808A10075
:1031E0007708A0000317B6010130F7000A128A1110
:1031F000831203130E230A168A1578088316031701
:10320000B500F7010A128A11831203130E230A165E
:103210008A15780883160317B400831203132C123F
:103220002C088316870000008312AC152C08831627
:1032300087008312871D1A2900001E2900002C1602
:103240002C0883168700000003173408F7003508A0
:10325000F800F901FA017A080313AB007908AA0013
:103260007808A9007708A800831023080317C10075
:10327000031322080317C000031321080317BF001C
:10328000031320080317BE00C501C401C3010830A1
:10329000C2000A128A1183120313AE250A168A1578
:1032A0007A0883160317B7007908B6007808B500C6
:1032B0007708B400BB01BA01031331080317B90042
:1032C000031330080317B8003B08BF003A08BE00DC
:1032D0003908BD003808BC00C301C201C101023079
:1032E000C0000A128A1183120313B5260A168A1522
:1032F000770883160317B4027808031C780FB50209
:103300007908031C790FB6027A08031C7A0FB702FA
:1033100003133208F7003308F800F901FA01B31F6C
:103320009329F903FA037A080317BB007908BA0056
:103330007808B9007708B8003708BF003608BE0023
:103340003508BD003408BC003B08C3003A08C20081
:103350003908C1003808C0000A128A118312031309
:10336000B5260A168A157A0883160317B700790856
:10337000B6007808B5007708B40083103708C1009C
:103380003608C0003508BF003408BE00C501C401BE
:103390000830C300C2010A128A1183120313AE253A
:1033A0000A168A157A0883160317AF007908AE004B
:1033B0007808AD007708AC008310031323080317C7
:1033C000C100031322080317C000031321080317C9
:1033D000BF00031320080317BE00C501C401C301C9
:1033E0001030C2000A128A1183120313AE250A1686
:1033F0008A157A0883160317B7007908B60078088B
:10340000B5007708B40003133008F7003108F8005E
:10341000F901FA0130080317B4027808031C780F89
:10342000B5027908031C790FB6027A08031C7A0FDB
:10343000B7028310031323080317C10003132208E4
:103440000317C000031321080317BF00031320084C
:103450000317BE00C501C401C3011030C2000A1227
:103460008A1183120313AE250A168A157A08831669
:103470000317BB007908BA007808B9007708B800CC
:1034800003133108F800F901FA0130080317380274
:10349000F7007808031C780F4F2A3908502A3902A0
:1034A000F8007908031C790F572A3A08582A3A027B
:1034B000F9007A08031C7A0F5F2A3B08602A3B0256
:1034C000FA00BB007908BA007808B9007708B8009C
:1034D0003708BF003608BE003508BD003408BC0000
:1034E0003B08C3003A08C2003908C1003808C000D0
:1034F0000A128A1183120313B5260A168A157A084E
:1035000083160317B7007908B6007808B500770866
:10351000B40083103708C1003608C0003508BF006A
:103520003408BE00C501C4011030C300C2010A1234
:103530008A1183120313AE250A168A157A08831698
:103540000317B7007908B6007808B5007708B4000B
:1035500003133408F7003508F800F901FA01B51F24
:10356000B32AF903FA037A080317BB007908BA00F3
:103570007808B9007708B8003708BF003608BE00E1
:103580003508BD003408BC003B08C3003A08C2003F
:103590003908C1003808C0000A128A1183120313C7
:1035A000B5260A168A157A0883160317B700790814
:1035B000B6007808B5007708B40083103708C1005A
:1035C0003608C0003508BF003408BE00C501C4017C
:1035D0004030C300C2010A128A1183120313AE25C0
:1035E0000A168A157A0883160317B3007908B20001
:1035F0007808B1007708B00030082C070313AC003E
:1036000003172D080313AD00031731080318310FFA
:103610000A2B0D2B0313AD0703172E080313AE005F
:10362000031732080318320F162B192B0313AE079A
:1036300003172F080313AF00031733080318330FC2
:10364000222B252B0313AF0703172B08FA002A0898
:10365000840083132B188317B7010408B6003710B2
:10366000831B371403132F080317BF0003132E08FF
:103670000317BE0003132D080317BD0003132C0806
:103680000317BC00C301C201C1010530C0000A120A
:103690008A1183120313B5260A168A158316031797
:1036A000360884008313371883177A08BB0079081B
:1036B000BA007808B9007708B8008030B807003041
:1036C00003180130B907003003180130BA07003081
:1036D00003180130BB07BD010408BC003D10831B6B
:1036E0003D1483103B08C1003A08C0003908BF00F0
:1036F0003808BE00C501C4010130C300C2010A126E
:103700008A1183120313AE250A168A15831603172E
:103710003C08840083133D18831777088000840ACF
:1037200078088000840A79088000840A7A0880007A
:103730000130F80000308312A3001830A4008A156D
:103740000A120313AC2E83168C16C03083128B041E
:10375000FF3083168500DF3086009E308700FF3003
:10376000880089000317880189010908C039890088
:1037700003131F129F1220300317880083120313B4
:103780001F179F1783169F1783121F148316811705
:10379000831286122C162C088316870000008312D1
:1037A000AC152C08831687000000831207122C1218
:1037B0002C0883168700000083128711AC112C0897
:1037C0008316870080300317B8000A128A1183120B
:1037D0000313AE220A168A1583160317B8010A12BC
:1037E0008A1183120313AE220A168A15113083162A
:1037F0000317B8000A128A1183120313AE220A16A5
:103800008A159F3083160317B8000A128A11831293
:103810000313AE220A168A152C122C088316870071
:1038200000008312AC152C08831687008312871DB5
:10383000172C00001B2C00002C162C088316870068
:10384000000083122C162C088316870000008312B8
:10385000AC152C08831687000000831207122C1267
:103860002C0883168700000083128711AC112C08E6
:103870008316870080300317B8000A128A1183125A
:103880000313AE220A168A15053083160317B800F3
:103890000A128A1183120313AE220A168A152030E7
:1038A00083160317B8000A128A1183120313AE227B
:1038B0000A168A1583160317B8010A128A11831291
:1038C0000313AE220A168A152C122C0883168700C1
:1038D00000008312AC152C08831687008312871D05
:1038E0006F2C0000732C00002C162C088316870008
:1038F00000000915043083120317AC00FA30C2002F
:103900000A128A110313FA220A168A150317AC0B3E
:103910007E2C0330AC000130AD00AE00AF00B00132
:10392000B101D030B4000A128A110313F1260A162D
:103930008A157808603C0319A02C0030F8005C2E32
:10394000E0300317BB00B630BC000A128A11031323
:1039500057270A168A1564300317C2000A128A1103
:103960000313FA220A168A15F3300317B4000A1259
:103970008A110313F1260A168A1578080139013CC9
:10398000031DCC2C64300317C2000A128A110313E2
:10399000FA220A168A15B42C88300317B2000A12CC
:1039A000031377250A1679088316B1007808B0004A
:1039B0008A3083120317B2000A12031377250A16FE
:1039C00079088316B3007808B2008C30831203178D
:1039D000B2000A12031377250A1679088316B50078
:1039E0007808B4008E3083120317B2000A12031352
:1039F00077250A1679088316B7007808B600903044
:103A000083120317B2000A12031377250A167908E6
:103A10008316B9007808B800923083120317B200F9
:103A20000A12031377250A1679088316BB00780853
:103A3000BA00943083120317B2000A1203137725D9
:103A40000A1679088316BD007808BC0096308312E8
:103A50000317B2000A12031377250A167908831692
:103A6000BF007808BE00983083120317B2000A1214
:103A7000031377250A1679088316C1007808C00059
:103A80009A3083120317B2000A12031377250A161D
:103A900079088316C3007808C2009C30831203178C
:103AA000B2000A12031377250A1679088316C50097
:103AB0007808C4009E3083120317B2000A12031361
:103AC00077250A1679088316C7007808C600A13042
:103AD00083120317B4000A128A110313F1260A167F
:103AE0008A1578088316C800E13083120317B200E4
:103AF0000A12031377250A1679088316CA00780874
:103B0000C900E33083120317B4000A128A110313A9
:103B1000F1260A168A1578088316CB00E430831242
:103B20000317B4000A128A110313F1260A168A1524
:103B30000317B3017808B200B20DB30DB20DB30D87
:103B4000B20DB30DB20DB30DF030B205E530B400D7
:103B50000A128A110313F1260A168A1578080F39FA
:103B600003173204F7003308FA00770883160313AB
:103B7000CC007A08CD000039F7004D080839FA006A
:103B800077087A040319C62DF030CD04E63083128D
:103B90000317B4000A128A110313F1260A168A15B4
:103BA0000317B3017808B200B20DB30DB20DB30D17
:103BB000B20DB30DB20DB30DF030B205E530B40067
:103BC0000A128A110313F1260A168A15780EF700D5
:103BD0000F30F705770803173204F7003308FA00AF
:103BE000770883160313CE007A08CF000039F70058
:103BF0004F080839FA0077087A040319012EF030CB
:103C0000CF04E73083120317B4000A128A1103139A
:103C1000F1260A168A1578088316D0008312031736
:103C20002C08B2002D08B3002E08B4002F08B500F0
:103C30003008B6003108B7003408B800370EBB00B2
:103C4000BB0DE030BB05360DF700F70DFC30F70576
:103C500077083B04FC39BA00330EBB00BB0DE030E3
:103C6000BB05350DF700F70DFC30F70577083B0471
:103C70003204B900F230BB003808BC000A128A11C5
:103C8000031357270A168A15F5300317BB003A08A5
:103C9000BC000A128A11031357270A168A15F4303A
:103CA0000317BB003908BC000A128A1103135727F7
:0E3CB0000A168A150130F8008A150A122E2E07
:04400E00F22CFF3F52
:00000001FF
;PIC16F887
;CRC=0753  CREATED="06-jun.-20 21:51"
